:100000000C94C5010C94ED010C94ED010C94ED01E0
:100010000C94ED010C94ED010C94ED010C94ED01A8
:100020000C94ED010C9473080C94DA120C94611387
:100030000C94ED010C94ED010C94ED010C94ED0188
:100040000C94ED010C94ED010C94ED010C94ED0178
:100050000C94ED010C94ED010C94ED010C94D80C72
:100060000C94ED010C94ED010C94ED010C94ED0158
:100070000C94ED010C94ED010C94ED010C94ED0148
:100080000C94ED010C94ED010C94ED010C94ED0138
:100090000C94ED010C94ED010C94ED010C94ED0128
:1000A0000C94ED010C94ED010C94ED0100C20100E3
:1000B0000100110011000C0000E100000A00250001
:1000C0002500210000960000190039003900360093
:1000D000127A00001F0046004600440080700000B5
:1000E00022004D004D004A00004B00003600750014
:1000F00075007200403800004A009C009C00990086
:10010000802500007200EC00EC00E900C012000045
:10011000E900DA01DA01D70160090000D701B6036E
:10012000B603B303B0040000B3036E076E076B079A
:10013000580200006E07DC0EDC0ED80E2C01000009
:10014000DC0EC11DC11DBE1D0000000024002700E3
:100150002A002D00300000000000250028002B00A0
:100160002E003100000000002300260029002C0092
:100170002F00040404040403040502020202040321
:100180000202020206060606060604040202020431
:100190000408020110408040102040804080080286
:1001A0000401804020100201108010204040000017
:1001B000000200080E0000030401000B0000000014
:1001C0000000000000000000000000000706050419
:1001D0000100080A0B0C0D09080B000202020100C5
:1001E000090400000102020000052400100105249A
:1001F000010101042402060524060001070581030C
:1002000010004009040100020A0000000705020274
:100210004000000705830240000004030904220394
:10022000410072006400750069006E006F002000DC
:100230004C0065006F006E006100720064006F008A
:100240001803410072006400750069006E006F00C1
:1002500020004C004C00430012010002000000404E
:100260004123368000010102000112010002020058
:1002700000404123368000010102000100C180815D
:10028000C105010902A1010901A1008501050919A2
:10029000012903150025019503750181029501755A
:1002A00005810305010930093109381581257F755C
:1002B0000895038106C0C005010906A10185020554
:1002C0000719E029E71500250175019508810295B8
:1002D0000175088103950675081500256505071940
:1002E0000029658100C00904020001030000000923
:1002F000210101000122650007058403400001007F
:10030000000000000000002A2B2800000000000070
:100310000000000000000000000000000000002CB1
:100320009EB4A0A1A2A434A6A7A5AE362D37382727
:100330001E1F20212223242526B333B62EB7B89FB3
:100340008485868788898A8B8C8D8E8F90919293F5
:100350009495969798999A9B9C9D2F3130A3AD3593
:100360000405060708090A0B0C0D0E0F10111213D5
:100370001415161718191A1B1C1DAFB1B0B50000C3
:100380009102E80E1612E9188A0211241FBECFEF5F
:10039000DAE0DEBFCDBF13E0A0E0B1E0EAEDF4E3C8
:1003A00002C005900D92A83BB107D9F714E0A8EB65
:1003B000B3E001C01D92A63DB107E1F713E0C8E824
:1003C000D3E004C02297FE010E945C1AC038D10716
:1003D000C9F70E94B30F0C94601A0C940000FB0143
:1003E000DC0102C001900D9241505040D8F70895B1
:1003F000FC018191861721F08823D9F79927089568
:100400003197CF010895FB01DC018D910190801996
:100410000110D9F3990B0895FB01DC0101900D92B5
:100420000020E1F70895EF92FF920F931F9319C0F8
:100430000091760310917703D801ED91FC91E08053
:10044000F180A091B803B091B903ED91FC9111979F
:100450000680F781E02DCD010995682FC801F701CD
:100460000995E091B803F091B903A081B181149688
:100470002D913C911597CF01F9010995892BC1F672
:100480001F910F91FF90EF900895CF92EF920F93ED
:100490001F938130910511F56F5F7F4FB1F58CE1AE
:1004A00090E00E94C60F182F092F6AE048E020E074
:1004B0000E94DC0A1093B8030093B903609176039D
:1004C000709177038FEB93E04CE32EE30AE35CE259
:1004D000E52E3CE5C32E0E948E0C17C0892BA9F493
:1004E0006F5F7F4F91F486E194E00E948D1605E0E6
:1004F00014E0C8010E948D160750104083E00F3BA6
:100500001807B9F7C8010E948D161F910F91EF903F
:10051000CF90089580E090E06FEF7FEF0E9445025A
:10052000089581E090E06FEF7FEF0E94450208950B
:100530000F931F938C018091B8039091B90360E0F1
:1005400071E00E9406118091B8039091B903B8013F
:100550000E941C118091B8039091B90369E071E089
:100560000E9406111F910F9108958091B8039091F8
:10057000B9036BE071E00E94091108950F931F9376
:100580008C018091B8039091B9036FE071E00E94F3
:10059000091164E670E080E090E00E942E0D0E9458
:1005A00013028091B8039091B90366E171E00E9453
:1005B000091164E670E080E090E00E942E0D0E9438
:1005C00013028091B8039091B90360E271E00E9438
:1005D000091168EE73E080E090E00E942E0D0E9409
:1005E00013028091B8039091B9036EE371E00E9409
:1005F000091160EA7FE080E090E00E942E0D0E94E9
:1006000013028091B8039091B90363E671E00E94F0
:10061000091160ED77E080E090E00E942E0D0E94CD
:1006200013028091B8039091B90360E771E00E94D2
:10063000091160ED77E080E090E00E942E0D0E94AD
:1006400013028091B8039091B9036CE771E00E94A6
:1006500006118091B8039091B903B8010E941C1152
:100660008091B8039091B90360E971E00E9409118B
:1006700068EE73E080E090E00E942E0D0E9413026D
:100680008091B8039091B90362E971E00E94091169
:1006900060E177E280E090E00E942E0D0E9413025C
:1006A0008091B8039091B90362EA71E00E94091148
:1006B0006CE271E080E090E00E942E0D0E94130237
:1006C0008091B8039091B9036EEA71E00E9409111C
:1006D00064E670E080E090E00E942E0D1F910F9183
:1006E0000895EF92FF920F931F93DF93CF93CDB7AF
:1006F000DEB72E970FB6F894DEBF0FBECDBFBC019C
:100700007E010894E11CF11CC7010E9482168091B1
:100710007603909177036FEA71E00E940611809151
:10072000760390917703B7010E941C1180917603A4
:100730009091770363EC71E00E9409118E01085FCC
:100740001F4FC801B7010E948216C8010E94BE0255
:10075000C8010E948D16C7010E948D162E960FB6F5
:10076000F894DEBF0FBECDBFCF91DF911F910F91E7
:10077000FF90EF900895EF92FF920F931F93DF93F6
:10078000CF93CDB7DEB72E970FB6F894DEBF0FBE6E
:10079000CDBFBC017E010894E11CF11CC7010E9481
:1007A0008216809176039091770365EC71E00E9448
:1007B00006118091760390917703B7010E944F1143
:1007C0008E01085F1F4FC801B7010E948216C80141
:1007D0000E949802C8010E948D16C7010E948D16C2
:1007E0002E960FB6F894DEBF0FBECDBFCF91DF912E
:1007F0001F910F91FF90EF9008950F931F93DF9338
:10080000CF93CDB7DEB727970FB6F894DEBF0FBEF4
:10081000CDBFBC018E010F5F1F4FC8010E94821621
:1008200080917603909177036BED71E00E94061141
:100830008091760390917703B8010E941C118091FA
:1008400076039091770363EC71E00E940911809127
:10085000B8039091B903B8010E941C118091B803AC
:100860009091B9036DE00E94F30FC8010E948D16AC
:1008700027960FB6F894DEBF0FBECDBFCF91DF91A4
:100880001F910F91089513C0A091B803B091B903BF
:10089000ED91FC9111970680F781E02DCD0109952E
:1008A000682F80917603909177030E94F30FE09177
:1008B000B803F091B903A081B18114962D913C91B8
:1008C0001597CF01F901099518161906ECF208954C
:1008D0000F931F938C018091B8039091B90363EF3C
:1008E00071E00E9406118091B8039091B903B8019C
:1008F0000E941C118091B8039091B9036AEF71E0D6
:100900000E94091164E670E080E090E00E942E0DE4
:100910008091B8039091B9030E94FB0F1F910F9132
:100920000895CF92DF92EF92FF920F931F93DF9380
:10093000CF93CDB7DEB76C970FB6F894DEBF0FBE7E
:10094000CDBFBC016E010894C11CD11CC6010E9420
:1009500082168E01015F1F4FC8016CEF71E00E948B
:10096000F115C801B6010E94A01562E072E00E9474
:100970008415BC01E8E0EE2EF12CEC0EFD1EC70143
:100980000E948216C8010E9493168091760390916E
:10099000770364E072E00E940611809176039091E3
:1009A0007703B6010E941C11809176039091770322
:1009B00066E172E00E9406118091760390917703C0
:1009C000B7010E941C11809176039091770365E234
:1009D00072E00E9406118E010A5E1F4FC801B70126
:1009E0000E948216C8010E946804C8010E948D16E8
:1009F00060E27EE480E090E00E942E0D0E94B5024D
:100A000080917603909177036AE372E00E94091166
:100A1000C7010E948D16C6010E948D166C960FB6F6
:100A2000F894DEBF0FBECDBFCF91DF911F910F9124
:100A3000FF90EF90DF90CF900895EF92FF920F9389
:100A40001F93DF93CF93CDB7DEB72E970FB6F894F1
:100A5000DEBF0FBECDBFBC017E010894E11CF11CBE
:100A6000C7010E948216809176039091770360E41B
:100A700072E00E9406118091760390917703B7018E
:100A80000E941C11809176039091770363EC71E0D2
:100A90000E9409118E01085F1F4FC801B7010E9413
:100AA0008216C8010E946804C8010E948D1660E287
:100AB0007EE480E090E00E942E0D0E94B502C70106
:100AC0000E948D162E960FB6F894DEBF0FBECDBFD6
:100AD000CF91DF911F910F91FF90EF900895EF92CA
:100AE000FF920F931F938C017B018091B80390912B
:100AF000B90361E572E00E94061164E670E080E0EF
:100B000090E00E942E0D8091B8039091B9036CE59E
:100B100072E00E9406118091B8039091B903B80168
:100B20000E941C118091B8039091B90360E971E0B3
:100B30000E94091164E670E080E090E00E942E0DB2
:100B40008091B8039091B903B7010E944F1164E6F8
:100B500070E080E090E00E942E0D8091B8039091AB
:100B6000B9036AE10E941B1064E670E080E090E047
:100B70000E942E0D8091B8039091B9030E94FB0F43
:100B80001F910F91FF90EF900895AF92BF92CF9277
:100B9000DF92EF92FF920F931F93DF93CF93CDB726
:100BA000DEB76C970FB6F894DEBF0FBECDBF8C01D9
:100BB0005E010894A11CB11CC501B8010E948216F7
:100BC000A8E0CA2ED12CCC0EDD1E095F1F4FC60136
:100BD000B8010E94821680917603909177036AE6AD
:100BE00072E00E9406118091760390917703B6011E
:100BF0000E941C11809176039091770360E872E067
:100C00000E9406118091760390917703B5010E94AE
:100C10001C11809176039091770363EC71E00E9440
:100C20000911FFE0EF2EF12CEC0EFD1EC701B501FE
:100C30000E9482168E010A5E1F4FC801B6010E94F3
:100C40008216C701B8010E946F05C8010E948D1667
:100C5000C7010E948D16C6010E948D16C5010E9413
:100C60008D166C960FB6F894DEBF0FBECDBFCF9138
:100C7000DF911F910F91FF90EF90DF90CF90BF9089
:100C8000AF90089589E060E00E946A0E68EE73E01C
:100C900080E090E00E942E0D89E061E00E946A0EE3
:100CA00060ED77E080E090E00E942E0D89E060E04A
:100CB0000E946A0E68EB7BE080E090E00E942E0DBF
:100CC00008958091BE0320917603309177038823A5
:100CD00031F4C9016EE872E00E9409110895C9015A
:100CE0006DEB72E00E9409110E9442060895809106
:100CF000BE032091760330917703882321F0C90148
:100D000064ED72E00DC0C90162E073E00E9406115B
:100D10000E94420680917603909177036AE372E025
:100D20000E9409110895EF92FF920F931F93CF93A2
:100D3000DF93EC01162F072F7A016BE173E00E941D
:100D4000D914882309F471C0E114F10409F06DC0CD
:100D50000E947706D1C0E114F10409F06EC00E9430
:100D60006106CAC081E0E816F10409F06EC0812F67
:100D7000902F0E94FD03C0C082E0E816F10409F044
:100D80006CC0812F902F0E94C505B6C081E0E81687
:100D9000F10409F06AC0812F902F0E94BB03ACC000
:100DA00081E0E816F10409F068C0812F902F0E94BD
:100DB0001D05A2C081E0E816F10409F066C0812F8C
:100DC000902F0E94910498C081E0E816F10409F088
:100DD00064C0812F902F0E9471038EC08091760392
:100DE000909177036EE173E00E9406118091760383
:100DF00090917703BE014AE050E00E94F310809189
:100E000076039091770363E273E00E94061180916C
:100E1000760390917703B8010E944F112196095FE4
:100E20001F4FCE15DF05D4F267C0CE0166E273E036
:100E30000E94D914882309F08ECFCE016AE273E0B4
:100E40000E94D914882309F08DCFCE016EE273E0A1
:100E50000E94D914882309F08FCFCE0162E373E09A
:100E60000E94D914882309F091CFCE0167E373E083
:100E70000E94D914882309F093CFCE016CE373E06C
:100E80000E94D914882309F095CFCE0165E473E060
:100E90000E94D914882309F097CF8091760390910E
:100EA00077036AE473E00E940611809176039091C3
:100EB0007703BE010E941C11809176039091770305
:100EC0006EE573E00E94061180917603909177039E
:100ED000B7014AE050E00E94F310809176039091B0
:100EE000770366E673E00E940911812F902F9C0121
:100EF0008901C0E0D0E095CFDF91CF911F910F9194
:100F0000FF90EF9008950F931F93DF93CF93CDB78A
:100F1000DEB727970FB6F894DEBF0FBECDBF8E01A8
:100F20000F5F1F4F11C0C8016FEB73E00E94821664
:100F300040910C0450910D04C80166EC73E00E94CE
:100F40009306C8010E948D168FEB93E00E94E70B79
:100F5000882349F727960FB6F894DEBF0FBECDBFA2
:100F6000CF91DF911F910F91089580917603909119
:100F7000770360E072EC0E949D0E8091B80390911F
:100F8000B90340EC52E160E070E00E949D080895D2
:100F900089E061E00E94DD0D08950E94C8070E946B
:100FA000B5070895AF92BF92CF92DF92EF92FF9272
:100FB0000F931F930E94200D7B018C018091BA0337
:100FC0009091BB03A091BC03B091BD035701680190
:100FD000A81AB90ACA0ADB0AC801B701A601950115
:100FE0000E944304C801B701A60195010E9483072E
:100FF000E092BA03F092BB030093BC031093BD03CD
:101000001F910F91FF90EF90DF90CF90BF90AF9026
:1010100008950F931F93CF93DF93FC01738D769503
:101020007170A685B7859585772329F08C918923E2
:1010300009F454C004C08C91892309F04FC08389FE
:10104000948920E001972FEF8F3F9207D9F7C58948
:10105000D689A685B785158560E031E040E050E08F
:1010600000E0CE01202F01972FEF8F3F9207D9F795
:101070008C91812311F0632B03C0832F809568230B
:10108000330F4F5F5F4F4830510559F78789908D77
:1010900020E001972FEF8F3F9207D9F771116095EC
:1010A00080915F042091600490E001968F739070AE
:1010B00030E08217930779F0E0915F04F0E0E15EA1
:1010C000FB4F608380915F0490E001968F73907076
:1010D00080935F0403C0838D8160838FDF91CF9104
:1010E0001F910F9108951F920F920FB60F92112426
:1010F0002F933F934F935F936F937F938F939F9320
:10110000AF93BF93EF93FF9380911D0490911E04C2
:10111000009711F00E940908FF91EF91BF91AF91E4
:101120009F918F917F916F915F914F913F912F91FF
:101130000F900FBE0F901F901895CF92DF92EF92F5
:10114000FF920F931F93CF93DF93EC017A018B01F2
:101150001A8E198E188E1F8A1E8A1D8A1C8A1B8A57
:1011600020E030E06901CC0CDD1CC20ED31EB601BC
:10117000660F771F660F771FAB0144555F4FFA016B
:1011800085919591A591B4918E159F05A007B10702
:10119000E9F4FB01E055FF4F859194919C8B8B8B7B
:1011A000FB01EE54FF4F859194919E8B8D8BFB013B
:1011B000EC54FF4F85919491988F8F8BFB01EA54EB
:1011C000FF4F859194919A8F898F06C02F5F3F4F73
:1011D0002D30310509F0C6CF8F89988D892B09F400
:1011E00057C09C85892F8850843038F086508430D1
:1011F00020F09A51933008F043C0809168008160DC
:10120000809368002C85922F9850943090F0822F14
:101210008E50843070F08C50833008F451C0A0E0C0
:10122000B0E0833018F0E0E0F0E007C0EBE6F0E07B
:1012300004C0EBE6F0E0ABE6B0E04081943020F48F
:1012400030E02450304013C02E3011F488E016C036
:101250002F3011F482E012C0203111F484E00EC06E
:10126000213111F481E00AC030E02651304081E0A4
:1012700090E002C0880F991F2A95E2F7842B8C9387
:10128000898D9A8D20E001972FEF8F3F9207D9F734
:1012900080911D0490911E048C179D07A1F08B8DE9
:1012A0008E7F8B8F9FB7F89410925F0480915F04BC
:1012B00080936004D0931E04C0931D049FBF03C09D
:1012C000ABE6B0E0AECFDF91CF911F910F91FF90D1
:1012D000EF90DF90CF90089520911D0430911E046F
:1012E0002817390731F49091600480915F049817B2
:1012F00019F42FEF3FEF0FC0E0916004F0E0E15EE2
:10130000FB4F20818091600490E001968F73907074
:101310008093600430E0C901089520911D0430914C
:101320001E042817390719F020E030E00EC0809124
:101330005F042091600490E0805C9F4F821B9109C4
:1013400060E470E00E94111A9C01C90108950F9396
:101350001F93DC0159968D919C915A97892B49F4E2
:1013600081E090E013969C938E93129720E030E0FA
:1013700097C00FB7F8945B968C915B975196ED915F
:10138000FC91529750962C91509781FF8DC080818F
:10139000822B808359968D919C915A97059620E0D7
:1013A00001972FEF8F3F9207D9F75B968C915B9750
:1013B00081FF35C031E040E050E070E010E0832F65
:1013C00090E0862397235196ED91FC915297509689
:1013D0002C915097892B29F08081209528232083F8
:1013E00003C08081822B808359968D919C915A975E
:1013F000212F01972FEF8F3F9207D9F7330F4F5FC0
:101400005F4F48305105D9F65196ED91FC915297B6
:10141000908150968C9150978095892333C031E00C
:1014200040E050E070E010E0832F90E086239723A7
:101430005196ED91FC91529750962C915097892B93
:1014400021F08081822B808304C080812095282315
:10145000208359968D919C915A97212F01972FEFB8
:101460008F3F9207D9F7330F4F5F5F4F48305105D9
:10147000D9F65196ED91FC915297808150969C91AE
:101480005097892B80830FBF59968D919C915A97C5
:1014900020E001972FEF8F3F9207D9F721E030E04E
:1014A000C9011F910F9108958081209528232083E1
:1014B00071CF20911D0430911E042817390749F47B
:1014C0009FB7F89410925F0480915F04809360044A
:1014D0009FBF089520911D0430911E0428173907DD
:1014E00031F49091600480915F04981719F42FEF04
:1014F0003FEF0AC0E0916004F0E0E15EFB4F8081C5
:10150000282F332727FD3095C90108951F93CF93C6
:10151000DF93EC01162F862F60E00E94DD0D8B8D8E
:1015200081FD04C0812F61E00E946A0E1C87212F7B
:1015300030E0C90180579E4FFC0184918D872E5861
:101540003E4FF9016491E62FF0E0EE0FFF1FEC59DA
:10155000FE4F859194919F878E87DF91CF911F9148
:101560000895FF920F931F938C01F62E862F61E052
:101570000E94DD0D8F2D61E00E946A0E8F2D90E09C
:10158000FC01E057FE4FE491D8015096EC93509740
:101590008E589E4FFC016491E62FF0E0EE0FFF1F86
:1015A000EA5AFE4F8591949152969C938E9351974F
:1015B0001F910F91FF900895FF920F931F938C013D
:1015C000F62EFC011382128288EE93E0A0E0B0E0D8
:1015D00084839583A683B7838CE893E0918380838B
:1015E000148A138A168A158A108E178A128E118E03
:1015F000838D2170220F8C7F822B838FC801642FF3
:101600000E94B10AC8016F2D0E94860A1F910F9196
:10161000FF9008952F923F924F925F926F927F9228
:101620008F929F92AF92BF92CF92DF92EF92FF92F2
:101630000F931F93DF93CF93CDB7DEB76B970FB6A2
:10164000F894DEBF0FBECDBF6C012B018C01035B94
:101650001F4FF801118210828E8BDF8A64E773E0DE
:101660000E940B16AA24BB24882499241801C601C1
:101670008C5A9F4F998F888FF601ED5AFF4FFB8F41
:10168000EA8FF1018081918109970CF05CC081148F
:10169000910419F4EA8DFB8D02C0E88DF98D60810B
:1016A00035010894611C711CC201A3010E94BB1486
:1016B0007C01FFEF8F3F9F0751F48114910409F0E3
:1016C00042C08E899F89B2010E946B1667C0089440
:1016D000811C911C81E08816910491F4CE01019641
:1016E000B20140E050E097010E9424168E899F8944
:1016F000BE016F5F7F4F0E946B16CE0101961FC027
:10170000F101008111810F5F1F4F11830083CE0112
:101710000896B201A30197010E942416C80143E074
:10172000880F991F4A95E1F7801B910B8C0D9D1D29
:10173000BE01685F7F4F0E946B16CE0108960E9423
:101740008D1657019ECF892849F1F601E35BFF4FC3
:10175000008111810F5F1F4F118300833FE0E32E53
:10176000F12CEC0EFD1E0894A11CB11CF201248189
:101770003581C701B201A5010E942416C80123E0EA
:10178000880F991F2A95E1F7801B910B8C0D9D1DE9
:10179000B7010E946B16C7010E948D166B960FB69B
:1017A000F894DEBF0FBECDBFCF91DF911F910F9197
:1017B000FF90EF90DF90CF90BF90AF909F908F9071
:1017C0007F906F905F904F903F902F9008952F9251
:1017D0003F924F925F926F927F928F929F92AF92C1
:1017E000BF92DF92EF92FF920F931F93DF93CF93FD
:1017F000CDB7DEB727970FB6F894DEBF0FBECDBFCB
:101800007C01F7E58F2E912C880E991EEFE46E2E49
:10181000712C680E791E71E5272E312C280E391E89
:1018200062E5462E512C480E591E8C010B5A1F4F53
:1018300056E5A52EB12CA80EB91E47C0F301A08114
:10184000B181ED91FC9111970680F781E02DCD01DA
:101850000995D82ED1018C91D81661F4F5019081AB
:10186000D8018C91981731F0C40164E773E00E94AD
:101870000B162BC0F2018081D816E9F4D5019C919A
:10188000F80180819817B9F08E010F5F1F4FC801D2
:10189000B4010E948216C701B8010E940A0BC80158
:1018A0000E948D16C40164E773E00E940B16D501F7
:1018B000DC9281E01BC0F8018081D81621F0C401C0
:1018C0006D2D0E945F15D501DC92D301ED91FC9145
:1018D000A081B18114962D913C911597CF01F9010A
:1018E0000995181619060CF4A9CF80E027960FB6B3
:1018F000F894DEBF0FBECDBFCF91DF911F910F9146
:10190000FF90EF90DF90BF90AF909F908F907F906F
:101910006F905F904F903F902F9008957F928F929D
:101920009F92AF92BF92CF92DF92EF92FF920F936E
:101930001F93CF93DF93EC015B01D42E922E802E68
:101940007E2C64E773E00E94D715A7E0EA2EF12C05
:10195000EC0EFD1E00E010E0C701800F911F64E750
:1019600073E00E94D715095F1F4F06341105A1F7D8
:10197000C35BDF4F19921992A992B992D9929992A9
:1019800089927992C99280E38993CE0164E773E0EA
:101990000E94D715DF91CF911F910F91FF90EF908B
:1019A000DF90CF90BF90AF909F908F907F900895E1
:1019B0001F920F920FB60F9211242F933F938F9384
:1019C0009F93AF93BF938091650490916604A0911B
:1019D0006704B0916804309169040196A11DB11D9E
:1019E000232F2D5F2D3720F02D570196A11DB11DFE
:1019F000209369048093650490936604A093670420
:101A0000B09368048091610490916204A091630492
:101A1000B09164040196A11DB11D8093610490935F
:101A20006204A0936304B0936404BF91AF919F914B
:101A30008F913F912F910F900FBE0F901F9018958F
:101A40008FB7F89420916504309166044091670443
:101A5000509168048FBFB901CA0108959B01AC0180
:101A60007FB7F8948091610490916204A09163041F
:101A7000B091640466B5A89B05C06F3F19F001964C
:101A8000A11DB11D7FBFBA2FA92F982F8827860FC0
:101A9000911DA11DB11D62E0880F991FAA1FBB1FD8
:101AA0006A95D1F7BC012DC0FFB7F894809161040D
:101AB00090916204A0916304B0916404E6B5A89B80
:101AC00005C0EF3F19F00196A11DB11DFFBFBA2F50
:101AD000A92F982F88278E0F911DA11DB11DE2E01F
:101AE000880F991FAA1FBB1FEA95D1F7861B970B7A
:101AF000885E9340C8F221503040404050406851C9
:101B00007C4F211531054105510571F608957894F2
:101B100084B5826084BD84B5816084BD85B58260F2
:101B200085BD85B5816085BDEEE6F0E08081816090
:101B30008083E1E8F0E01082808182608083808190
:101B400081608083E0E8F0E0808181608083E1E96A
:101B5000F0E0808182608083808181608083E0E921
:101B6000F0E0808181608083E1ECF0E0808184603E
:101B70008083808182608083808181608083E3ECC8
:101B8000F0E0808181608083E0ECF0E08081826021
:101B90008083E2ECF0E0808181608083EAE7F0E01E
:101BA0008081846080838081826080838081816085
:101BB00080838081806880830895CF93DF93482F4E
:101BC00050E0CA0180579E4FFC0134914E585E4F41
:101BD000FA018491882369F190E0880F991FFC0134
:101BE000E85BFE4FA591B491FC01EA5AFE4FC59106
:101BF000D491662351F42FB7F8948C91932F90953C
:101C000089238C93888189230BC0623061F42FB7BC
:101C1000F8948C91932F909589238C938881832BB2
:101C200088832FBF06C09FB7F8948C91832B8C9329
:101C30009FBFDF91CF910895883071F1893068F4AA
:101C4000823031F1833020F4813009F042C01DC070
:101C5000833089F08430E9F512C08B3059F18C3033
:101C600028F48930E9F08A30A1F51EC08C3031F1BA
:101C70008E3079F529C0809180008F7703C08091E4
:101C800080008F7D80938000089584B58F7702C097
:101C900084B58F7D84BD0895809190008F7707C0B3
:101CA000809190008F7D03C080919000877F80930A
:101CB000900008958091C0008F7703C08091C0008C
:101CC0008F7D8093C00008958091C200877F8093AC
:101CD000C2000895FF920F931F93F62E482F50E0F5
:101CE000CA0182559E4FFC012491CA0180579E4F24
:101CF000FC0114914E585E4FFA0104910023C9F083
:101D0000222319F0822F0E941C0EE02FF0E0EE0F2C
:101D1000FF1FEA5AFE4FA591B4919FB7F894FF2098
:101D200021F48C911095812302C08C91812B8C938E
:101D30009FBF1F910F91FF90089508952091AA04CD
:101D40003091AB048091AC049091AD04281B390B09
:101D50002F733070C90108952091AA043091AB040B
:101D60008091AC049091AD042817390719F42FEF36
:101D70003FEF09C0E091AC04F091AD04E659FB4F90
:101D80008081282F30E0C90108952091AA04309164
:101D9000AB048091AC049091AD042817390719F475
:101DA0002FEF3FEF13C0E091AC04F091AD04E65982
:101DB000FB4F20818091AC049091AD0401968F730C
:101DC00090709093AD048093AC0430E0C901089505
:101DD0001092B1041092B00488EE93E0A0E0B0E05D
:101DE0008093B2049093B304A093B404B093B50469
:101DF0008CE993E09093AF048093AE0408950F9321
:101E00001F93DF93CF930F92CDB7DEB78C01698319
:101E100080917F03882369F083E0BE016F5F7F4F6D
:101E200041E050E00E9435121816190614F49C0186
:101E300007C081E090E0F8019383828320E030E0E6
:101E4000C9010F90CF91DF911F910F91089583E009
:101E50000E940C120895CF93DF9312C082E00E947B
:101E600097112FEF8F3F9207C9F0E091AA04F091EC
:101E7000AB04E659FB4F8083D093AB04C093AA0414
:101E8000C091AA04D091AB042196CF73D0708091F9
:101E9000AC049091AD04C817D90701F7DF91CF9139
:101EA0000895FC0180818E5F808380E868ED71E099
:101EB00042E450E00E94B0110895FC0181819081BC
:101EC000913A59F4813209F04CC080E068E773E040
:101ED00047E050E00E94B01142C0913209F041C089
:101EE000803239F488E793E067E070E00E94F411F3
:101EF00036C0823209F035C0828180937F038091A1
:101F0000780390917903A0917A03B0917B03805B71
:101F10009440A040B04019F580917F0380FD12C02D
:101F200087E797E790930108809300082BE088E10A
:101F300090E00FB6F894A895809360000FBE2093B0
:101F400060000DC088E10FB6F89480936000109295
:101F500060000FBEA895109201081092000881E061
:101F6000089580E00895CF93DF930E94870D84EC5D
:101F700094E00E9417120E94CD07C0E0D0E00E94BA
:101F8000D2072097E1F30E940000F9CF0E94991632
:101F90000895CF92DF92EF92FF920F931F93CF930A
:101FA000DF937C016B018A01C0E0D0E00FC0D60155
:101FB0006D916D01D701ED91FC910190F081E02DC3
:101FC000C7010995C80FD91F01501040011511050F
:101FD00071F7CE01DF91CF911F910F91FF90EF909C
:101FE000DF90CF900895DC01ED91FC910190F0819C
:101FF000E02D09950895EF92FF920F931F938C01A6
:10200000DC01ED91FC910190F081E02D6DE00995EE
:102010007C01D801ED91FC910190F081E02DC80187
:102020006AE009959C012E0D3F1DC9011F910F917A
:10203000FF90EF900895EF92FF920F931F937C0112
:10204000DC01ED91FC910190F081E02D09958C016E
:10205000C7010E94FB0F080F191FC8011F910F91A4
:10206000FF90EF900895CF93DF93EC016115710518
:1020700019F420E030E00FC0DB010D900020E9F7FB
:102080001197A61BB70BE881F9810280F381E02D3F
:10209000AD0109959C01C901DF91CF9108954F923F
:1020A0005F927F928F929F92AF92BF92CF92DF9278
:1020B000EF92FF920F931F93DF93CF93CDB7DEB7CD
:1020C000A1970FB6F894DEBF0FBECDBF2C01742EC2
:1020D000CB01223008F42AE019A231E2C32ED12C20
:1020E000CC0EDD1E822E9924AA24BB24672D752FC9
:1020F000A50194010E94241A79018A01C801B7013F
:10210000A50194010E94F219472D461B0894C108AD
:10211000D1084A3014F4405D01C0495CF6014083A7
:10212000E114F1040105110521F07E2C5F2DC80199
:10213000DDCFC201B6010E943310A1960FB6F8940C
:10214000DEBF0FBECDBFCF91DF911F910F91FF90EA
:10215000EF90DF90CF90BF90AF909F908F907F9047
:102160005F904F900895CF92DF92EF92FF920F937E
:102170001F93CF93DF93EC016A017B012115310599
:1021800041F4E881F9810190F081E02D642F0995F7
:102190001FC02A303105D1F477FF17C0E881F981DB
:1021A0000190F081E02D6DE209958C0144275527BF
:1021B000BA014C195D096E097F09CE012AE00E941F
:1021C0004F109801280F391F04C02AE00E944F10B9
:1021D0009C01C901DF91CF911F910F91FF90EF906A
:1021E000DF90CF900895EF92FF920F931F937B01A2
:1021F0009A010027F7FC0095102FB801A7010E9453
:10220000B3101F910F91FF90EF9008950E9433102B
:102210000895EF92FF920F931F937C010E94331059
:102220008C01C7010E94FB0F080F191FC8011F91E5
:102230000F91FF90EF900895AF92BF92CF92DF92EF
:10224000EF92FF920F931F93CF93DF935C016B018B
:10225000EE24FF24C0E0D0E010C0D501ED91FC9148
:1022600000811181C601BE010E94AA14682FC50118
:10227000F8010995E80EF91E2196F60184819581F1
:10228000C817D90750F3C701DF91CF911F910F9164
:10229000FF90EF90DF90CF90BF90AF900895EF92B6
:1022A000FF920F931F937C010E941C118C01C701A8
:1022B0000E94FB0F9C01200F311FC9011F910F913C
:1022C000FF90EF900895282F8091BE048823C1F0DD
:1022D00057FF1AC015C028989093BD048091F10053
:1022E0008193E217F307B9F74115510539F0809151
:1022F000F200882319F48BE68093E800AFBF02C098
:102300004FEF5FEFCA010895AFB7F894277020939D
:10231000E9008091F200282F30E0241735070CF4F3
:10232000A901FB019B01240F311D94E6DACFDF9355
:10233000CF930F92CDB7DEB7BE016F5F7F4F41E005
:1023400050E00E946311019719F02FEF3FEF03C097
:102350008981282F30E0C9010F90CF91DF91089536
:10236000FF920F931F93F82E142F052F4091C10455
:102370005091C204212F302FC901DC01FB016EEF07
:1023800029C0F7FE02C0949101C090812091BF0442
:102390003091C00424173507ACF48091E8008570B3
:1023A000E1F38091E80082FF03C02FEF3FEF17C0F9
:1023B0009093F100C90101968F739070892B11F4ED
:1023C0006093E8002F5F3F4F3093C0042093BF0419
:1023D000119731961097A9F6812F902F9C01C90172
:1023E0001F910F91FF9008959C018091E80082FF5A
:1023F000FCCFF901260F311D03C08091F1008193BC
:10240000E217F307D1F7289884E68093BD048BEF99
:102410008093E800CB0108958093E9008091F20059
:10242000882319F08AE38093E800089508951092B4
:10243000BE0481E08093D70080EA8093D80082E1D7
:1024400089BD09B400FEFDCF61E070E080E090E05E
:102450000E942E0D80E98093D8008CE08093E200EA
:102460001092E000559A209A08955F926F927F92A1
:102470008F929F92AF92BF92CF92DF92EF92FF9294
:102480000F931F93CF93DF93E82E842E752E8091A8
:10249000BE04882371F18B01242F352FC901EC0173
:1024A0007AEFF72E67E0962E9E2050E4552E8E2D63
:1024B00090E040E2A42EB12CA822B9223AE3632E88
:1024C00020E4C22ED12CC822D92258C09FB7F8943C
:1024D0009092E9008091E80085FD02C020E004C0F0
:1024E0008091F200252D281B9FBF222361F4FA94CE
:1024F00019F42FEF3FEF4DC061E070E080E090E015
:102500000E942E0D3BC0822F90E0C817D9070CF413
:102510002C2FC21BD1094FB7F8949092E900A11457
:10252000B10421F406C01092F10021502223D9F702
:1025300019C0E7FC03C0F801922F10C0C801322F68
:1025400006C0FC010196E491E093F1003150332381
:10255000C1F706C081918093F10091509923D1F782
:10256000020F111D8091E80085FF05C0209729F416
:10257000C114D10411F06092E8004FBF209709F018
:10258000A5CF5D9884E68093BC04282D372DC90122
:102590009C01C901DF91CF911F910F91FF90EF90A6
:1025A000DF90CF90BF90AF909F908F907F906F9073
:1025B0005F9008951F920F920FB60F9211242F93E0
:1025C0003F934F935F936F937F938F939F93AF93BB
:1025D000BF93EF93FF938091E1001092E100982F59
:1025E00083FF0FC01092E90081E08093EB0010920E
:1025F000EC0082E38093ED001092BE0488E08093AB
:10260000F00092FF34C083E08093E9008091F200F3
:10261000882319F08AE38093E8008FB7F89492E05A
:102620009093E9009091F2008FBF992321F08EEAF8
:1026300094E00E942B0F8091BC04882351F080917C
:10264000BC0481508093BC048091BC04882309F4AD
:102650005D9A8091BD04882351F08091BD04815022
:102660008093BD048091BD04882309F4289AFF91CA
:10267000EF91BF91AF919F918F917F916F915F91FA
:102680004F913F912F910F900FBE0F901F90189573
:102690000F931F93DF93CF930F92CDB7DEB71982BD
:1026A0008E010F5F1F4FC8010E94510FC8010E9489
:1026B000E619898190E00F90CF91DF911F910F91E2
:1026C00008951F920F920FB60F921124EF92FF926E
:1026D0001F932F933F934F935F936F937F938F93AA
:1026E0009F93AF93BF93EF93FF93DF93CF93CDB7B8
:1026F000DEB76197DEBFCDBF1092E9008091E800A0
:1027000083FF0FC1FE0131969E01275F3F4F03C03B
:102710008091F1008193E217F307D1F7289884E6BE
:102720008093BD0482EF8093E800998197FF05C0F4
:102730008091E80080FFFCCF03C08EEF8093E8001B
:10274000292F30E0C90180769070892B09F0C2C032
:102750008A81882329F41092F1001092F100D6C0EA
:10276000813009F4D3C0833009F4D0C0853049F4F6
:102770008091E80080FFFCCF8B8180688093E3002C
:10278000C5C0863009F07CC01C81EF80F88412300F
:10279000C1F51092E9001092C0041092BF0410928B
:1027A000C2041092C1040E94481399E0FE013996B8
:1027B000DF01292F1D922A95E9F799871A8791E061
:1027C0009E8790E8988B9AEF998B2091BF04309167
:1027D000C004275F3F4F3C872B878D871092E9000D
:1027E0001092C0041092BF04F092C204E092C1049F
:1027F00080E0BF0149E050E00E94B0110E94481300
:1028000085C01092E9001092C0041092BF04F092AB
:10281000C204E092C104123241F482E290E00E94CC
:10282000DE19892B09F476C071C0113079F488E083
:10283000E816F10419F481E08093C3048091C30485
:10284000882309F06BC0E8E5F2E013C0133009F00B
:1028500061C08B81882319F4EAE1F2E00AC082307A
:1028600019F4EEE1F2E005C0813009F053C0E0E474
:10287000F2E0449180E8BF0150E00E94B01146C0F0
:10288000873009F447C0883021F481E08093F1005B
:102890003DC08930D9F523703070232BD9F5EDE791
:1028A000F2E091E031E026E39093E9003093EB0011
:1028B00084918093EC002093ED009F5F31969530DA
:1028C00099F78EE78093EA001092EA008B8180935B
:1028D000BE041CC08F8198851092E9001092C0043C
:1028E0001092BF049093C2048093C1048D81882309
:1028F00029F4CE0101960E945D0F06C0823051F48A
:10290000CE0101960E94AF18882321F08EEF8093AC
:10291000E80007C081E28093EB0003C0EAE6F2E042
:10292000A8CF6196DEBFCDBFCF91DF91FF91EF9130
:10293000BF91AF919F918F917F916F915F914F91D7
:102940003F912F911F91FF90EF900F900FBE0F902E
:102950001F901895FC01848195816817790748F4C8
:102960000190F081E02D309721F0E60FF71F808174
:10297000089580E00895CF93DF93FC0184819581D1
:102980004817590768F4C081D181772767FD709592
:10299000CE01840F951F0E94F8019C01009719F445
:1029A0002FEF3FEF02C02C1B3D0BC901DF91CF91F0
:1029B0000895DC01FB0114968D919C911597892B4C
:1029C00031F461157105A9F090E0808108C00D9087
:1029D000BC91A02D6115710529F490E08C9188239C
:1029E00049F407C0CD010E9403029C0190E0232B13
:1029F00009F491E0892F08950F931F93CF93DF93EC
:102A0000EC018B016F5F7F4F888199810E94CE1707
:102A1000009711F480E005C0998388831B830A83A3
:102A200081E0DF91CF911F910F910895CF93DF93B4
:102A3000EC0188819981892B29F08A819B818617F5
:102A4000970760F4CE010E94FC14882341F08C812A
:102A50009D81892B19F4E881F981108281E0DF9151
:102A6000CF910895EF92FF920F931F93CF93DF932F
:102A7000EC017B016C817D81E114F104C1F0411511
:102A8000510599F08A01060F171FB8010E9416150B
:102A9000882369F0888199812C813D81820F931F61
:102AA000B7010E940C021D830C8381E001C080E00D
:102AB000DF91CF911F910F91FF90EF900895DF93D9
:102AC000CF9300D0CDB7DEB769831A82BE016F5FA6
:102AD0007F4F41E050E00E9432150F900F90CF9150
:102AE000DF910895CF93DF93EC018881998100975E
:102AF00011F00E943617198218821D821C821B82D7
:102B00001A82DF91CF9108950F931F93182F092FE9
:102B10006115710561F0DB010D900020E9F7119757
:102B2000A61BB70BAD010E943215882321F4812F1B
:102B3000902F0E947215812F902F1F910F91089551
:102B40000F931F93182F092FFB016081718144811E
:102B500055810E943215882321F4812F902F0E94E5
:102B60007215812F902F1F910F910895EF92FF9270
:102B70000F931F93CF93DF93EC017B018A01BA017E
:102B80000E941615882321F4CE010E94721507C0F9
:102B90001D830C8388819981B7010E940C02CE01AC
:102BA000DF91CF911F910F91FF90EF900895CF93F8
:102BB000DF93EC01198218821B821A821D821C820B
:102BC0001E826115710551F0DB010D900020E9F7BF
:102BD0001197A61BB70BAD010E94B615DF91CF91DF
:102BE0000895CF93DF93EC01198218821B821A8219
:102BF0001D821C821E826115710551F0DB010D9052
:102C00000020E9F71197A61BB70BAD010E94B6157E
:102C1000DF91CF9108950F931F93182F092F6115FE
:102C2000710559F0DB010D900020E9F71197A61B03
:102C3000B70BAD010E94B61502C00E947215812F1C
:102C4000902F1F910F910895BF92CF92DF92EF9234
:102C5000FF920F931F93CF93DF93082FB92E6B0131
:102C60007A01E9012417350710F4EA017901802F70
:102C70009B2D65E773E00E94D715D60114968D91C0
:102C80009C9115978E159F05D0F08C179D0708F421
:102C9000EC01D601ED91FC911197EC0FFD1F108115
:102CA00010826D917C916E0D7F1D802F9B2D0E9457
:102CB0000B16D601ED91FC91EC0FFD1F1083802FB8
:102CC0009B2DDF91CF911F910F91FF90EF90DF909F
:102CD000CF90BF900895CF93DF93EC01FB0186174F
:102CE000970761F0608171816115710529F0448158
:102CF00055810E94B61502C00E947215CE01DF9167
:102D0000CF910895FC0111821082138212821582E4
:102D1000148216820E946B160895FC0180819181B5
:102D20000E9436170895FC01808191810E94361718
:102D300008950F931F93CF93DF93BC0182309105C9
:102D400010F462E070E0E091D404F091D50440E02A
:102D500050E0A0E0B0E024C0808191818617970701
:102D6000D0F08617970771F482819381109729F02C
:102D700013969C938E9312972CC09093D5048093B6
:102D8000D40427C04115510519F08417950718F48C
:102D90008D01AC01EF01DF01828193819C01F9017A
:102DA0003097D1F641155105F9F0CA01861B970BF2
:102DB0008430910580F48A819B810115110521F0F1
:102DC000F8019383828304C09093D5048093D40444
:102DD000FE01329645C0FE01E80FF91F6193719321
:102DE0000297998388833CC08091D2049091D30448
:102DF000892B41F480918203909183039093D304B3
:102E00008093D2044091840350918503411551056C
:102E100041F44DB75EB78091800390918103481BC8
:102E2000590B2091D2043091D30424173507B0F404
:102E3000CA01821B930B8617970780F0AB014E5F88
:102E40005F4F8417950750F0420F531F5093D304E0
:102E50004093D204F9016193719302C0E0E0F0E085
:102E6000CF01DF91CF911F910F910895CF93DF9301
:102E70009C01009709F48FC0EC0122971B821A82F3
:102E80006091D4047091D5046115710581F4888135
:102E90009981820F931F2091D2043091D304281777
:102EA000390739F5D093D304C093D20474C0DB0141
:102EB00040E050E0AC17BD0708F1BB83AA83FE01D8
:102EC00021913191E20FF31FAE17BF0779F48D9175
:102ED0009C911197280F391F2E5F3F4F398328830C
:102EE00012968D919C9113979B838A83411551056E
:102EF00071F4D093D504C093D4044DC012968D9133
:102F00009C911397AD01009711F0DC01D3CFDA014A
:102F10001396DC93CE931297FA0121913191E20F2F
:102F2000F31FCE17DF0769F488819981280F391FB5
:102F30002E5F3F4FFA01318320838A819B819383E7
:102F40008283E0E0F0E0DB0112968D919C91139773
:102F5000009719F0BC01FD01F6CFAB014E5F5F4F4A
:102F6000DB018D919C91840F951F2091D2043091AB
:102F7000D3042817390779F4309729F41092D5042F
:102F80001092D40402C013821282425050405093D7
:102F9000D3044093D204DF91CF9108956F927F9232
:102FA0008F929F92AF92BF92CF92DF92EF92FF9259
:102FB0000F931F93CF93DF938C01009729F4CB01DC
:102FC0000E9499168C01BBC08EEFE82E8FEFF82E71
:102FD000E00EF11E4801860E971E8E149F0408F421
:102FE000ACC0D7014D915C91119746175707B8F0C7
:102FF0004530510508F4A3C0CA0104978617970706
:1030000008F49DC042505040461B570BF4014193B9
:1030100051936D937C93CF010E94361790C05B0152
:10302000A41AB50A3801640E751EA091D404B0919B
:10303000D504E0E0F0E0CC24DD2447C0A615B705B8
:10304000A9F5CD91DC911197CE0102968A159B05C9
:1030500068F1CE018A199B09029612962C9112975B
:1030600013963C91059758F0F40122833383CA19D3
:10307000DB09D183C083D7016D937C9309C04E5F78
:103080005F4F4C0F5D1FF70151834083C901FC0165
:10309000C114D10431F0D6011396FC93EE9312972C
:1030A0004EC0F093D504E093D40449C08D919C9117
:1030B0001197E817F90708F4FC016D0112968C913D
:1030C000129713969C919C01D901109709F0B6CFE5
:1030D0008091D2049091D30486159705E9F4E61700
:1030E000F707D0F420918403309185032115310531
:1030F00041F42DB73EB78091800390918103281B46
:10310000390B82169306C8F49092D3048092D204AD
:10311000F7017183608313C0CB010E949916EC0103
:10312000009759F0D7014D915C91B8010E94EF01D1
:10313000C8010E9436178E0102C000E010E0C801ED
:10314000DF91CF911F910F91FF90EF90DF90CF9083
:10315000BF90AF909F908F907F906F900895FC01EB
:1031600091818081813A31F4913089F080E093300F
:1031700089F40DC0813269F49B3021F482818093FF
:10318000860305C09A3029F482818093870381E009
:10319000089580E00895EF92FF920F931F938C01A2
:1031A000E62EDC01ED91FC910480F581E02D09957E
:1031B000F82ED801ED91FC910680F781E02DC80131
:1031C0006E2D09958F2D90E01F910F91FF90EF903C
:1031D00008951092C5041092C9041092C8048EEA92
:1031E00093E09093C7048093C6040895EF92FF92F2
:1031F0000F931F93DF93CF930F92CDB7DEB78983E1
:103200008B017A0184E0BE016F5F7F4F41E050E0A7
:103210000E94351284E4B801A7010E9435120F9074
:10322000CF91DF911F910F91FF90EF90089582E071
:1032300048E050E00E94F6180895FC0116821782BB
:10324000108611861286138614823496BF010E945E
:1032500017190895DC01683810F0685829C0E62F66
:10326000F0E067FF13C0E058F04081E090E002C05A
:10327000880F991FEA95E2F7809514962C91149780
:10328000282314962C93149760E012C0E150FD4F50
:103290006491662319F420E030E01DC067FF08C088
:1032A00014968C9114978D7F14968C9314976F7746
:1032B000FD0190E0662321F08681861709F41682CD
:1032C0009F5F31969630B1F7CD011496BD010E94F3
:1032D000171921E030E0C9010895CF93DF93DC0195
:1032E000683810F0685825C0E62FF0E067FF12C07C
:1032F000E058F04081E090E002C0880F991FEA9505
:10330000E2F714962C911497282B14962C9314976B
:1033100060E00FC0E150FD4F64916623D9F167FF73
:1033200008C014968C911497826014968C9314970D
:103330006F7716968C9116978617A9F117968C9130
:103340001797861781F118968C911897861759F15F
:1033500019968C911997861731F11A968C911A97B4
:10336000861709F11B968C911B978617E1F0ED01EA
:10337000E0E0F0E09E2F8E81882321F4EA0FFB1F0E
:10338000668306C09F5F31962196E630F10591F77E
:10339000963049F481E090E013969C938E931297B7
:1033A00020E030E007C0CD011496BD010E9417193E
:1033B00021E030E0C901DF91CF91089580E861E814
:1033C00072E045E650E00E94B0110895FC01808152
:1033D0008F5F808380E866EE72E049E150E00E94F2
:1033E000B0110895629FD001739FF001829FE00D9C
:1033F000F11D649FE00DF11D929FF00D839FF00D74
:10340000749FF00D659FF00D9927729FB00DE11D1F
:10341000F91F639FB00DE11DF91FBD01CF011124FC
:10342000089597FB092E07260AD077FD04D02ED0E9
:1034300006D000201AF4709561957F4F0895F6F735
:10344000909581959F4F0895A1E21A2EAA1BBB1B50
:10345000FD010DC0AA1FBB1FEE1FFF1FA217B30760
:10346000E407F50720F0A21BB30BE40BF50B661F76
:10347000771F881F991F1A9469F76095709580953A
:1034800090959B01AC01BD01CF010895AA1BBB1B08
:1034900051E107C0AA1FBB1FA617B70710F0A61B54
:1034A000B70B881F991F5A95A9F780959095BC0175
:1034B000CD010895EE0FFF1F0590F491E02D0994C2
:1034C00013E0C8E8D3E004C0FE010E945C1A229613
:0A34D000CA38D107C9F7F894FFCFFE
:1034DA0041542B434D47523D000D00415448004191
:1034EA00542B4353510041542B43474154543F00FA
:1034FA0041542B53415042523D332C312C22434FDD
:10350A004E54595045222C224750525322004154BE
:10351A002B53415042523D332C312C2241504E22E2
:10352A002C22696E7465726E65742E656D742E65D3
:10353A0065220041542B53415042523D312C3100F7
:10354A0041542B48545450494E49540041542B4835
:10355A00545450504152413D2255524C222C220083
:10356A00220041542B48545450414354494F4E3D34
:10357A00300041542B4854545052454144000046AF
:10358A0065746368696E67204854545020474554EF
:10359A00202700270052656164696E6720534D53E6
:1035AA00206D657373616765202300466F727761CA
:1035BA007264696E6720415420636F6D6D616E6439
:1035CA00202700415444202B20003B002A3134326A
:1035DA002A00230052656368617267696E67207703
:1035EA00697468202700272062792063616C6C69FE
:1035FA006E672027002720666F722032302073659D
:10360A00636F6E64732E2E2E2000646F6E65210028
:10361A0043616C6C696E67206E756D6265722027F6
:10362A000041542B434D47463D310D004154202B58
:10363A0020434D4753203D20220053656E64696E36
:10364A006720534D53206D657373616765202700AA
:10365A002720746F206E756D6265722027004D6F8A
:10366A0064756C6520697320616C72656164792088
:10367A007475726E6564206F66662C2069676E6F5A
:10368A0072696E672072657175657374005475721C
:10369A006E696E672047534D206D6F64756C6520A7
:1036AA006F6666004D6F64756C6520697320616C86
:1036BA007265616479207475726E6564206F6E2C10
:1036CA002069676E6F72696E6720726571756573BE
:1036DA0074005475726E696E672047534D206D6F82
:1036EA0064756C65206F6E2E2E20006F6E00202090
:1036FA003E20003A20006F666600636D6400736DB9
:10370A007300726561640063616C6C007265636862
:10371A0061726765006874747000556E68616E64E2
:10372A006C656420636F6D6D616E642027002720CD
:10373A0077697468200020706172616D65746572C2
:10374A00733A20000000AE0400E10000000000000F
:10375A008000D6040000010100000000A709C90F7B
:10376A008D096C096A0A590A00000000FF0EC90F88
:10377A009E0EC50EAC0E270F2B0F00000000CB18B3
:08378A00C90F6D192A191D1960
:00000001FF
