:100000000C944A060C9472060C9472060C947206B8
:100010000C9472060C9472060C9472060C94720680
:100020000C9472060C94B4090C94EC280C9473296B
:100030000C9472060C9472060C9472060C94720660
:100040000C9472060C9472060C9472060C94720650
:100050000C9472060C9472060C9472060C94BB21DC
:100060000C9472060C9472060C9472060C94720630
:100070000C9472060C9472060C9472060C94720620
:100080000C9472060C9472060C9472060C94720610
:100090000C9472060C9472060C9472060C94720600
:1000A0000C9472060C9472060C947206646F6E6562
:1000B00021006661696C65640052616973696E67ED
:1000C00020616C61726D2E2E2000646F6E6520774A
:1000D00069746820726573756C743A200053656E9C
:1000E00064696E67206D6561737572656D656E74A8
:1000F0002027006661696C656420746F20617474E8
:10010000616368204750525300737563636573736E
:1001100066756C6C79207265676973746572656465
:1001200020776974682069643A2000676F742072D0
:100130006567697374726174696F6E206572726F3E
:10014000723A2000272E2E2000526567697374656D
:1001500072696E6720646576696365202700646F45
:100160006E652100417474616368696E6720475051
:1001700052532E2E2000646F6E65210053657474F7
:10018000696E672075702047534D206D6F64756CE4
:10019000652E2E200000C201000100110011000C8C
:1001A0000000E100000A0025002500210000960063
:1001B000001900390039003600127A00001F00468D
:1001C00000460044008070000022004D004D004AAF
:1001D00000004B00003600750075007200403800CA
:1001E000004A009C009C009900802500007200ECF1
:1001F00000EC00E900C0120000E900DA01DA01D7E2
:100200000160090000D701B603B603B303B00400D0
:1002100000B3036E076E076B07580200006E07DC21
:100220000EDC0ED80E2C010000DC0EC11DC11DBE5F
:100230001D2F6964656E74697479002048545450A8
:100240002F312E310A486F73743A20002F002F642B
:100250006576696365636F6E74726F6C2F6F70651E
:10026000726174696F6E73005055542000227D00D6
:100270007B22737461747573223A22005570646135
:1002800074696E67206F7065726174696F6E2000AB
:100290005355434345535346554C002048545450FE
:1002A0002F312E310A486F73743A2000267374611F
:1002B0007475733D50454E44494E47003F70616729
:1002C0006553697A653D312664657669636549647D
:1002D0003D002F646576696365636F6E74726F6C41
:1002E0002F6F7065726174696F6E7300474554209B
:1002F0000020485454502F312E310A486F73743AFD
:100300002000267374617475733D50454E44494E08
:1003100047003F7061676553697A653D31266465C2
:100320007669636549643D002F646576696365633A
:100330006F6E74726F6C2F6F7065726174696F6E1F
:1003400073004745542000536176696E6720696EDB
:1003500020454550524F4D3A00446576696365200B
:10036000696420696E20454550524F4D3A00227D08
:100370007D7D002C22756E6974223A2200223A7B20
:100380002276616C7565223A00223A7B2200222C8B
:100390002274797065223A2200227D2C2274696DC4
:1003A00065223A22007B22736F75726365223A7B65
:1003B000226964223A22002F6D6561737572656D42
:1003C000656E742F6D6561737572656D656E74739E
:1003D00000227D00222C2274657874223A220022A9
:1003E0002C2274696D65223A2200222C22736576D4
:1003F0006572697479223A2200222C227374617426
:100400007573223A2200227D2C2274797065223A7B
:1004100022007B22736F75726365223A7B226964C6
:10042000223A22002F616C61726D2F616C61726DD6
:10043000730020485454502F312E310A486F737482
:100440003A20002F002F696E76656E746F72792FD7
:100450006D616E616765644F626A656374730047BE
:10046000455420007D002C226338795F53757070ED
:100470006F727465644D6561737572656D656E74D8
:1004800073223A002C226338795F537570706F7253
:100490007465644F7065726174696F6E73223A009F
:1004A0002C226338795F4973446576696365223A23
:1004B0007B7D00222C22636F6D5F63756D756C6FA1
:1004C000636974795F6D6F64656C5F4167656E74B5
:1004D000223A7B7D00222C2274797065223A220018
:1004E0007B226E616D65223A22002F696E76656E01
:1004F000746F72792F6D616E616765644F626A65B2
:1005000063747300504F535400504F535400504F76
:100510005354004745540047455400474554005242
:1005200045512053454E540052582046494E495398
:100530004845442053545200525820544D4F55546E
:1005400020455252000A0A005245512053454E544C
:100550000052582046494E4953484544205354526E
:1005600000525820544D4F555420455252000A0A0B
:10057000000A0A000A436F6E74656E742D4C656E36
:100580006774683A20002B6A736F6E3B7665723D24
:10059000302E393B636861727365743D5554462D46
:1005A00038006F7065726174696F6E436F6C6C6553
:1005B0006374696F6E006170706C69636174696FF8
:1005C0006E2F766E642E636F6D2E6E736E2E637556
:1005D0006D756C6F636974792E000A416363657091
:1005E000743A20002B6A736F6E3B7665723D302E35
:1005F000393B636861727365743D5554462D38000C
:100600006D616E616765644F626A656374006170F5
:10061000706C69636174696F6E2F766E642E636FA0
:100620006D2E6E736E2E63756D756C6F6369747964
:100630002E000A4163636570743A20002B6A736F61
:100640006E3B7665723D302E393B6368617273652F
:10065000743D5554462D38006F7065726174696F32
:100660006E006170706C69636174696F6E2F766E75
:10067000642E636F6D2E6E736E2E63756D756C6F69
:10068000636974792E000A436F6E74656E742D541D
:100690007970653A20002B6A736F6E3B7665723D08
:1006A000302E393B636861727365743D5554462D35
:1006B0003800616C61726D006170706C69636174A7
:1006C000696F6E2F766E642E636F6D2E6E736E2E55
:1006D00063756D756C6F636974792E000A436F6E74
:1006E00074656E742D547970653A20002B6A736FAF
:1006F0006E3B7665723D302E393B6368617273657F
:10070000743D5554462D38006D616E616765644FC8
:10071000626A6563745265666572656E63650061E1
:1007200070706C69636174696F6E2F766E642E638E
:100730006F6D2E6E736E2E63756D756C6F6369745D
:10074000792E000A436F6E74656E742D547970654E
:100750003A20002B6A736F6E3B7665723D302E39FE
:100760003B636861727365743D5554462D38006D66
:10077000616E616765644F626A6563740061707081
:100780006C69636174696F6E2F766E642E636F6D32
:100790002E6E736E2E63756D756C6F636974792E32
:1007A000000A436F6E74656E742D547970653A203B
:1007B000002B6A736F6E3B7665723D302E393B635A
:1007C0006861727365743D5554462D38006D6561DE
:1007D000737572656D656E74006170706C696361CC
:1007E00074696F6E2F766E642E636F6D2E6E736EEE
:1007F0002E63756D756C6F636974792E000A436F93
:100800006E74656E742D547970653A20000A582D07
:1008100043756D756C6F636974792D4170706C6987
:10082000636174696F6E2D4B65793A20000A4175DA
:1008300074686F72697A6174696F6E3A204261738D
:100840006963200020485454502F312E310A486FDC
:1008500073743A20002000544350204661696C654F
:10086000640020485454502F312E310A486F73745D
:100870003A20002000544350204661696C656400B2
:10088000544350204661696C6564004F564552469A
:100890004C4F5700526573706F6E73652028736FED
:1008A0006D6520646F747320617265206164646992
:1008B00074696F6E616C20666F7220646562756723
:1008C000293A0041542B434950434C4F5345004172
:1008D000542B434950534855540041542B435042E4
:1008E000533D22534D220041542B434D47463D3149
:1008F0000041542B434D45453D300041542B434C62
:1009000049503D310041542B4950523D0041542B38
:100910004950523D0041542B4950523D39363030F8
:100920000D0041542B4950523D393630300D0041B5
:10093000542B4950523D393630300D0041542B492B
:1009400050523D393630300D0041542B4950523D04
:10095000393630300D0041542B4950523D39363034
:10096000300D0041542B4950523D393630300D0086
:1009700041542B4950523D393630300D0041542BF3
:100980004950523D393630300D000D0041542B4353
:100990005042573D00220D002C220041542B435061
:1009A00042573D0041542B435042523D0041542B8D
:1009B000435245473F0041542B47534E0041542B6F
:1009C00051434349440041542B5149444E534950EB
:1009D0003D0041542B4350494E3D0041542B434D63
:1009E00047443D0041542B434D474C3D2252454323
:1009F00020554E52454144222C310041542B514543
:100A00004E473D312C300041542B51454E473F005D
:100A100041542B51454E473D312C300041542B431E
:100A20004C49503D310041542B434D47463D310028
:100A300041542B43475245473F0041542B435245B5
:100A4000473F0000000000240027002A002D00304E
:100A50000000000000250028002B002E00310000BF
:100A60000000002300260029002C002F00040404AD
:100A70000404030405020202020403020202020645
:100A80000606060606040402020204040802011017
:100A900040804010204080408008020401804020B7
:100AA0001002011080102040400000000200080EDB
:100AB0000000030401000B00000000000000000023
:100AC00000000000000000070605040100080A0BF2
:100AD0000C0D09080B0002020201000904000001CC
:100AE0000202000005240010010524010101042474
:100AF00002060524060001070581031000400904D1
:100B00000100020A0000000705020240000007057C
:100B100083024000000403090422034100720064C0
:100B200000750069006E006F0020004C0065006FCA
:100B3000006E006100720064006F001803410072D3
:100B4000006400750069006E006F0020004C004CCE
:100B500000430012010002000000404123368000E3
:100B6000010102000112010002020000404123368F
:100B70008000010102000100C18081C1050109025C
:100B8000A1010901A1008501050919012903150029
:100B90002501950375018102950175058103050104
:100BA0000930093109381581257F750895038106BB
:100BB000C0C005010906A1018502050719E029E762
:100BC00015002501750195088102950175088103BD
:100BD000950675081500256505071900296581002A
:100BE000C009040200010300000009210101000105
:100BF000226500070584034000010000000000009A
:100C000000002A2B28000000000000000000000067
:100C1000000000000000000000002C9EB4A0A1A273
:100C2000A434A6A7A5AE362D3738271E1F202122B3
:100C300023242526B333B62EB7B89F8485868788AC
:100C4000898A8B8C8D8E8F9091929394959697989C
:100C5000999A9B9C9D2F3130A3AD3504050607085A
:100C6000090A0B0C0D0E0F1011121314151617187C
:100C7000191A1B1C1DAFB1B0B500B507880CE60DE5
:100C8000E919FC1E031F9021972100252828362BE7
:100C9000AE07892111241FBECFEFDAE0DEBFCDBF42
:100CA00015E0A0E0B1E0E8E1FAE502C005900D92A0
:100CB000A83DB107D9F717E0A8EDB5E001C01D9236
:100CC000A83DB107E1F71CE0C0E9DCE004C02297D1
:100CD000FE010E94C42CCA37D107C9F70E94CB2558
:100CE0000C94FF2C0C940000A0E0B0E0EAE7F6E0E2
:100CF0000C94D02CEC01A880B980CA80DB80A114B0
:100D0000B104C104D10441F484E2A82E89EDB82EC7
:100D10008BE5C82E87E0D82EC601B5012DE133EF53
:100D200041E050E00E94932C27EA31E440E050E09B
:100D30000E943F2C7B018C01C601B5012DE133EFF0
:100D400041E050E00E94932CCA01B9012CEE34EF2F
:100D50004FEF5FEF0E943F2C6E0D7F1D801F911F94
:100D600097FF04C061507040804090486883798349
:100D70008A839B839B01AC015F77B901CA01CDB720
:100D8000DEB7EAE00C94EC2C0E947406089585E628
:100D900095E00E947406089560936505709366055A
:100DA00080936705909368050895FC01882799272B
:100DB000E89421912032E9F3293010F02E30C8F365
:100DC0002B3241F02D3239F4689404C00E94670739
:100DD000820F911D219120532A30C0F31EF490956B
:100DE00081959F4F0895FB01DC010D900020E9F7EC
:100DF000119701900D920020E1F70895FC01819177
:100E0000861721F08823D9F7992708953197CF01C4
:100E10000895FB01DC018D91019080190110D9F337
:100E2000990B0895FB01DC0101900D920020E1F780
:100E30000895FB0151915523A9F0BF01DC014D91AB
:100E400045174111E1F759F4CD010190002049F017
:100E50004D9140154111C9F3FB014111EFCF81E0E4
:100E600090E001970895FA01CF93FF93EF9322301A
:100E700044F1253234F5C22FE894CA3049F497FB87
:100E80003EF490958095709561957F4F8F4F9F4F61
:100E90002C2F332744275527FF93EF930E94712C63
:100EA000EF91FF91605D6A330CF0695D6193B90168
:100EB000CA01605070408040904051F716F4CDE276
:100EC000C19310828F919F91CF910C946F077AE01C
:100ED000979F902D879F802D910D11240895DC01FF
:100EE000FC01672F71917723E1F7329704C07C9161
:100EF0006D9370836291AE17BF07C8F30895EF92A8
:100F0000FF920F931F9381309105D1F46F5F7F4F54
:100F100001F58AE096E063E070E00E94542088EDDD
:100F200095E060E071E045E151E02BE131E001E363
:100F300011E0EBE3EE2EE1E0FE2E0E94E20C09C090
:100F4000892B39F46F5F7F4F21F488ED95E00E9483
:100F5000FE0C1F910F91FF90EF90089580E090E0BC
:100F60006FEF7FEF0E947F07089581E090E06FEFC1
:100F70007FEF0E947F070895EF92FF920F931F93D8
:100F800080EB97E069EB70E00E940E2688ED95E01B
:100F90006CE471E04EE651E025E731E00BE711E04B
:100FA000F4E9EF2EF1E0FF2E0E944D1697FF05C0E9
:100FB00080EB97E062EB70E004C080EB97E06CEAB6
:100FC00070E00E9459261F910F91FF90EF900895B5
:100FD0008F929F92AF92BF92CF92DF92EF92FF9249
:100FE0000F931F93DF93CF9300D000D0CDB7DEB720
:100FF00060E070E080E090E025E630E040E050E026
:101000000E94DE2A5B016C017B01B0EB8B2EB7E006
:101010009B2EC4016DED70E00E940E26C401B50147
:101020004AE050E00E942D27C4016CEA71E00E9462
:1010300062270027F7FC0095102FE982FA820B83C4
:101040001C8388ED95E061EB71E04BE751E027EB05
:1010500031E00CEC11E07E010894E11CF11CAEECD7
:10106000CA2EA1E0DA2E0E94FB148C01C4016AECA6
:1010700070E00E940E26C401B8014AE050E00E94D0
:101080002D27C4010E9439260F900F900F900F90CA
:10109000CF91DF911F910F91FF90EF90DF90CF9054
:1010A000BF90AF909F908F900895809109068823FC
:1010B00051F00E94BC070E94E80760E67AEE80E0EB
:1010C00090E00E94112208958F929F92AF92BF925A
:1010D000CF92DF92EF92FF920F931F93DF93CF9304
:1010E000CDB7DEB72E970FB6F894DEBF0FBECDBFDB
:1010F0008DE061E00E94C0228DE060E00E944D23FF
:1011000060E177E280E090E00E9411228DE061E0F2
:101110000E944D2380EB97E060E07BE40E94B524C1
:1011200080EB97E06CE771E00E940E2683E090E090
:101130000E94E125182F092F0E94D219109307064B
:101140000093080680EB97E066E771E00E9459265D
:1011500080EB97E064E671E00E940E26809107061E
:101160009091080662ED71E041ED51E09A010E9414
:10117000CE19892B09F475C080EB97E06EE571E01C
:101180000E945926609107067091080688ED95E047
:101190000E94040D82EE91E09C838B838CEE91E0A3
:1011A0009E838D8387EB91E09A83898380EB97E020
:1011B00069E471E00E940E266091690570916A05EC
:1011C00080EB97E00E945F2780EB97E064E471E09A
:1011D0000E940E266091690570916A05A7E08A2E2B
:1011E000912C8C0E9D1E88ED95E0A40128E030E046
:1011F0008E010D5F1F4FF2E0EF2EF12C6E0108946F
:10120000C11CD11CE1E0AE2EB12C0E941E198C0134
:1012100097FF12C080EB97E06BE271E00E940E2610
:1012200080EB97E0B8014AE050E00E942D2780EB68
:1012300097E00E9439260EC080EB97E069E071E0EC
:101240000E940E2680EB97E0B4010E94622781E0A5
:101250008093090668EE73E080E090E00E9411221E
:1012600006C080EB97E063EF70E00E9459262E964F
:101270000FB6F894DEBF0FBECDBFCF91DF911F91A7
:101280000F91FF90EF90DF90CF90BF90AF909F9025
:101290008F9008950F931F93CF93DF93FC01738D6D
:1012A00076957170A685B7859585772329F08C9101
:1012B000892309F454C004C08C91892309F04FC0DC
:1012C0008389948920E001972FEF8F3F9207D9F708
:1012D000C589D689A685B785158560E031E040E0EF
:1012E00050E000E0CE01202F01972FEF8F3F9207B3
:1012F000D9F78C91812311F0632B03C0832F809544
:101300006823330F4F5F5F4F4830510559F7878986
:10131000908D20E001972FEF8F3F9207D9F7711141
:10132000609580914E0620914F0690E001968F7354
:10133000907030E08217930779F0E0914E06F0E06C
:10134000E25FF94F608380914E0690E001968F73C3
:10135000907080934E0603C0838D8160838FDF91F0
:10136000CF911F910F9108951F920F920FB60F9278
:1013700011242F933F934F935F936F937F938F939A
:101380009F93AF93BF93EF93FF9380910C0690913F
:101390000D06009711F00E944A09FF91EF91BF914D
:1013A000AF919F918F917F916F915F914F913F91FD
:1013B0002F910F900FBE0F901F901895CF92DF9234
:1013C000EF92FF920F931F93CF93DF93EC017A017B
:1013D0008B011A8E198E188E1F8A1E8A1D8A1C8AEE
:1013E0001B8A20E030E06901CC0CDD1CC20ED31E4C
:1013F000B601660F771F660F771FAB014B565E4F26
:10140000FA0185919591A591B4918E159F05A0073C
:10141000B107E9F4FB01E756FE4F859194919C8B4F
:101420008B8BFB01E556FE4F859194919E8B8D8BA6
:10143000FB01E356FE4F85919491988F8F8BFB01B2
:10144000E156FE4F859194919A8F898F06C02F5F48
:101450003F4F2D30310509F0C6CF8F89988D892BEC
:1014600009F457C09C85892F8850843038F0865005
:10147000843020F09A51933008F043C08091680086
:101480008160809368002C85922F9850943090F062
:10149000822F8E50843070F08C50833008F451C00D
:1014A000A0E0B0E0833018F0E0E0F0E007C0EBE649
:1014B000F0E004C0EBE6F0E0ABE6B0E04081943051
:1014C00020F430E02450304013C02E3011F488E076
:1014D00016C02F3011F482E012C0203111F484E0E4
:1014E0000EC0213111F481E00AC030E026513040B5
:1014F00081E090E002C0880F991F2A95E2F7842BC3
:101500008C93898D9A8D20E001972FEF8F3F920762
:10151000D9F780910C0690910D068C179D07A1F0CC
:101520008B8D8E7F8B8F9FB7F89410924E06809193
:101530004E0680934F06D0930D06C0930C069FBFB6
:1015400003C0ABE6B0E0AECFDF91CF911F910F911A
:10155000FF90EF90DF90CF900895FC012485922FAB
:101560009850943038F0822F8E50843018F08C5080
:10157000833030F540916B00943020F430E02450FB
:10158000304013C02E3011F487EF17C02F3011F404
:101590008DEF13C0203111F48BEF0FC0213111F406
:1015A0008EEF0BC030E02651304081E090E002C069
:1015B000880F991F2A95E2F78095842380936B000A
:1015C0000895FC018FE795E091838083CF010E940D
:1015D000AD0A089520910C0630910D0628173907A1
:1015E00031F490914F0680914E06981719F42FEF21
:1015F0003FEF0FC0E0914F06F0E0E25FF94F20812E
:1016000080914F0690E001968F73907080934F0603
:1016100030E0C901089520910C0630910D0628177D
:10162000390719F020E030E00EC080914E0620917D
:101630004F0690E0805C9F4F821B910960E470E050
:101640000E945E2C9C01C90108950F931F93DC0139
:1016500059968D919C915A97892B49F481E090E09D
:1016600013969C938E93129720E030E097C00FB7AB
:10167000F8945B968C915B975196ED91FC91529703
:1016800050962C91509781FF8DC08081822B808352
:1016900059968D919C915A97059620E001972FEFCE
:1016A0008F3F9207D9F75B968C915B9781FF35C08E
:1016B00031E040E050E070E010E0832F90E08623BE
:1016C00097235196ED91FC91529750962C915097FB
:1016D000892B29F0808120952823208303C08081D5
:1016E000822B808359968D919C915A97212F019737
:1016F0002FEF8F3F9207D9F7330F4F5F5F4F48307F
:101700005105D9F65196ED91FC91529790815096E2
:101710008C9150978095892333C031E040E050E0B0
:1017200070E010E0832F90E0862397235196ED918F
:10173000FC91529750962C915097892B21F08081E3
:10174000822B808304C08081209528232083599692
:101750008D919C915A97212F01972FEF8F3F9207E0
:10176000D9F7330F4F5F5F4F48305105D9F6519687
:10177000ED91FC915297808150969C915097892BC6
:1017800080830FBF59968D919C915A9720E00197C5
:101790002FEF8F3F9207D9F721E030E0C9011F9169
:1017A0000F910895808120952823208371CF209167
:1017B0000C0630910D062817390749F49FB7F894A5
:1017C00010924E0680914E0680934F069FBF08955B
:1017D00020910C0630910D062817390731F49091AD
:1017E0004F0680914E06981719F42FEF3FEF0AC06D
:1017F000E0914F06F0E0E25FF94F8081282F332718
:1018000027FD3095C90108951F93CF93DF93EC0115
:10181000162F862F60E00E94C0228B8D81FD04C0B0
:10182000812F61E00E944D231C87212F30E0C901E8
:101830008557954FFC0184918D872359354FF901C8
:101840006491E62FF0E0EE0FFF1FE15AF54F85910E
:1018500094919F878E87DF91CF911F910895FF927A
:101860000F931F938C01F62E862F61E00E94C022F9
:101870008F2D61E00E944D238F2D90E0FC01E557F4
:10188000F54FE491D8015096EC9350978359954FBA
:10189000FC016491E62FF0E0EE0FFF1FEF5AF54FC9
:1018A0008591949152969C938E9351971F910F918D
:1018B000FF900895FF920F931F938C01F62EFC0169
:1018C0001382128288EE93E0A0E0B0E084839583D7
:1018D000A683B7838FE795E091838083148A138A68
:1018E000168A158A108E178A128E118E838D21709A
:1018F000220F8C7F822B838FC801642F0E942F0CB4
:10190000C8016F2D0E94040C1F910F91FF90089544
:1019100080E596E063E070E00E9454200895FC01A9
:1019200087E995E0918380830895FA019581868106
:10193000981709F046C06037A1F1613764F4633647
:10194000E1F164361CF46236E1F511C0673629F125
:101950006C36B9F51EC0643741F165371CF4623747
:1019600081F509C0663729F1693759F50EC080E362
:10197000858382E320C0923321F480E3858383E36F
:101980001AC080E3858384E316C080E3858385E302
:1019900012C080E3858387E30EC080E3858388E3FC
:1019A0000AC080E3858389E306C081E3858380E301
:1019B00002C081E385838683089581E3858382E382
:1019C00086830895EF92FF920F931F93FC018FE897
:1019D00095E0918380837383628380E590E09587AF
:1019E0008487558344833783268311870087F38652
:1019F000E2861F910F91FF90EF900895FC018FE810
:101A000095E0918380830895FC0176A765A70895EA
:101A10004F925F926F927F928F929F92AF92BF92FE
:101A2000CF92DF92EF92FF920F931F93DF93CF93AA
:101A3000CDB7DEB727970FB6F894DEBF0FBECDBF88
:101A40006C017B018A0160909B0570909C0560E0B1
:101A500070E040E050E02E010894411C511C94E0DD
:101A6000892E912C8C0E9D1E84E0A82EB12CA80CE2
:101A7000B91C3EC0F201E60FF71FD7018C9180839D
:101A80006F5F7F4F6330710571F58981982F96954F
:101A900096959C839A8183708295807F292F2295C9
:101AA0002F70820F8D832B819F70990F990F822F3A
:101AB0008295869586958370980F9E832F732F83CA
:101AC000D4019601240F351F8D91F301E80FF11D0C
:101AD0008081F90181939F01AA15BB05A9F74C5F8D
:101AE0005F4F60E070E00894E11CF11C0150104071
:101AF0000115110509F0BECF6115710509F44BC040
:101B0000FE013196E60FF71FCB0102C0119201963C
:101B100083309105DCF38981982F969596959C8367
:101B20009A8183708295807F292F22952F70820F52
:101B30008D832B819F70990F990F822F82958695A7
:101B400086958370980F9E832F732F83D601A40FE1
:101B5000B51F20E030E08E010C5F1F4FF801E20F4F
:101B6000F31F8081F301E80FF11D80818D934F5F9A
:101B70005F4F2F5F3F4F6217730784F7CB01F6016A
:101B8000E40FF51F2DE304C021934F5F5F4F0196D3
:101B900083309105CCF34C0D5D1DDA011C92279624
:101BA0000FB6F894DEBF0FBECDBFCF91DF911F916E
:101BB0000F91FF90EF90DF90CF90BF90AF909F90EC
:101BC0008F907F906F905F904F90089582E596E0A0
:101BD00063E070E00E9454200895FC018FE895E0D6
:101BE00091838083CF010E94DE250895FC0187E95F
:101BF00095E091838083CF010E94DE250895DB016B
:101C00000D900020E9F71197A61BB70BFB0180E0B0
:101C100090E00EC02081F999FECF31961FBA92BD97
:101C200081BD20BD0FB6F894FA9AF99A0FBE0196BD
:101C3000A817B90778F70895CF93DF93C0E0D0E0F5
:101C4000F999FECFD2BDC1BDF89A80B58F3F19F486
:101C500060E070E01BC021968F5F823088F7CE0174
:101C600001960E9480239C01BC0140E050E0F9995C
:101C7000FECF52BD41BDF89A80B5F901E40FF51FC2
:101C800080834F5F5F4FC417D5078CF7CB01DF917F
:101C9000CF910895AF92BF92CF92DF92EF92FF92D1
:101CA0000F931F93CF93DF938A016B01EB0182E0C7
:101CB00090E020E030E00EC0A881B981FD010190E4
:101CC0000020E9F7EA1BFB0B31968E0F9F1F2F5F59
:101CD0003F4F2296201731077CF31016110634F47B
:101CE00001501040800F911F0F5F1F4F01960E94FF
:101CF0008023F82EE92E65E172E00E941207C0E011
:101D0000D0E058010894A108B10821C08F2D9E2D64
:101D100067E172E00E94F306F601608171818F2D08
:101D20009E2D0E94F3068F2D9E2D67E172E00E948A
:101D3000F306CA15DB0534F48F2D9E2D69E172E0A0
:101D40000E94F306219682E090E0C80ED91EC017CB
:101D5000D107E4F28F2D9E2D6BE172E00E94F30615
:101D60008F2D9E2DDF91CF911F910F91FF90EF90BE
:101D7000DF90CF90BF90AF9008950F931F938B018A
:101D800080EB97E04AE050E00E942D278AE596E03C
:101D9000B8010E9490201F910F9108950F931F93F7
:101DA0008B0180EB97E00E940E268AE596E0B80151
:101DB0000E9482201F910F910895EF92FF920F933E
:101DC0001F938C017B0164E775E00E94CE0EC80171
:101DD000B7010E94BD0EC80161E775E00E94CE0EFA
:101DE0001F910F91FF90EF9008950F931F938C0117
:101DF00062E376E00E94CE0EC8016EE076E00E94BB
:101E0000CE0EC80160E076E00E94CE0EC80164EEFE
:101E100075E00E94CE0E1F910F9108950F931F93AE
:101E20008C016CED76E00E94CE0EC80168EB76E086
:101E30000E94CE0EC80162EB76E00E94CE0EC80171
:101E400066E976E00E94CE0E1F910F9108950F93E0
:101E50001F938C0161EA77E00E94CE0EC8016DE706
:101E600077E00E94CE0EC8016FE677E00E94CE0EAA
:101E7000C80163E577E00E94CE0E1F910F9108958F
:101E80000F931F938C016DEF77E00E94CE0EC80177
:101E900069ED77E00E94CE0EC8016DEC77E00E94FC
:101EA000CE0EC80161EB77E00E94CE0E1F910F911C
:101EB00008950F931F938B01FB016081718180EB6B
:101EC00097E00E945F27F801608171818AE596E0C2
:101ED0000E9466201F910F9108950F931F938B010D
:101EE00080EB97E00E945F278AE596E0B8010E94A8
:101EF00058201F910F910895EF92FF920F931F9317
:101F00008C017B016DE278E00E94CE0EC801B70122
:101F10000E946D0F1F910F91FF90EF9008956F92A7
:101F20007F928F929F92AF92BF92CF92DF92EF9269
:101F3000FF920F931F93DF93CF93CDB7DEB76C0162
:101F40004B016DB67EB6DC011496EC911497159694
:101F5000FC91DF010D900020E9F77D010894E10874
:101F6000F108EE1AFF0ADC011696EC911697179607
:101F7000FC91DF010D900020E9F7CD0101978E1B48
:101F80009F0BD6011896EC9118971996FC91DF01DA
:101F90000D900020E9F71197AE1BBF0BE80EF91E5C
:101FA000E2E0F0E0EE0EFF1EEA0EFB1E8DB79EB7DC
:101FB0008E199F090FB6F8949EBF0FBE8DBF0DB747
:101FC0001EB70F5F1F4FC70160E670E00E945E2CD6
:101FD0009B01C701880F991F880F991F63E070E06C
:101FE0000E945E2C260F371F2A5F3F4FADB7BEB74A
:101FF000A21BB30B0FB6F894BEBF0FBEADBFADB6FC
:10200000BEB60894A11CB11CF60164817581C8019B
:102010000E941207C8016DE172E00E94F306D6012A
:1020200016966D917C911797C8010E94F306C8011E
:102030006FE172E00E94F306F60160857185C801C8
:102040000E94F306C501B801A7010E94080DC40152
:10205000B5010E947C0F0FB6F8947EBE0FBE6DBE18
:10206000CF91DF911F910F91FF90EF90DF90CF9074
:10207000BF90AF909F908F907F906F900895EF9258
:10208000FF920F931F930E9403227B018C018AE52C
:1020900096E00E94AE20682F18162CF480EB97E093
:1020A0000E943126F0CF0E9403226E197F09800B17
:1020B000910B605D77408040904048F31F910F91F5
:1020C000FF90EF9008951F93CF93DF93EB018AE584
:1020D00096E00E94AE20182F1816CCF780EB97E000
:1020E000612F0E9431261A3391F78AE596E00E940B
:1020F000AE20182F181654F480EB97E0612F0E9441
:1021000031261B3719F4188381E003C0123269F7B6
:1021100080E0DF91CF911F910895AF92BF92CF924F
:10212000DF92EF92FF920F931F93CF93DF936B0198
:102130005A010E946310082FC82FD0E0B1E0EB2EA7
:10214000F12C27C08AE596E00E94AE20182F1816C1
:10215000CCF780EB97E0612F0E9431261C35C9F047
:10216000002311F4123221F1F601EC0FFD1F108350
:102170002196002371F01B3721F40894E11CF11C17
:1021800008C01D3731F40894E108F108E114F104A6
:1021900019F0CA15DB05B4F2CA15DB0549F480EB6A
:1021A00097E06BE878E00E945926F601108203C0A0
:1021B000CC0DDD1D1882DF91CF911F910F91FF9003
:1021C000EF90DF90CF90BF90AF9008951F93CF9383
:1021D000DF93C1E0D0E08AE596E00E94AE20182FA0
:1021E00018164CF480EB97E0612F0E9431261B37C4
:1021F00011F4219603C01D3709F42197209759F750
:10220000DF91CF911F9108956F927F928F929F924D
:10221000AF92BF92CF92DF92EF92FF921F93CF9334
:10222000DF933C014B010E9403226B017C01C0E063
:10223000D0E0AA24BB2456C08AE596E00E94AE20D6
:10224000182F18160CF041C080EB97E0612F0E9408
:1022500031260E9403226B017C01F401EC0FFD1F6B
:102260008081181749F52196F401EC0FFD1F80813C
:102270008F32C1F51CC08AE596E00E94AE20182F6F
:10228000181654F480EB97E0612F0E9431260E94CB
:1022900003226B017C010BC00E9403226C197D0993
:1022A0008E099F09605D77408040904060F51B3744
:1022B00011F721965E0116C0A114B10491F01B37ED
:1022C00081F4C3010E94E6100CC00E9403226C1925
:1022D0007D098E099F09605D77408040904010F035
:1022E00012C0E501D4010D900020E9F71197A8195B
:1022F000B909CA17DB0708F49FCF80E0CA17DB07CC
:1023000019F481E001C080E0DF91CF911F91FF902F
:10231000EF90DF90CF90BF90AF909F908F907F9085
:102320006F9008953F924F925F926F927F928F923B
:102330009F92AF92BF92CF92DF92EF92FF920F9354
:102340001F93CF93DF933C01EB010E9403224B01CB
:102350005C0100E010E0CC24DD2402C000E010E0CD
:102360008AE596E00E94AE20F82E181694F480EBD1
:1023700097E06F2D0E9431260E9403224B015C01E1
:10238000F801EF5DFD4F8081F81641F70F5F1F4F99
:102390000FC00E940322681979098A099B09605DB0
:1023A00077408040904020F05DEFC52E5FEFD52E46
:1023B00005301105ACF20530110509F0E1C000E06F
:1023C00010E08AE596E00E94AE20F82E181654F42C
:1023D00080EB97E06F2D0E94312680E2F81611F411
:1023E0000F5F1F4F0230110564F300E010E045E07D
:1023F000C42ED12CCC0EDD1E30E3E32E26E3322E8C
:1024000092E3492E81E3582EA3C08AE596E00E940C
:10241000AE20F82E18160CF08BC080EB97E06F2DD5
:102420000E9431260E9403224B015C0109301105F4
:1024300009F46CC00A301105F4F40430110509F4F4
:102440004CC00530110554F401301105A9F10330D9
:102450001105A1F10115110569F167C007301105DA
:1024600009F450C0083011050CF04EC005301105BC
:1024700009F05BC041C00F30110509F44FC00031B5
:1024800011056CF40C30110509F444C00D30110530
:1024900009F442C00A30110509F047C039C00231C1
:1024A000110509F43FC003311105F1F100311105A7
:1024B000E1F536C0F88639C0F98637C09AE4F916D6
:1024C00019F45E825D8231C0EDE4FE1619F44E828D
:1024D0004D822BC0EE82ED8228C0F60180818133CF
:1024E00021F5F1E6FF1621F4F601E0828E831DC08E
:1024F000F601E0823E8219C0C3016F2DAE010E9439
:10250000950C13C0F88211C0F9820FC0FA820DC079
:10251000FB820BC0FB8609C0FC8607C0FE8605C097
:10252000FF8603C0F98A01C0FA8A0F5F1F4F10C0EF
:102530000E940322681979098A099B09605D774026
:102540008040904028F00DEFC02E0FEFD02E18C025
:102550002AE0F21609F059CF8DE28F838C838AE34B
:10256000888B8D8784E58A878EE28B8B80E38E8BC8
:102570008D8B8C8B8AE58F8B188E11E0C12ED12C20
:10258000C601DF91CF911F910F91FF90EF90DF90E7
:10259000CF90BF90AF909F908F907F906F905F9003
:1025A0004F903F900895AF92BF92CF92DF92FF92EB
:1025B0000F931F93DF93CF93CDB7DEB764970FB61A
:1025C000F894DEBF0FBECDBF6C011C8A00E010E0A6
:1025D0005E010894A11CB11C8AE596E00E94AE2021
:1025E000F82E18165CF480EB97E06F2D0E943126D0
:1025F000F501E00FF11FF0820F5F1F4F033111054E
:1026000034F4FE01E00FF11F80818A3029F7CE01FA
:10261000019660E270E00E94FE0601960E94D506D7
:10262000F6019183808364960FB6F894DEBF0FBEE7
:10263000CDBFCF91DF911F910F91FF90DF90CF9091
:10264000BF90AF9008950F931F93CF93DF93EC014A
:102650008B0180EB97E064E978E00E945926CE0177
:102660000E94D31280EB97E067E272E00E945F273E
:102670000115110521F0CE01B8010E94921180EBE5
:1026800097E067E272E00E945F27DF91CF911F9190
:102690000F9108950F931F930AE516E0C80163ECAC
:1026A00078E00E94A020C801029668E873E140E942
:1026B00051E00E942F1B1F910F910895AF92BF927E
:1026C000CF92DF92EF92FF920F931F936C015B0109
:1026D00000EB17E077E2E72E72E0F72EC801B701B2
:1026E0000E945F27C6010E943F10C801B7010E94E7
:1026F000622768EE73E080E090E00E941122C5013D
:102700000E944A131F910F91FF90EF90DF90CF909E
:10271000BF90AF9008958F929F92AF92BF92CF9249
:10272000DF92EF92FF920F931F93CF93DF936C0191
:102730004B015A01E901B7010E942313A114B1040E
:1027400091F0209781F0101611066CF4C601B501C6
:102750000E940411882331F0C601BE01A8010E9425
:102760008D1001C01882C601B4010E945E13DF9172
:10277000CF911F910F91FF90EF90DF90CF90BF907E
:10278000AF909F908F9008956F927F928F929F92BB
:10279000AF92BF92CF92DF92EF92FF920F931F936F
:1027A000DF93CF9300D000D0CDB7DEB77C016B01B3
:1027B0005A014901380165E475E00E94CE0E8AE1B4
:1027C00089831A82C701BE016F5F7F4F0E946D0F20
:1027D0008CE596E060ED77E042E350E029E232E0FC
:1027E0000E943C1B833039F0843059F480EB97E031
:1027F00068E375E004C080EB97E068E275E00E9452
:10280000592680EB97E06FE175E00E945926F701A9
:1028100060817181CE010396A60195018401730147
:102820000E948B138B819C810F900F900F900F90C3
:10283000CF91DF911F910F91FF90EF90DF90CF909C
:10284000BF90AF909F908F907F906F9008950F935F
:102850001F938B0160E070E040E050E020E030E04A
:102860000E94C4131F910F9108956F927F928F92CF
:102870009F92AF92BF92CF92DF92EF92FF920F930F
:102880001F93CF93DF936C014A0139015801FC017A
:10289000718360838B010E5F1F4FC0E0D0E0C801E1
:1028A000B401A5010E940A1F892B51F42196C3305F
:1028B000D105A9F780EB97E067E578E00E945926FB
:1028C000C601B7010E94CE0EC60165E578E00E9400
:1028D000CE0EC601B3010E94CE0EC60164E478E0BC
:1028E0000E94CE0EC601B4010E946D0FDF91CF9100
:1028F0001F910F91FF90EF90DF90CF90BF90AF901E
:102900009F908F907F906F9008958F929F92AF923B
:10291000BF92CF92DF92EF92FF920F931F93CF93CC
:10292000DF937C01EB015A014901CB0169E372E0BD
:102930000E9419078C179D0709F42796CE016AE3B8
:1029400070E00E94FE06009719F400E510E004C054
:1029500001960E94D5068C0182E090E00E94E1255C
:10296000D82EC92EF70160817181AE0195017401E5
:102970000E9435148D2D9C2DDF91CF911F910F91C9
:10298000FF90EF90DF90CF90BF90AF909F908F908F
:10299000089529E035E00E9485140895EF92FF9292
:1029A0000F931F93DF93CF9300D0CDB7DEB78C0189
:1029B000FC0185A596A59A83898362817381CE01E6
:1029C000019647EB53E00E94C914F82EE92EC80186
:1029D0006F2D7E2D0E948F0F8F2D9E2D0E94400FF8
:1029E0008F2D9E2D0F900F90CF91DF911F910F9102
:1029F000FF90EF9008952F923F924F925F926F92C7
:102A00007F928F929F92AF92BF92CF92DF92EF927E
:102A1000FF920F931F93DF93CF9300D000D000D08D
:102A2000CDB7DEB74C01562E472E742E652E2D8362
:102A30003E83302E212E5701202F312F8701760122
:102A40000E94CE148C018CE090E00E948023AC01A7
:102A500089835A83F50160817181828193812AE0A3
:102A600030E00E943307C4010E941C0E8B839C83BC
:102A7000DC010D900020E9F71197A81BB90B872DF9
:102A8000962DFC0101900020E9F75F010894A10850
:102A9000B108A81AB90A852D942DFC0101900020D7
:102AA000E9F77F010894E108F108E81AF90A8D8135
:102AB0009E81FC0101900020E9F7BF016150704048
:102AC000681B790B832D922DFC0101900020E9F702
:102AD000AF0141505040481B590B89819A81FC013C
:102AE00001900020E9F79F0121503040281B390B4D
:102AF000F60101900020E9F7CF0101978C199D099B
:102B0000AA0DBB1DAB5BBF4FAE0DBF1DA60FB71F00
:102B1000A40FB51FA20FB31FA80FB91FC801BD0195
:102B20000E94DD0EC80165EA73E00E94CE0EC80166
:102B3000BE016D5F7F4F0E94590F8B819C810E9467
:102B40001D24C80169E973E00E94CE0EC801672DFB
:102B5000762D0E946D0FC8016EE873E00E94CE0EC4
:102B6000C801652D742D0E946D0FC80161E472E0EB
:102B70000E946D0FC8016D817E810E946D0FC8019A
:102B800069E873E00E94CE0EC801632D722D0E9489
:102B90006D0FC8016DE773E00E94CE0EC801BE0143
:102BA0006F5F7F4F0E94590F89819A810E941D2477
:102BB000C80163E773E00E94CE0EC801B6010E940F
:102BC0006D0FC8016EE673E00E94CE0EC80160E092
:102BD00070E00E9427147C01C8010E94DE25E114E8
:102BE000F10419F42EEF3FEF11C0F9ECEF16F104E8
:102BF00019F421E030E00AC0C701F7FE03C0909548
:102C000081959F4F22273327281B390BC901269610
:102C10000FB6F894DEBF0FBECDBFCF91DF911F91ED
:102C20000F91FF90EF90DF90CF90BF90AF909F906B
:102C30008F907F906F905F904F903F902F9008956E
:102C4000EF92FF920F931F93DF93CF9300D0CDB7F6
:102C5000DEB78C01FC0185A596A59A8389836281E4
:102C60007381CE01019644E254E00E94C914F82E0B
:102C7000E92EC8016F2D7E2D0E948F0F8F2D9E2D66
:102C80000E940E0F8F2D9E2D0F900F90CF91DF91F0
:102C90001F910F91FF90EF9008952F923F924F92C6
:102CA0005F926F927F928F929F92AF92BF92CF92DC
:102CB000DF92EF92FF920F931F93DF93CF9300D099
:102CC000CDB7DEB75C01962E872E742E652E522E60
:102CD000432E0E9420166C01C5010E941C0E8983A0
:102CE0009A83DC010D900020E9F71197A81BB90B1E
:102CF000892D982DFC0101900020E9F75F010894CF
:102D0000A108B108A81AB90A872D962DFC010190D7
:102D10000020E9F7BF0161507040681B790B852DD9
:102D2000942DFC0101900020E9F7AF014150504083
:102D3000481B590BF80101900020E9F79F01215031
:102D40003040201B310BF70101900020E9F7CF0143
:102D500001978E199F09AA0DBB1DA45BBF4FA60F3B
:102D6000B71FA40FB51FA20FB31FA80FB91FC6012D
:102D7000BD010E94DD0EC60162E174E00E94CE0E2C
:102D8000C601BE016F5F7F4F0E94590F89819A81F2
:102D90000E941D24C60166E074E00E94CE0EC601AA
:102DA000692D782D0E946D0FC60169EF73E00E94B6
:102DB000CE0EC601672D762D0E946D0FC6016AEEFC
:102DC00073E00E94CE0EC601652D742D0E946D0F1A
:102DD000C6016FED73E00E94CE0EC601B8010E94DD
:102DE0006D0FC60164ED73E00E94CE0EC601B701FF
:102DF0000E946D0FC60161ED73E00E94CE0EC60108
:102E000060E070E00E9427148C01C6010E94DE255C
:102E10000115110519F42EEF3FEF10C0093C110503
:102E200019F421E030E00AC0C80117FF03C09095F3
:102E300081959F4F22273327281B390BC9010F90FB
:102E40000F90CF91DF911F910F91FF90EF90DF9046
:102E5000CF90BF90AF909F908F907F906F905F903A
:102E60004F903F902F900895EF92FF920F931F93F2
:102E7000DF93CF9300D0CDB7DEB78C01FC0185A5E1
:102E800096A59A83898362817381CE0101964AEE69
:102E900054E00E94C914F82EE92EC8016F2D7E2D32
:102EA0000E948F0F8F2D9E2D0E94270F8F2D9E2DFC
:102EB0000E94F50E8F2D9E2D0F900F90CF91DF91D8
:102EC0001F910F91FF90EF9008952F923F924F9294
:102ED0005F926F927F928F929F92AF92BF92CF92AA
:102EE000DF92EF92FF920F931F93DF93CF93CDB7B3
:102EF000DEB728970FB6F894DEBF0FBECDBF2C010A
:102F00006D837E834F83588719010E9434173C01DB
:102F1000C201B701A6010E944A0E89839A83DC018F
:102F20000D900020E9F77D010894E108F108E81A06
:102F3000F90AC201B501A4010E944A0E8B839C8349
:102F4000DC010D900020E9F79D0121503040281B45
:102F5000390BEF81F885DF010D900020E9F7CD01F5
:102F600001978E1B9F0BED81FE81DF010D900020EC
:102F7000E9F71197AE1BBF0BE20EF31E20E830E01D
:102F8000E20EF31EE80EF91EEA0EFB1EC301B701A6
:102F90000E94DD0EC30160EE74E00E94CE0EC301FC
:102FA0006F8178850E946D0FC30165ED74E00E940A
:102FB000CE0EC3016D817E810E946D0FC30163EB54
:102FC00074E00E94CE0EC30160EA74E00E94CE0E4F
:102FD000C30164E874E00E94CE0EC301BE016F5FBE
:102FE0007F4F0E94590F89819A810E941D24C3013D
:102FF00066E674E00E94CE0EC301BE016D5F7F4F96
:103000000E94590F8B819C810E941D24C30164E69C
:1030100074E00E94CE0EC30165E472E0A101980144
:1030200000E010E00E94C4138C01C3010E94DE2561
:1030300080EB97E0B1010E946227093C110519F469
:1030400021E030E00AC00115110519F42EEF3FEF21
:1030500004C022273327201B310BC90128960FB645
:10306000F894DEBF0FBECDBFCF91DF911F910F91BE
:10307000FF90EF90DF90CF90BF90AF909F908F9098
:103080007F906F905F904F903F902F900895CF92D8
:10309000DF92EF92FF920F931F93CF93DF938B01F9
:1030A0006A0179010E5F1F4FC0E0D0E0C801B60190
:1030B000A7010E940A1F892B51F42196C330D10524
:1030C000A9F780EB97E060E878E00E945926DF914D
:1030D000CF911F910F91FF90EF90DF90CF900895C7
:1030E0008F929F92AF92BF92CF92DF92EF92FF9218
:1030F0000F931F93DF93CF93CDB7DEB78C016B0196
:10310000B22EA32E8DB69EB682E090E00E94E125FD
:10311000F82EE92EF80165A576A542815381248514
:1031200035850E9447188F2D9E2D6FE574E00E9413
:10313000CE0E8F2D9E2D65E474E00E94CE0E8F2D55
:103140009E2D63E474E00E94CE0E8F2D9E2DB6015D
:103150000E946D0F8F2D9E2D62E374E00E94CE0EB3
:10316000F801628173818F2D9E2D0E946D0FC80121
:103170006F2D7E2D0E948F0F8F2D9E2D0E94F50E9C
:10318000AB2DBA2DFD0101900020E9F7EA1BFB0BE6
:103190008DB79EB78E1B9F0B0FB6F8949EBF0FBEC8
:1031A0008DBFCDB6DEB60894C11CD11CEB2DFA2D17
:1031B000DF010D900020E9F7AE1BBF0B8F2D9E2D78
:1031C00068E472E0A6019D0100E010E00E94C413D3
:1031D0008C018F2D9E2D0E94DE25083C110551F497
:1031E000C6016B2D7A2D0E940907009769F421E032
:1031F00030E011C00115110519F42EEF3FEF0BC09F
:1032000091E00439190719F42FEF3FEF04C022278A
:103210003327201B310BC9010FB6F8949EBE0FBE99
:103220008DBECF91DF911F910F91FF90EF90DF90B6
:10323000CF90BF90AF909F908F9008952F923F9224
:103240004F925F926F927F928F929F92AF92BF92B6
:10325000CF92DF92EF92FF920F931F93DF93CF9362
:10326000CDB7DEB728970FB6F894DEBF0FBECDBF3F
:1032700098878F834B01742E652E29011801FA82DD
:10328000E982DC82CB82BE82AD820E941C0E8C0160
:1032900080EB97E00E94392601151105D1F180EBF2
:1032A00097E069E573E00E940E2680EB97E0B80195
:1032B0000E946227F80101900020E9F7E01BF10B62
:1032C0004E165F0630F4C8010E941D242CEF3FEF1C
:1032D0004BC0872D962DB8010E941207782E692EBB
:1032E000C8010E941D2440919D0550919E058F812B
:1032F0009885672D762D94010E9470189C011816F0
:1033000019061CF420E030E02FC08FEF2F3F380764
:1033100059F560919D0570919E058F819885A40156
:10332000272D362D82017101C980DA80AB80BC80E7
:103330008D809E800E9465179C0118161906A4F4C2
:1033400080EB97E067E473E00E940E2680EB97E045
:10335000672D762D0E9462278F819885672D762DA7
:103360000E94FF0D21E030E0C90128960FB6F894C5
:10337000DEBF0FBECDBFCF91DF911F910F91FF90A8
:10338000EF90DF90CF90BF90AF909F908F907F9005
:103390006F905F904F903F902F90089502960E94FB
:1033A000721F08950F931F93FC0187E995E09183A5
:1033B00080830CE516E0C80140EC52E160E070E06B
:1033C0000E94A01CC80102970E94F4201F910F9137
:1033D000089584E596E063E070E00E94542008952B
:1033E000EF92FF920F93DF93CF9300D0CDB7DEB76C
:1033F0009C01062F623038F583539F4F9A8389834F
:1034000081E0E981FA8180838CEDE82EF12CE20ED7
:10341000F31EC70166E972E00E945F27C701602FB3
:1034200070E04AE050E00E942D27C7016AE972E08F
:103430000E945F2764EF71E080E090E00E9411221B
:10344000E981FA8110820F900F90CF91DF910F9157
:10345000FF90EF9008950F931F938C010E521F4F12
:10346000F801119261937193419351938F010E94DE
:103470000322F8016083718382839383075D104088
:10348000F8011282E153FF4F0E5F1F4F118300833B
:1034900001531F4FF8011082C8010B960E94D70BF1
:1034A0001F910F910895FC01EF52FF4F8081E15D64
:1034B000F040882349F0CF0102960E9419079C0131
:1034C00080E0232B09F081E008958F929F92AF92C4
:1034D000BF92CF92DF92EF92FF920F931F93CF9301
:1034E000DF93EC0162EDC62ED12CC80ED91EF60179
:1034F00080818823D1F5CE0184529F4F0E940B0B0F
:1035000057EDE52EF12CEC0EFD1E892B21F50E94C6
:103510000322F7012081318142815381621B730BA9
:10352000840B950BCD52DF4F28813981C35DD0408C
:1035300040E050E06217730784079507B0F0CF5260
:10354000DF4F8881C15DD040FE01E80FF11D12827E
:1035500044E0842E0BC00E940322F7016083718334
:103560008283938381E0F60180838824CE52DF4FEB
:103570008881C25DD040813009F063C03CEDA32E4C
:10358000B12CAC0EBD1EC5010E940B0B982E8823DA
:1035900059F10E940322C952DF4F688379838A83DD
:1035A0009B83C75DD04020C0F6018081883CB8F481
:1035B000F70100811181C5010E94EA0AF8018083A8
:1035C000F70180819181019691838083F60180814A
:1035D0008F5F8083FE01E80FF11D128203C0C501D9
:1035E0000E94EA0A9A940AC021EDC22ED12CCC0E78
:1035F000DD1E9FECE92EF12CEC0EFD1E9920A1F6AC
:103600000E940322C952DF4F288139814A815B81A0
:10361000621B730B840B950B3A912A91C55DD040C8
:1036200040E050E0621773078407950750F0CF52CF
:10363000DF4F8881C15DD040C80FD11D1A82882418
:103640008394882DDF91CF911F910F91FF90EF9080
:10365000DF90CF90BF90AF909F908F900895CF93C1
:10366000DF93EC010E942B1ACE010E94651A882379
:10367000D9F3DF91CF9108950F931F93CF93DF93E9
:10368000EC0189010E942B1ACE010E94651A882341
:10369000D9F3813011F084E009C0CE01B8010E9455
:1036A000531A882311F483E001C082E0DF91CF91A7
:1036B0001F910F9108956F927F928F929F92AF9278
:1036C000BF92CF92DF92EF92FF920F931F93CF930F
:1036D000DF93EC013B014A01590168010E2D7CED9D
:1036E000E72EF12CE80EF91E8FEF10E01FC011231A
:1036F00031F064EF71E080E090E00E941122C70198
:10370000B3010E945926CE01B401A5010E942F1BCE
:10371000813011F08FEF09C0CE01B6010E94531A1B
:10372000882311F081E004C080E01F5F1017F8F2D9
:10373000DF91CF911F910F91FF90EF90DF90CF908D
:10374000BF90AF909F908F907F906F9008956F92F1
:103750007F928F929F92AF92BF92CF92DF92EF9221
:10376000FF920F931F93CF93DF93EC013B014A012C
:10377000590168010E2DECEDEE2EF12CE80EF91E2C
:103780008FEF10E01FC0112331F064EF71E080E093
:1037900090E00E941122C701B3010E946227CE016E
:1037A000B401A5010E942F1B813011F08FEF09C0D9
:1037B000CE01B6010E94531A882311F081E004C0A3
:1037C00080E01F5F1017F8F2DF91CF911F910F91EA
:1037D000FF90EF90DF90CF90BF90AF909F908F9031
:1037E0007F906F900895EF920F931F93CF93DF9385
:1037F000EC01FC01E353FF4F8081882311F09FEF20
:1038000023C081E08083CE016CE972E048EE53E092
:1038100022E330E008EA12E0A2E0EA2E0E94A71BB1
:10382000CE016BEA72E048EE53E028EE33E002ECA2
:1038300012E0FAE0EF2E0E94A71B90E0813009F41D
:1038400091E0C353DF4F1882892FDF91CF911F91F1
:103850000F91EF900895CF92DF92EF920F931F9305
:10386000CF93DF93EC01662321F0613009F060C053
:1038700021C0FDECCF2ED12CC80ED91E81E0F6015F
:103880008083CE0169EC72E048EE53E022E330E041
:1038900008EA12E0E5E0EE2E0E94A71BCE016EECD6
:1038A00072E044EF51E022E330E00E94A71BF601F2
:1038B00010823EC01DECC12ED12CC80ED91EF601BF
:1038C00060836BEF78E044EF51E022E330E008EAF8
:1038D00012E0B5E0EB2E0E945B1BCE0161EF78E0B9
:1038E00044EF51E022E330E00E945B1BCE0167EE23
:1038F00078E044EF51E022E330E00E945B1BF601E8
:103900001082CE010E94F31BCE016AED78E048EEF2
:1039100053E022E330E00E945B1BCE016FEC78E0C5
:1039200044EF51E022E330E003ED12E00E945B1B24
:10393000DF91CF911F910F91EF90DF90CF9008957D
:103940004F925F926F927F928F929F92AF92BF92AF
:10395000CF92DF92EF92FF920F931F93CF93DF935B
:10396000EC012A013B01C353DF4F81E08883CD5C2A
:10397000D040BCEDAB2EB12CAC0EBD1EC5010E94DB
:10398000DE09C553DF4F81E090E099838883CB5CEB
:10399000D040CC24DD24CE016BED72E044EF51E049
:1039A00024E630E008EA12E0A5E0EA2E0E94A71B18
:1039B0008F3F11F0992416C089E061E00E944D23E9
:1039C00060EB74E080E090E00E94112289E060E00A
:1039D0000E944D2360E177E280E090E00E94112296
:1039E000992493940894C11CD11C83E0C816D10477
:1039F00091F6CE016BED72E044EF51E024E630E049
:103A000008EA12E0F5E0EF2E0E94A71B992009F4C6
:103A10008FC080EB97E06EED72E00E9462278E010E
:103A200004521F4FC0E0D0E0C330D105E9F1C430EB
:103A3000D1054CF4C130D10509F1C230D1054CF5A6
:103A4000209789F069C0C530D10509F443C0C5305D
:103A5000D105ACF1C630D10509F447C0C730D10556
:103A600009F05AC04DC0C50140EB54E060E070E081
:103A70000E94DE09C8016DE779E04CC0C50140E64F
:103A800059E060E070E00E94DE09C80160E779E07B
:103A900041C0C50140EC52E160E070E00E94DE09E7
:103AA000C80163E679E036C0C50140E855E260E050
:103AB00070E00E94DE09C80166E579E02BC0C5010F
:103AC00040E05BE460E070E00E94DE09C80169E468
:103AD00079E020C0C50140E056E960E070E00E9456
:103AE000DE09C8016CE379E015C0C50140E051EE84
:103AF00060E070E00E94DE09C8016FE279E00AC070
:103B0000C50140E052EC61E070E00E94DE09C801AE
:103B100062E279E00E940E262196C830D10509F0B4
:103B200083CF80EB97E065E073E00E94622725C1B8
:103B3000FF24813011F4FF24F394CE016BED72E089
:103B400044EF51E024E630E008EA12E0E5E0EE2E32
:103B50000E94A71B882309F0CCC0FF2009F0C9C030
:103B6000BCED8B2E912C8C0E9D1ECC24DD2483E08D
:103B7000C816D104B1F184E0C816D10464F481E020
:103B8000C816D10401F182E0C816D10424F5C1148D
:103B9000D10499F057C085E0C816D10471F185E0D1
:103BA000C816D10424F186E0C816D10461F187E07B
:103BB000C816D10409F046C02CC0C50140EB54E042
:103BC00060E070E005C0C50140E659E060E070E0EB
:103BD0000E94DE0937C0C50140EC52E160E070E0B0
:103BE000F7CFC50140E855E260E070E0F1CFC501D4
:103BF00040E05BE460E070E0EBCFC50140E056E9F7
:103C000060E070E0E5CFC50140E051EE60E070E0BB
:103C1000DFCFC50140E052EC61E070E00E94DE09B8
:103C2000C40165E179E00E940E26C50140E855E235
:103C300060E070E00E94DE0964EF71E080E090E0F7
:103C40000E94112264E670E080E090E00E94112260
:103C5000CE016BED72E044EF51E024E630E008EA7B
:103C600012E0A5E0EA2E0E94A71B813071F5C40185
:103C70006DE079E00E940E26C401B301A2012AE0A2
:103C800030E00E94ED26C4016AE972E00E945F27DD
:103C900064EF71E080E090E00E941122C501B30161
:103CA000A2010E94DE0964E670E080E090E00E94DC
:103CB0001122CE016BED72E044EF51E024E630E0DA
:103CC0000E94A71BFF24F39408C00894C11CD11CB8
:103CD00088E0C816D10409F04ACFC353DF4F1882D9
:103CE000CD5CD040FE01E153FF4F2296D183C083CB
:103CF0002297C353DF4F1882CD5CD040FF20E1F004
:103D0000CE0162E370E042E350E00E942F1BCE013F
:103D100060E00E942B1CCE0161E00E942B1CCE01B2
:103D200060E00E94F019C553DF4F82E090E0998374
:103D3000888321E030E023C0C50140E052EC61E01F
:103D400070E00E94DE0968EE73E080E090E00E947F
:103D500011228E0104521F4FC80165E079E00E94D4
:103D60000E26C801B301A2012AE030E00E94ED2630
:103D7000C8016AE972E00E945F2720E030E0C901D3
:103D8000DF91CF911F910F91FF90EF90DF90CF9037
:103D9000BF90AF909F908F907F906F905F904F906B
:103DA0000895EF92FF920F931F938C0183EA95E0A1
:103DB000F8019183808305531F4F81E090E0F80163
:103DC000918380830B5C10409CEDE92EF12CE00E7A
:103DD000F11EC7016AE048E020E00E945A0CC801C9
:103DE00088509F4FB7014AE050E00E949E211F91EA
:103DF0000F91FF90EF90089586E596E063E070E004
:103E00000E945420089588E596E063E070E00E94E7
:103E100054200895EF92FF920F931F938B017A0124
:103E20008AE596E06EE773E00E9458208AE596E006
:103E3000B8010E9458208AE596E062E973E00E948A
:103E400058208AE596E0B7010E94E4208CE596E0D0
:103E500068EE73E048EC50E025E933E00E943C1B3B
:103E600083508230B8F18CE596E063E673E00E94FF
:103E7000531A882369F48CE596E068E97AE348EC04
:103E800050E025E933E00E943C1B8350823010F162
:103E900068EB7BE080E090E00E9411228AE596E0EA
:103EA00068E973E00E9474208CE596E068E873E1AD
:103EB00048EC50E023EA33E00E943C1B8350823000
:103EC00048F060EA7FE080E090E00E94112221E06B
:103ED00030E002C020E030E0C9011F910F91FF9057
:103EE000EF900895EF92FF920F931F93CF93DF937C
:103EF000EB018A01790168E873E180E090E00E94BB
:103F000011228CE596E062E370E042E350E00E940B
:103F10002F1B8AE596E060EB73E00E9474208CE52D
:103F200096E068E873E142E350E029EB33E00E9459
:103F30003C1B823039F18AE596E06AE473E00E9426
:103F400074208CE596E068E873E142E350E029EBE9
:103F500033E00E943C1B60ED77E080E090E00E943F
:103F600011228AE596E06FEB73E00E9474208CE5E5
:103F700096E068E873E142E350E029EB33E00E9409
:103F80003C1B85C08AE596E06EEC73E00E947420CD
:103F90008CE596E064EF71E042E350E029ED33E018
:103FA0000E943C1B8350823008F474C068EE73E0BA
:103FB00080E090E00E9411228AE596E061EE73E0D5
:103FC0000E9458208AE596E0BE010E9466208AE59C
:103FD00096E06BEE73E00E9458208AE596E0B80107
:103FE0000E9466208AE596E06BEE73E00E945820FE
:103FF0008AE596E0B7010E9466208AE596E06FEEBA
:1040000073E00E9458208CE596E064EF71E042E393
:1040100050E025E933E00E943C1B83508230D0F110
:1040200068E873E180E090E00E9411228AE596E062
:1040300062EF73E00E9474208CE596E060E177E225
:1040400042E350E025E933E00E943C1B835082307C
:1040500008F168EE73E080E090E00E9411228AE5AA
:1040600096E060EB73E00E9474208CE596E068E8CF
:1040700073E142E350E029EB33E00E943C1B8230C5
:1040800049F083E090E0909328078093270721E090
:1040900030E002C020E030E0C901DF91CF911F91F4
:1040A0000F91FF90EF900895FC0171836083089554
:1040B000DC01ED91FC9111973697808191818A0FF7
:1040C0009B1F84529F4F0E945F270895DC01ED9152
:1040D000FC9111973697808191818A0F9B1F8452A2
:1040E0009F4F0E945F270895DC01ED91FC9111978D
:1040F0003697808191818A0F9B1F84529F4F0E9427
:1041000062270895DC01ED91FC911197369780812B
:1041100091818A0F9B1F84529F4F0E940E26089503
:10412000DC01ED91FC9111973697808191818A0F86
:104130009B1F84529F4F4AE050E00E942D27089514
:10414000DC01ED91FC9111973697808191818A0F66
:104150009B1F84529F4F0E9459260895FC01A08105
:10416000B18116978D919C918E0F9F1F84529F4F06
:104170000E94EA0A0895CF92DF92EF92FF921F9376
:10418000CF93DF936B017A01C0E0D0E011C08AE5E4
:1041900096E00E94AE20182F18164CF480EB97E0A2
:1041A000612F0E943126F601EC0FFD1F108321962E
:1041B000CE15DF0564F3CE01DF91CF911F91FF9003
:1041C000EF90DF90CF900895DC01ED91FC91119775
:1041D0003697808191818A0F9B1F84529F4F4AE0BE
:1041E00050E00E94402708950F931F93CF93DF93D1
:1041F0008C016AE37AE00E94A020D801ED91FC9145
:10420000369780819181800F911F68E873E144E6C1
:1042100050E022EE34E00E943C1BD801ED91FC916D
:10422000369780819181800F911F62EE74E00E9429
:10423000531A082F8EE596E06CE270E00E94FE06AD
:10424000EC0121961A82CE016CE270E00E94FE061B
:10425000FC01009709F010828881843329F0802FB7
:104260000023B9F081E015C089E061E00E944D2390
:1042700060EB74E080E090E00E94112289E060E051
:104280000E944D2360E177E280E090E00E941122DD
:1042900082E0DF91CF911F910F910895FC018BEA8D
:1042A00095E09183808383EA95E093838283CF01B5
:1042B00082529F4F0E94E10A08950F931F938C0131
:1042C00002960E94D11E8BEA95E0F80191838083CB
:1042D0000A96938382831F910F91089581309105EF
:1042E00071F46F5F7F4FA1F48FE597E063E070E0BA
:1042F0000E9454208AE596E00E945D210895892B52
:1043000039F46F5F7F4F21F48AE596E00E944E21D9
:10431000089580E090E06FEF7FEF0E946E21089596
:1043200081E090E06FEF7FEF0E946E21089581E6BB
:1043300097E063E070E00E94542008950F931F936C
:104340008C01CA01F80171836083AA2797FDA095AB
:10435000BA2FBC01CD0128EE33E040E050E00E94CE
:104360003F2CF801628373838483958381E0828785
:104370001F910F9108951F920F920FB60F92112463
:104380002F933F938F939F93AF93BF938091670732
:1043900090916807A0916907B0916A0730916B0707
:1043A0000196A11DB11D232F2D5F2D3720F02D5714
:1043B0000196A11DB11D20936B0780936707909311
:1043C0006807A0936907B0936A078091630790918B
:1043D0006407A0916507B09166070196A11DB11D04
:1043E0008093630790936407A0936507B093660773
:1043F000BF91AF919F918F913F912F910F900FBEE1
:104400000F901F9018958FB7F894209167073091FF
:1044100068074091690750916A078FBFB901CA01C7
:1044200008959B01AC017FB7F89480916307909148
:104430006407A0916507B091660766B5A89B05C0A3
:104440006F3F19F00196A11DB11D7FBFBA2FA92F93
:10445000982F8827860F911DA11DB11D62E0880F3E
:10446000991FAA1FBB1F6A95D1F7BC012DC0FFB7CA
:10447000F8948091630790916407A0916507B091CB
:104480006607E6B5A89B05C0EF3F19F00196A11D90
:10449000B11DFFBFBA2FA92F982F88278E0F911D0E
:1044A000A11DB11DE2E0880F991FAA1FBB1FEA954D
:1044B000D1F7861B970B885E9340C8F2215030409D
:1044C0004040504068517C4F211531054105510550
:1044D00071F60895789484B5826084BD84B5816056
:1044E00084BD85B5826085BD85B5816085BDEEE6FC
:1044F000F0E0808181608083E1E8F0E010828081DB
:1045000082608083808181608083E0E8F0E0808148
:1045100081608083E1E9F0E0808182608083808136
:1045200081608083E0E9F0E0808181608083E1EC5C
:10453000F0E08081846080838081826080838081DC
:1045400081608083E3ECF0E0808181608083E0EC37
:10455000F0E0808182608083E2ECF0E08081816025
:104560008083EAE7F0E080818460808380818260DC
:1045700080838081816080838081806880830895CA
:10458000CF93DF93482F50E0CA018557954FFC0128
:1045900034914359554FFA018491882369F190E091
:1045A000880F991FFC01ED5BF54FA591B491FC01BB
:1045B000EF5AF54FC591D491662351F42FB7F89473
:1045C0008C91932F909589238C93888189230BC09C
:1045D000623061F42FB7F8948C91932F90958923D2
:1045E0008C938881832B88832FBF06C09FB7F89454
:1045F0008C91832B8C939FBFDF91CF91089588304E
:1046000071F1893068F4823031F1833020F48130E7
:1046100009F042C01DC0833089F08430E9F512C032
:104620008B3059F18C3028F48930E9F08A30A1F5CB
:104630001EC08C3031F18E3079F529C08091800018
:104640008F7703C0809180008F7D809380000895D4
:1046500084B58F7702C084B58F7D84BD0895809125
:1046600090008F7707C0809190008F7D03C080916C
:104670009000877F8093900008958091C0008F778D
:1046800003C08091C0008F7D8093C0000895809109
:10469000C200877F8093C2000895FF920F931F93FB
:1046A000F62E482F50E0CA018755954FFC01249102
:1046B000CA018557954FFC0114914359554FFA0192
:1046C00004910023C9F0222319F0822F0E94FF22B7
:1046D000E02FF0E0EE0FFF1FEF5AF54FA591B491D8
:1046E0009FB7F894FF2021F48C911095812302C08C
:1046F0008C91812B8C939FBF1F910F91FF900895F8
:104700000F931F93CF93DF93BC018230910510F478
:1047100062E070E0E091D607F091D70740E050E00A
:10472000A0E0B0E024C08081918186179707D0F087
:104730008617970771F482819381109729F0139659
:104740009C938E9312972CC09093D7078093D60793
:1047500027C04115510519F08417950718F48D01EC
:10476000AC01EF01DF01828193819C01F901309757
:10477000D1F641155105F9F0CA01861B970B84301B
:10478000910580F48A819B810115110521F0F801C2
:104790009383828304C09093D7078093D607FE014A
:1047A000329645C0FE01E80FF91F6193719302979D
:1047B000998388833CC08091D4079091D507892B39
:1047C00041F480916D0590916E059093D50780938B
:1047D000D40740916F05509170054115510541F482
:1047E0004DB75EB780916B0590916C05481B590BD6
:1047F0002091D4073091D50724173507B0F4CA01AA
:10480000821B930B8617970780F0AB014E5F5F4FBB
:104810008417950750F0420F531F5093D5074093CC
:10482000D407F9016193719302C0E0E0F0E0CF0199
:10483000DF91CF911F910F910895CF93DF939C014A
:10484000009709F48FC0EC0122971B821A826091B5
:10485000D6077091D7076115710581F48881998118
:10486000820F931F2091D4073091D507281739075D
:1048700039F5D093D507C093D40774C0DB0140E06D
:1048800050E0AC17BD0708F1BB83AA83FE0121915C
:104890003191E20FF31FAE17BF0779F48D919C9110
:1048A0001197280F391F2E5F3F4F398328831296A7
:1048B0008D919C9113979B838A834115510571F4C7
:1048C000D093D707C093D6074DC012968D919C9177
:1048D0001397AD01009711F0DC01D3CFDA011396E5
:1048E000DC93CE931297FA0121913191E20FF31FDD
:1048F000CE17DF0769F488819981280F391F2E5F51
:104900003F4FFA01318320838A819B819383828385
:10491000E0E0F0E0DB0112968D919C9113970097F7
:1049200019F0BC01FD01F6CFAB014E5F5F4FDB011B
:104930008D919C91840F951F2091D4073091D507BC
:104940002817390779F4309729F41092D707109275
:10495000D60702C013821282425050405093D507AE
:104960004093D407DF91CF91089508952091AC072B
:104970003091AD078091AE079091AF07281B390B9E
:104980002F733070C90108952091AC073091AD07A5
:104990008091AE079091AF072817390719F42FEFD0
:1049A0003FEF09C0E091AE07F091AF07E459F84F2F
:1049B0008081282F30E0C90108952091AC07309103
:1049C000AD078091AE079091AF072817390719F40A
:1049D0002FEF3FEF13C0E091AE07F091AF07E4591E
:1049E000F84F20818091AE079091AF0701968F73A9
:1049F00090709093AF078093AE0730E0C90108959F
:104A00001092B3071092B20788EE93E0A0E0B0E0F6
:104A10008093B4079093B507A093B607B093B707F8
:104A20008BEB95E09093B1078093B00708950F93B7
:104A30001F93DF93CF930F92CDB7DEB78C016983BD
:104A400080917805882369F083E0BE016F5F7F4F16
:104A500041E050E00E9447281816190614F49C0102
:104A600007C081E090E0F8019383828320E030E08A
:104A7000C9010F90CF91DF911F910F91089583E0AD
:104A80000E941E280895CF93DF9312C082E00E94F7
:104A9000A9272FEF8F3F9207C9F0E091AC07F09163
:104AA000AD07E459F84F8083D093AD07C093AC07AE
:104AB000C091AC07D091AD072196CF73D070809193
:104AC000AE079091AF07C817D90701F7DF91CF91D3
:104AD0000895FC0180818E5F808380E863ED7AE039
:104AE00042E450E00E94C2270895FC018181908138
:104AF000913A59F4813209F04CC080E061E775E0E9
:104B000047E050E00E94C22742C0913209F041C004
:104B1000803239F481E795E067E070E00E94062872
:104B200036C0823209F035C0828180937805809149
:104B3000710590917205A0917305B0917405805B29
:104B40009440A040B04019F58091780580FD12C0D6
:104B500087E797E790930108809300082BE088E1AE
:104B600090E00FB6F894A895809360000FBE209354
:104B700060000DC088E10FB6F89480936000109239
:104B800060000FBEA895109201081092000881E005
:104B9000089580E00895CF93DF930E946A2286EC07
:104BA00097E00E9429280E946408C0E0D0E00E949B
:104BB00055082097E1F30E940000F9CF0E941D24C0
:104BC00008950E9480230895CF92DF92EF92FF9282
:104BD0000F931F93CF93DF937C016B018A01C0E099
:104BE000D0E00FC0D6016D916D01D701ED91FC9120
:104BF0000190F081E02DC7010995C80FD91F015020
:104C000010400115110571F7CE01DF91CF911F9171
:104C10000F91FF90EF90DF90CF900895EF92FF9269
:104C20000F931F93CF93DF937C018B01C0E0D0E003
:104C3000F8010F5F1F4F6491662359F0D701ED9182
:104C4000FC910190F081E02DC7010995C80FD91F93
:104C5000EFCFCE01DF91CF911F910F91FF90EF9099
:104C60000895DC01ED91FC910190F081E02D099512
:104C70000895EF92FF920F931F938C01DC01ED9149
:104C8000FC910190F081E02D6DE009957C01D80147
:104C9000ED91FC910190F081E02DC8016AE0099549
:104CA0009C012E0D3F1DC9011F910F91FF90EF90A8
:104CB0000895EF92FF920F931F937C010E940E269E
:104CC0008C01C7010E9439269C01200F311FC901A8
:104CD0001F910F91FF90EF900895CF93DF93EC0118
:104CE0006115710519F420E030E00FC0DB010D9073
:104CF0000020E9F71197A61BB70BE881F981028024
:104D0000F381E02DAD0109959C01C901DF91CF919F
:104D100008954F925F927F928F929F92AF92BF922F
:104D2000CF92DF92EF92FF920F931F93DF93CF9377
:104D3000CDB7DEB7A1970FB6F894DEBF0FBECDBFDB
:104D40002C01742ECB01223008F42AE019A231E2A2
:104D5000C32ED12CCC0EDD1E822E9924AA24BB2476
:104D6000672D752FA50194010E94712C79018A018C
:104D7000C801B701A50194010E943F2C472D461B95
:104D80000894C108D1084A3014F4405D01C0495C60
:104D9000F6014083E114F1040105110521F07E2C98
:104DA0005F2DC801DDCFC201B6010E946D26A1961C
:104DB0000FB6F894DEBF0FBECDBFCF91DF911F912C
:104DC0000F91FF90EF90DF90CF90BF90AF909F90AA
:104DD0008F907F905F904F900895CF92DF92EF92E7
:104DE000FF920F931F93CF93DF93EC016A017B0136
:104DF0002115310541F4E881F9810190F081E02D20
:104E0000642F09951FC02A303105D1F477FF17C0F0
:104E1000E881F9810190F081E02D6DE209958C0126
:104E200044275527BA014C195D096E097F09CE0147
:104E30002AE00E9489269801280F391F04C02AE021
:104E40000E9489269C01C901DF91CF911F910F918A
:104E5000FF90EF90DF90CF900895EF92FF920F9325
:104E60001F937B019A010027F7FC0095102FB801D2
:104E7000A7010E94ED261F910F91FF90EF900895DA
:104E8000CF92DF92EF92FF920F931F936C017B0101
:104E90009A010027F7FC0095102FB801A7010E9486
:104EA000ED268C01C6010E943926080F191FC80182
:104EB0001F910F91FF90EF90DF90CF9008950E9487
:104EC0006D260895EF92FF920F931F937C010E942D
:104ED0006D268C01C7010E943926080F191FC801D1
:104EE0001F910F91FF90EF900895282F8091C00798
:104EF0008823C1F057FF1AC015C028989093BF07A8
:104F00008091F1008193E217F307B9F7411551053C
:104F100039F08091F200882319F48BE68093E80041
:104F2000AFBF02C04FEF5FEFCA010895AFB7F8946B
:104F300027702093E9008091F200282F30E0241799
:104F400035070CF4A901FB019B01240F311D94E6E8
:104F5000DACFDF93CF930F92CDB7DEB7BE016F5F8D
:104F60007F4F41E050E00E947527019719F02FEF25
:104F70003FEF03C08981282F30E0C9010F90CF9106
:104F8000DF910895FF920F931F93F82E142F052F92
:104F90004091C3075091C407212F302FC901DC0174
:104FA000FB016EEF29C0F7FE02C0949101C0908111
:104FB0002091C1073091C20724173507ACF48091C6
:104FC000E8008570E1F38091E80082FF03C02FEFD5
:104FD0003FEF17C09093F100C90101968F73907055
:104FE000892B11F46093E8002F5F3F4F3093C20785
:104FF0002093C107119731961097A9F6812F902F12
:105000009C01C9011F910F91FF9008959C0180910F
:10501000E80082FFFCCFF901260F311D03C080910B
:10502000F1008193E217F307D1F7289884E6809383
:10503000BF078BEF8093E800CB0108958093E900D0
:105040008091F200882319F08AE38093E8000895A4
:1050500008951092C00781E08093D70080EA809382
:10506000D80082E189BD09B400FEFDCF61E070E0A7
:1050700080E090E00E94112280E98093D8008CE0CB
:105080008093E2001092E000559A209A08955F9272
:105090006F927F928F929F92AF92BF92CF92DF9248
:1050A000EF92FF920F931F93CF93DF93E82E842EFE
:1050B000752E8091C007882371F18B01242F352F25
:1050C000C901EC017AEFF72E67E0962E9E2050E49E
:1050D000552E8E2D90E040E2A42EB12CA822B922AC
:1050E0003AE3632E20E4C22ED12CC822D92258C024
:1050F0009FB7F8949092E9008091E80085FD02C086
:1051000020E004C08091F200252D281B9FBF2223A0
:1051100061F4FA9419F42FEF3FEF4DC061E070E0B5
:1051200080E090E00E9411223BC0822F90E0C817DF
:10513000D9070CF42C2FC21BD1094FB7F8949092C9
:10514000E900A114B10421F406C01092F10021502D
:105150002223D9F719C0E7FC03C0F801922F10C031
:10516000C801322F06C0FC010196E491E093F100E2
:1051700031503323C1F706C081918093F1009150E3
:105180009923D1F7020F111D8091E80085FF05C01A
:10519000209729F4C114D10411F06092E8004FBFA8
:1051A000209709F0A5CF5D9884E68093BE07282D4F
:1051B000372DC9019C01C901DF91CF911F910F913A
:1051C000FF90EF90DF90CF90BF90AF909F908F9027
:1051D0007F906F905F9008951F920F920FB60F927D
:1051E00011242F933F934F935F936F937F938F93EC
:1051F0009F93AF93BF93EF93FF938091E100109241
:10520000E100982F83FF0FC01092E90081E08093A6
:10521000EB001092EC0082E38093ED001092C00747
:1052200088E08093F00092FF34C083E08093E9002F
:105230008091F200882319F08AE38093E8008FB709
:10524000F89492E09093E9009091F2008FBF992337
:1052500021F080EB97E00E9443258091BE078823D0
:1052600051F08091BE0781508093BE078091BE07A8
:10527000882309F45D9A8091BF07882351F08091BB
:10528000BF0781508093BF078091BF07882309F42F
:10529000289AFF91EF91BF91AF919F918F917F914C
:1052A0006F915F914F913F912F910F900FBE0F9093
:1052B0001F9018950F931F93DF93CF930F92CDB745
:1052C000DEB719828E010F5F1F4FC8010E9469254A
:1052D000C8010E94332C898190E00F90CF91DF911B
:1052E0001F910F9108951F920F920FB60F921124E4
:1052F000EF92FF921F932F933F934F935F936F9380
:105300007F938F939F93AF93BF93EF93FF93DF931D
:10531000CF93CDB7DEB76197DEBFCDBF1092E90066
:105320008091E80083FF0FC1FE0131969E01275F47
:105330003F4F03C08091F1008193E217F307D1F74B
:10534000289884E68093BF0782EF8093E8009981D4
:1053500097FF05C08091E80080FFFCCF03C08EEF6F
:105360008093E800292F30E0C90180769070892B66
:1053700009F0C2C08A81882329F41092F1001092AA
:10538000F100D6C0813009F4D3C0833009F4D0C015
:10539000853049F48091E80080FFFCCF8B818068E4
:1053A0008093E300C5C0863009F07CC01C81EF808B
:1053B000F8841230C1F51092E9001092C2071092E1
:1053C000C1071092C4071092C3070E945A2999E09E
:1053D000FE013996DF01292F1D922A95E9F7998759
:1053E0001A8791E09E8790E8988B9AEF998B20918D
:1053F000C1073091C207275F3F4F3C872B878D87BE
:105400001092E9001092C2071092C107F092C407EF
:10541000E092C30780E0BF0149E050E00E94C2274C
:105420000E945A2985C01092E9001092C20710927A
:10543000C107F092C407E092C307123241F482E23E
:1054400090E00E942B2C892B09F476C071C011309A
:1054500079F488E0E816F10419F481E08093C50737
:105460008091C507882309F06BC0E3E5FBE013C01A
:10547000133009F061C08B81882319F4E5E1FBE06A
:105480000AC0823019F4E9E1FBE005C0813009F07F
:1054900053C0EBE3FBE0449180E8BF0150E00E9481
:1054A000C22746C0873009F447C0883021F481E024
:1054B0008093F1003DC08930D9F523703070232BE3
:1054C000D9F5E8E7FBE091E031E026E39093E900CD
:1054D0003093EB0084918093EC002093ED009F5F6C
:1054E0003196953099F78EE78093EA001092EA00A2
:1054F0008B818093C0071CC08F8198851092E90032
:105500001092C2071092C1079093C4078093C307FB
:105510008D81882329F4CE0101960E94752506C04D
:10552000823051F4CE0101960E94FC2A882321F09A
:105530008EEF8093E80007C081E28093EB0003C008
:10554000E5E6FBE0A8CF6196DEBFCDBFCF91DF914E
:10555000FF91EF91BF91AF919F918F917F916F914B
:105560005F914F913F912F911F91FF90EF900F907E
:105570000FBE0F901F901895EF92FF920F931F93FD
:105580007B018C01611571058105910529F420E0ED
:1055900030E040E050E00BC00E94C706A801970130
:1055A0000E94932CAC01CB01DA019C01AD01B90141
:1055B000CA011F910F91FF90EF900895EF92FF9213
:1055C0000F931F937B018C01621773078407950764
:1055D00064F4261B370B480B590BCA01B9010E9412
:1055E000BC2AE60EF71E081F191FB701C8011F913C
:1055F0000F91FF90EF900895FC0191818081813A95
:1056000031F4913089F080E0933089F40DC081321B
:1056100069F49B3021F482818093790505C09A302A
:1056200029F4828180937A0581E0089580E00895CD
:10563000EF92FF920F931F938C01E62EDC01ED9108
:10564000FC910480F581E02D0995F82ED801ED91AB
:10565000FC910680F781E02DC8016E2D09958F2DF4
:1056600090E01F910F91FF90EF9008951092C7075F
:105670001092CB071092CA078DEC95E09093C90762
:105680008093C8070895EF92FF920F931F93DF93C3
:10569000CF930F92CDB7DEB789838B017A0184E077
:1056A000BE016F5F7F4F41E050E00E94472884E4D5
:1056B000B801A7010E9447280F90CF91DF911F9159
:1056C0000F91FF90EF90089582E048E050E00E9433
:1056D000432B0895FC0116821782108611861286CC
:1056E000138614823496BF010E94642B0895DC0156
:1056F000683810F0685829C0E62FF0E067FF13C043
:10570000E058F04081E090E002C0880F991FEA95D0
:10571000E2F7809514962C911497282314962C93D5
:10572000149760E012C0E650F44F6491662319F4B8
:1057300020E030E01DC067FF08C014968C911497DC
:105740008D7F14968C9314976F77FD0190E06623FC
:1057500021F08681861709F416829F5F3196963074
:10576000B1F7CD011496BD010E94642B21E030E019
:10577000C9010895CF93DF93DC01683810F06858B1
:1057800025C0E62FF0E067FF12C0E058F04081E04E
:1057900090E002C0880F991FEA95E2F714962C91C9
:1057A0001497282B14962C93149760E00FC0E650A2
:1057B000F44F64916623D9F167FF08C014968C9169
:1057C0001497826014968C9314976F7716968C9129
:1057D00016978617A9F117968C911797861781F15E
:1057E00018968C911897861759F119968C911997DC
:1057F000861731F11A968C911A97861709F11B9624
:105800008C911B978617E1F0ED01E0E0F0E09E2F10
:105810008E81882321F4EA0FFB1F668306C09F5FF9
:1058200031962196E630F10591F7963049F481E002
:1058300090E013969C938E93129720E030E007C07F
:10584000CD011496BD010E94642B21E030E0C90116
:10585000DF91CF91089580E86CE77BE045E650E06A
:105860000E94C2270895FC0180818F5F808380E8B9
:1058700061EE7BE049E150E00E94C2270895629FFB
:10588000D001739FF001829FE00DF11D649FE00D38
:10589000F11D929FF00D839FF00D749FF00D659F99
:1058A000F00D9927729FB00DE11DF91F639FB00D98
:1058B000E11DF91FBD01CF011124089597FB092EA9
:1058C00007260AD077FD04D049D006D000201AF46C
:1058D000709561957F4F0895F6F7909581959F4F4C
:1058E0000895A1E21A2EAA1BBB1BFD010DC0AA1F21
:1058F000BB1FEE1FFF1FA217B307E407F50720F039
:10590000A21BB30BE40BF50B661F771F881F991FB3
:105910001A9469F760957095809590959B01AC01FC
:10592000BD01CF01089597FB092E05260ED057FD26
:1059300004D0D7DF0AD0001C38F45095409530953C
:1059400021953F4F4F4F5F4F0895F6F79095809503
:10595000709561957F4F8F4F9F4F0895AA1BBB1B7A
:1059600051E107C0AA1FBB1FA617B70710F0A61B5F
:10597000B70B881F991F5A95A9F780959095BC0180
:10598000CD010895EE0FFF1F0590F491E02D0994CD
:105990002F923F924F925F926F927F928F929F923F
:1059A000AF92BF92CF92DF92EF92FF920F931F932D
:1059B000CF93DF93CDB7DEB7CA1BDB0B0FB6F894DE
:1059C000DEBF0FBECDBF09942A88398848885F841E
:1059D0006E847D848C849B84AA84B984C884DF808F
:1059E000EE80FD800C811B81AA81B981CE0FD11D73
:1059F0000FB6F894DEBF0FBECDBFED0108951CE0D9
:105A0000C0E9DCE004C0FE010E94C42C2296C43927
:085A1000D107C9F7F894FFCF9C
:105A180074656C69612E63756D756C6F63697479F3
:105A28002E636F6D0074656C6961007072696974CA
:105A38002E6B616C6C61734074656C69612E656571
:105A48000070757267697375707000646576696354
:105A5800656D616E6167656D656E7400636F6D5F1E
:105A680063756D756C6F636974795F6576656E745F
:105A7800735F54616D7065724576656E740041435D
:105A880054495645004D494E4F5200323031362D5B
:105A980030342D30365430393A33373A32312E39A2
:105AA80036365A0054616D7065722073656E736F77
:105AB800722074726967676572656400272E2E20EC
:105AC800004C69676874006338795F4C696768746B
