:100000000C94C0060C94E8060C94E8060C94E806E0
:100010000C94E8060C94E8060C94E8060C94E806A8
:100020000C94E8060C949A0C0C94342E0C94BB2E71
:100030000C94E8060C94E8060C94E8060C94E80688
:100040000C94E8060C94E8060C94E8060C94E80678
:100050000C94E8060C94E8060C94E8060C9403272C
:100060000C94E8060C94E8060C94E8060C94E80658
:100070000C94E8060C94E8060C94E8060C94E80648
:100080000C94E8060C94E8060C94E8060C94E80638
:100090000C94E8060C94E8060C94E8060C94E80628
:1000A0000C94E8060C94E8060C94E806646F6E6500
:1000B00021006661696C65640052616973696E67ED
:1000C00020616C61726D2E2E2000646F6E6520774A
:1000D00069746820726573756C743A200053656E9C
:1000E00064696E67206D6561737572656D656E74A8
:1000F0002027006661696C656420746F20617474E8
:10010000616368204750525300737563636573736E
:1001100066756C6C79207265676973746572656465
:1001200020776974682069643A2000676F742072D0
:100130006567697374726174696F6E206572726F3E
:10014000723A2000272E2E2000526567697374656D
:1001500072696E6720646576696365202700646F45
:100160006E652100417474616368696E6720475051
:1001700052532E2E2000646F6E65210053657474F7
:10018000696E672075702047534D206D6F64756CE4
:10019000652E2E200000C201000100110011000C8C
:1001A0000000E100000A0025002500210000960063
:1001B000001900390039003600127A00001F00468D
:1001C00000460044008070000022004D004D004AAF
:1001D00000004B00003600750075007200403800CA
:1001E000004A009C009C009900802500007200ECF1
:1001F00000EC00E900C0120000E900DA01DA01D7E2
:100200000160090000D701B603B603B303B00400D0
:1002100000B3036E076E076B07580200006E07DC21
:100220000EDC0ED80E2C010000DC0EC11DC11DBE5F
:100230001D2F6964656E74697479002F6964656E39
:10024000746974790020485454502F312E310A4873
:100250006F73743A20002F002F64657669636563BD
:100260006F6E74726F6C2F6F7065726174696F6EF0
:1002700073005055542000227D007B2273746174FA
:100280007573223A22005570646174696E67206F3D
:100290007065726174696F6E200053554343455316
:1002A0005346554C0020485454502F312E310A48A3
:1002B0006F73743A2000267374617475733D5045F2
:1002C0004E44494E47003F7061676553697A653D0A
:1002D000312664657669636549643D002F646576FF
:1002E000696365636F6E74726F6C2F6F7065726196
:1002F00074696F6E73004745542000204854545071
:100300002F312E310A486F73743A200026737461BE
:100310007475733D50454E44494E47003F706167C8
:100320006553697A653D312664657669636549641C
:100330003D002F646576696365636F6E74726F6CE0
:100340002F6F7065726174696F6E7300474554203A
:1003500000536176696E6720696E20454550524FA3
:100360004D3A0044657669636520696420696E20B2
:10037000454550524F4D3A00227D7D7D002C22751F
:100380006E6974223A2200223A7B2276616C75658E
:10039000223A00223A7B2200222C227479706522B4
:1003A0003A2200227D2C2274696D65223A22007B5C
:1003B00022736F75726365223A7B226964223A2246
:1003C000002F6D6561737572656D656E742F6D6557
:1003D00061737572656D656E747300227D00222CE9
:1003E0002274657874223A2200222C2274696D6589
:1003F000223A2200222C2273657665726974792272
:100400003A2200222C22737461747573223A2200FE
:10041000227D2C2274797065223A22007B22736F30
:1004200075726365223A7B226964223A22002F6149
:100430006C61726D2F616C61726D73002048545451
:10044000502F312E310A486F73743A20002F002F3D
:10045000696E76656E746F72792F6D616E61676516
:10046000644F626A656374730047455420007D00E1
:100470002C226338795F537570706F727465644DA8
:100480006561737572656D656E7473223A002C2216
:100490006338795F537570706F727465644F7065FF
:1004A000726174696F6E73223A002C226338795F2F
:1004B0004973446576696365223A7B7D00222C226C
:1004C000636F6D5F63756D756C6F636974795F6D74
:1004D0006F64656C5F4167656E74223A7B7D0022B4
:1004E0002C2274797065223A22007B226E616D6540
:1004F000223A22002F696E76656E746F72792F6DC5
:10050000616E616765644F626A6563747300504F22
:10051000535400504F535400504F535400474554C8
:100520000047455400474554004874747052657143
:10053000756573743A3A657865637574652073758B
:10054000636365737366756C207769746820636F85
:1005500064653A200052582046494E495348454464
:1005600020535452004874747052657175657374E9
:100570003A3A6578656375746520676F74207469AD
:100580006D656F7574000A0A004874747052657165
:10059000756573743A3A65786563757465416E6420
:1005A00057616974466F72526573706F6E73652020
:1005B000657865637574696E67000A0A000A436F9F
:1005C0006E74656E742D4C656E6774683A20002BEE
:1005D0006A736F6E3B7665723D302E393B6368619E
:1005E000727365743D5554462D38006F70657261A5
:1005F00074696F6E436F6C6C656374696F6E0061D4
:1006000070706C69636174696F6E2F766E642E63AF
:100610006F6D2E6E736E2E63756D756C6F6369747E
:10062000792E000A4163636570743A20002B6A7367
:100630006F6E3B7665723D302E393B636861727335
:1006400065743D5554462D38006D616E6167656473
:100650004F626A656374006170706C69636174698C
:100660006F6E2F766E642E636F6D2E6E736E2E63BB
:10067000756D756C6F636974792E000A41636365EB
:1006800070743A20002B6A736F6E3B7665723D3052
:100690002E393B636861727365743D5554462D383D
:1006A000006F7065726174696F6E006170706C6963
:1006B000636174696F6E2F766E642E636F6D2E6E3C
:1006C000736E2E63756D756C6F636974792E000A95
:1006D000436F6E74656E742D547970653A20002BEB
:1006E0006A736F6E3B7665723D302E393B6368618D
:1006F000727365743D5554462D3800616C61726D9E
:10070000006170706C69636174696F6E2F766E64DE
:100710002E636F6D2E6E736E2E63756D756C6F63C9
:100720006974792E000A436F6E74656E742D547966
:1007300070653A20002B6A736F6E3B7665723D30B0
:100740002E393B636861727365743D5554462D388C
:10075000006D616E616765644F626A6563745265BE
:10076000666572656E6365006170706C6963617463
:10077000696F6E2F766E642E636F6D2E6E736E2EA4
:1007800063756D756C6F636974792E000A436F6EC3
:1007900074656E742D547970653A20002B6A736FFE
:1007A0006E3B7665723D302E393B636861727365CE
:1007B000743D5554462D38006D616E616765644F18
:1007C000626A656374006170706C69636174696FFB
:1007D0006E2F766E642E636F6D2E6E736E2E637544
:1007E0006D756C6F636974792E000A436F6E746562
:1007F0006E742D547970653A20002B6A736F6E3BCE
:100800007665723D302E393B636861727365743D65
:100810005554462D38006D6561737572656D656E52
:1008200074006170706C69636174696F6E2F766EAD
:10083000642E636F6D2E6E736E2E63756D756C6FA7
:10084000636974792E000A436F6E74656E742D545B
:100850007970653A20000A582D43756D756C6F6389
:100860006974792D4170706C69636174696F6E2D64
:100870004B65793A20000A417574686F72697A6134
:1008800074696F6E3A20426173696320002061745D
:1008900074656D7074730048747470526571756519
:1008A00073743A3A636F6E6E65637420636F6E6E35
:1008B000656374696E67206661696C656420616652
:1008C0007465722000487474705265717565737434
:1008D0003A3A636F6E6E65637420417474656D702F
:1008E0007420746F20636F6E6E6563742023002024
:1008F000485454502F312E310A486F73743A2000F7
:10090000200020485454502F312E310A486F737400
:100910003A200020004F564552464C4F5700646F16
:100920006E652C20676F743A2000487474705265AD
:1009300073706F6E73653A3A72656164486561649D
:1009400065722072656164696E67206874747020D6
:10095000636F64652E2E2000487474705265737046
:100960006F6E73653A3A7265616448656164657279
:100970002072656164696E6720646174652E2E2043
:100980000048747470526573706F6E73653A3A669E
:10099000696E6973682077616974696E6720666F34
:1009A0007220726573706F6E73652E2E2000415435
:1009B0002B434950434C4F53450041542B4349501E
:1009C000534855540041542B435042533D22534DFC
:1009D000220041542B434D47463D310041542B43A7
:1009E0004D45453D300041542B434C49503D31006D
:1009F00041542B4950523D0041542B4950523D0027
:100A000041542B4950523D393630300D0041542B62
:100A10004950523D393630300D0041542B49505227
:100A20003D393630300D0041542B4950523D393656
:100A300030300D0041542B4950523D393630300D85
:100A40000041542B4950523D393630300D0041544D
:100A50002B4950523D393630300D0041542B49500E
:100A6000523D393630300D0041542B4950523D39FA
:100A70003630300D000D0041542B435042573D009D
:100A8000220D002C220041542B435042573D00417F
:100A9000542B435042523D0041542B435245473F53
:100AA0000041542B47534E0041542B51434349447A
:100AB0000041542B5149444E5349503D0041542B61
:100AC0004350494E3D0041542B434D47443D004166
:100AD000542B434D474C3D2252454320554E5245E1
:100AE0004144222C310041542B51454E473D312C7D
:100AF000300041542B51454E473F0041542B514546
:100B00004E473D312C300041542B434C49503D3130
:100B10000041542B434D47463D310041542B434740
:100B20005245473F0041542B435245473F00000088
:100B30000000240027002A002D00300000000000E3
:100B4000250028002B002E003100000000002300AB
:100B5000260029002C002F000404040404030405CB
:100B6000020202020403020202020606060606064A
:100B70000404020202040408020110408040102014
:100B80004080408008020401804020100201108053
:100B9000102040400000000200080E000003040185
:100BA000000B00000000000000000000000000003A
:100BB0000000070605040100080A0B0C0D09080BCC
:100BC0000002020201000904000001020200000507
:100BD0002400100105240101010424020605240655
:100BE00000010705810310004009040100020A000A
:100BF00000000705020240000007058302400000D4
:100C000004030904220341007200640075006900B6
:100C10006E006F0020004C0065006F006E006100E8
:100C2000720064006F0018034100720064007500D8
:100C300069006E006F0020004C004C004300120160
:100C40000002000000404123368000010102000143
:100C5000120100020200004041233680000101021F
:100C6000000100C18081C105010902A1010901A1A2
:100C70000085010509190129031500250195037552
:100C800001810295017505810305010930093109CA
:100C9000381581257F750895038106C0C0050109B7
:100CA00006A1018502050719E029E7150025017550
:100CB000019508810295017508810395067508154F
:100CC0000025650507190029658100C00904020097
:100CD0000103000000092101010001226500070550
:100CE000840340000100000000000000002A2B28BF
:100CF00000000000000000000000000000000000F4
:100D000000000000002C9EB4A0A1A2A434A6A7A5B8
:100D1000AE362D3738271E1F20212223242526B347
:100D200033B62EB7B89F8485868788898A8B8C8D49
:100D30008E8F909192939495969798999A9B9C9D5B
:100D40002F3130A3AD350405060708090A0B0C0D39
:100D50000E0F101112131415161718191A1B1C1D3B
:100D6000AFB1B0B50000CC0A6E0F0F11311F442493
:100D70004B24D826DF26482A702D7E30C50AD1267E
:100D800011241FBECFEFDAE0DEBFCDBF16E0A0E03A
:100D9000B1E0E8EAF4E602C005900D92A431B10793
:100DA000D9F718E0A4E1B6E001C01D92A431B10763
:100DB000E1F71DE0CCE7DDE004C02297FE010E94D0
:100DC0000C32C636D107C9F70E94132B0C94473258
:100DD0000C940000A0E0B0E0E0EFF6E00C941832D4
:100DE000EC01A880B980CA80DB80A114B104C104E1
:100DF000D10441F484E2A82E89EDB82E8BE5C82EEB
:100E000087E0D82EC601B5012DE133EF41E050E077
:100E10000E94DB3127EA31E440E050E00E94873154
:100E20007B018C01C601B5012DE133EF41E050E0BB
:100E30000E94DB31CA01B9012CEE34EF4FEF5FEFB6
:100E40000E9487316E0D7F1D801F911F97FF04C088
:100E50006150704080409048688379838A839B8387
:100E60009B01AC015F77B901CA01CDB7DEB7EAE0FB
:100E70000C9434320E94EA06089582EA95E00E94BA
:100E8000EA0608956093A2057093A3058093A405D4
:100E90009093A5050895FC0188279927E89421914E
:100EA0002032E9F3293010F02E30C8F32B3241F014
:100EB0002D3239F4689404C00E94DD07820F911D21
:100EC000219120532A30C0F31EF4909581959F4FB5
:100ED0000895FB01DC010D900020E9F711970190C6
:100EE0000D920020E1F70895FC018191861721F011
:100EF0008823D9F7992708953197CF010895FB01E9
:100F0000DC018D91019080190110D9F3990B08959E
:100F1000FB01DC0101900D920020E1F70895FB0137
:100F200051915523A9F0BF01DC014D9145174111A5
:100F3000E1F759F4CD010190002049F04D914015A1
:100F40004111C9F3FB014111EFCF81E090E001971E
:100F50000895FA01CF93FF93EF93223044F12532A5
:100F600034F5C22FE894CA3049F497FB3EF49095CB
:100F70008095709561957F4F8F4F9F4F2C2F332712
:100F800044275527FF93EF930E94B931EF91FF91CA
:100F9000605D6A330CF0695D6193B901CA0160500C
:100FA00070408040904051F716F4CDE2C19310821A
:100FB0008F919F91CF910C94FC097AE0979F902D8F
:100FC000879F802D910D11240895AEE0B0E0EBEEE7
:100FD000F7E00C941E320D891E8986E08C831A83FB
:100FE00009838FEF9FE79E838D839E01275E3F4F8E
:100FF000CE0101966F89788DA9010E9409082F8181
:101000003885020F131FF80110822E96E4E00C942D
:101010003A32ABE0B0E0EFE0F8E00C9410323C0183
:101020002B015A01FC0117821682838181FD03C0C6
:101030006FEF7FEFC6C19AE0892E1E010894211C34
:10104000311CF3012381F20123FD859123FF81915E
:101050002F01882309F4B2C1853239F423FD85912B
:1010600023FF81912F01853229F490E0B3010E9482
:101070000C0AE7CF982FFF24EE249924FFE1FF15F7
:10108000D0F09B3269F09C3228F4903259F09332C0
:1010900091F40EC09D3249F0903369F441E024C0D0
:1010A00052E0F52A84E0F82A28C098E0F92A25C001
:1010B000E0E1FE2A22C0F7FC29C0892F80538A3044
:1010C00070F4F6FE05C0989C902C1124980E15C063
:1010D000E89CE02C1124E80EF0E2FF2A0EC09E32BC
:1010E00029F4F6FC6BC140E4F42A07C09C3619F4DD
:1010F00050E8F52A02C0983649F4F20123FD959193
:1011000023FF91912F01992309F0B8CF892F85549E
:10111000833018F08052833038F444E050E0A40E5D
:10112000B51E5FE359830FC0933631F0933779F0E2
:10113000933509F056C020C0F5018081898342E0D3
:1011400050E0A40EB51E610101E010E012C0F501EF
:10115000C080D180F6FC03C06FEF7FEF02C0692D25
:1011600070E042E050E0A40EB51EC6010E94F109F5
:101170008C015FE7F52214C0F501C080D180F6FC38
:1011800003C06FEF7FEF02C0692D70E042E050E0D6
:10119000A40EB51EC6010E94E6098C0150E8F52A8E
:1011A000F3FE07C01AC080E290E0B3010E940C0A6F
:1011B000EA948E2D90E008171907A8F30EC0F601E7
:1011C000F7FC8591F7FE81916F0190E0B3010E94D9
:1011D0000C0AE110EA94015010400115110579F74D
:1011E000EAC0943611F0993669F5F7FE08C0F501AA
:1011F000208131814281538184E090E00AC0F50171
:10120000808191819C01442737FD4095542F82E0D5
:1012100090E0A80EB91E9FE6F92257FF09C050952D
:101220004095309521953F4F4F4F5F4FE0E8FE2AA4
:10123000CA01B901A1012AE030E00E94380AD82E83
:10124000D21840C0953729F41F2D1F7E2AE030E0C8
:101250001DC01F2D197F9F3661F0903720F49835FF
:1012600009F0ACC00FC0903739F0983709F0A6C02C
:1012700004C028E030E00AC0106114FD146020E1D1
:1012800030E004C014FD166020E132E017FF08C012
:10129000F501608171818281938144E050E008C052
:1012A000F50180819181BC0180E090E042E050E056
:1012B000A40EB51EA1010E94380AD82ED2188FE7BD
:1012C000F82EF122F6FE0BC05EEFF522D91438F4A9
:1012D000F4FE07C0F2FC05C08FEEF82202C01D2DFF
:1012E00001C0192DF4FE0DC0FE01ED0DF11D808130
:1012F000803319F499EEF92208C01F5FF2FE05C091
:1013000003C08F2D867809F01F5F0F2DF3FC14C0EA
:10131000F0FE0FC01E1510F09D2C0BC09D2C9E0CD6
:10132000911A1E2D06C080E290E0B3010E940C0AC3
:101330001F5F1E15C0F304C01E1510F4E11A01C092
:10134000EE2404FF0FC080E390E0B3010E940C0A7A
:1013500002FF1DC001FD03C088E790E00EC088E5D4
:1013600090E00BC0802F867891F001FF02C08BE2E5
:1013700001C080E2F7FC8DE290E0B3010E940C0A0C
:1013800006C080E390E0B3010E940C0A9A94D9143D
:10139000C0F3DA94F101ED0DF11D808190E0B3010D
:1013A0000E940C0ADD20A9F706C080E290E0B3019C
:1013B0000E940C0AEA94EE20C1F743CEF301668145
:1013C0007781CB012B96E2E10C942C32FC01059045
:1013D000615070400110D8F7809590958E0F9F1F37
:1013E0000895FC016150704001900110D8F780957C
:1013F00090958E0F9F1F0895DC01FC01672F71915E
:101400007723E1F7329704C07C916D9370836291EA
:10141000AE17BF07C8F308950F931F93CF93DF93C1
:101420008C01EB018B8181FF1BC082FF0DC02E81DF
:101430003F818C819D812817390764F4E881F98107
:101440000193F983E88306C0E885F985802F099523
:10145000892B31F48E819F8101969F838E8302C0F8
:101460000FEF1FEFC801DF91CF911F910F910895EA
:10147000FA01AA27283051F1203181F1E8946F93C5
:101480006E7F6E5F7F4F8F4F9F4FAF4FB1E03ED06B
:10149000B4E03CD0670F781F891F9A1FA11D680F09
:1014A000791F8A1F911DA11D6A0F711D811D911D3C
:1014B000A11D20D009F468943F912AE0269F1124B1
:1014C0003019305D3193DEF6CF010895462F477015
:1014D000405D4193B3E00FD0C9F7F6CF462F4F7070
:1014E000405D4A3318F0495D31FD4052419302D0CE
:1014F000A9F7EACFB4E0A695979587957795679574
:10150000BA95C9F700976105710508959B01AC0173
:101510000A2E06945795479537952795BA95C9F79A
:10152000620F731F841F951FA01D0895EF92FF92F5
:101530000F931F9381309105D1F46F5F7F4F01F5B9
:1015400086E496E063E070E00E949C2584E196E0EA
:1015500060E071E045E151E02BE131E001E311E0B1
:10156000EBE3EE2EE1E0FE2E0E94C80F09C0892BAE
:1015700039F46F5F7F4F21F484E196E00E94E40F1D
:101580001F910F91FF90EF90089580E090E06FEF32
:101590007FEF0E94960A089581E090E06FEF7FEF61
:1015A0000E94960A08958F929F92AF92BF92CF9217
:1015B000DF92EF92FF920F931F93DF93CF9300D0B0
:1015C00000D0CDB7DEB760E070E080E090E025E6C7
:1015D00030E040E050E00E9426305B016C017B016E
:1015E000ACEE8A2EA7E09A2EC4016DED70E00E9449
:1015F000562BC401B5014AE050E00E94752CC4018D
:1016000063E971E00E94AA2C0027F7FC0095102FD7
:10161000E982FA820B831C8384E196E068E971E039
:101620004EE951E023EB31E08E010F5F1F4FF5EBE8
:10163000EF2EF1E0FF2E0E947B1D8C01C4016AECAD
:1016400070E00E94562BC401B8014AE050E00E94AD
:10165000752CC4010E94812B0F900F900F900F905A
:10166000CF91DF911F910F91FF90EF90DF90CF907E
:10167000BF90AF909F908F900895809145068823EA
:1016800041F00E94D30A60E67AEE80E090E00E948A
:10169000592708958F929F92AF92BF92CF92DF9277
:1016A000EF92FF920F931F93DF93CF93CDB7DEB7E7
:1016B0002E970FB6F894DEBF0FBECDBF8DE061E070
:1016C0000E9408288DE060E00E94952860E177E2A2
:1016D00080E090E00E9459278DE061E00E9495280B
:1016E0008CEE97E060E07BE40E94FD298CEE97E0B1
:1016F0006CE771E00E94562B83E090E00E94292B5A
:10170000182F092F0E941A1F1093430600934406B6
:101710008CEE97E066E771E00E94A12B8CEE97E0DB
:1017200064E671E00E94562B809143069091440636
:1017300069EB71E048EB51E09A010E94161F892B7A
:1017400009F475C08CEE97E06EE571E00E94A12B64
:10175000609143067091440684E196E00E942D104A
:1017600089EC91E09C838B8383ED91E09E838D8354
:101770008EE991E09A8389838CEE97E069E471E0C9
:101780000E94562B6091A6057091A7058CEE97E0FC
:101790000E94A72C8CEE97E064E471E00E94562B27
:1017A0006091A6057091A705F7E08F2E912C8C0E05
:1017B0009D1E84E196E0A40128E030E08E010D5FDB
:1017C0001F4FE2E0EE2EF12C6E010894C11CD11CDB
:1017D000B1E0AB2EB12C0E94661E8C0197FF12C0A7
:1017E0008CEE97E06BE271E00E94562B8CEE97E056
:1017F000B8014AE050E00E94752C8CEE97E00E9400
:10180000812B0EC08CEE97E069E071E00E94562BB0
:101810008CEE97E0B4010E94AA2C81E080934506EB
:1018200068EE73E080E090E00E94592706C08CEEDD
:1018300097E063EF70E00E94A12B2E960FB6F8940C
:10184000DEBF0FBECDBFCF91DF911F910F91FF90F3
:10185000EF90DF90CF90BF90AF909F908F900895C2
:101860000F931F93CF93DF93FC01738D7695717067
:10187000A685B7859585772329F08C91892309F46E
:1018800054C004C08C91892309F04FC08389948986
:1018900020E001972FEF8F3F9207D9F7C589D689AE
:1018A000A685B785158560E031E040E050E000E0B6
:1018B000CE01202F01972FEF8F3F9207D9F78C9100
:1018C000812311F0632B03C0832F80956823330F8E
:1018D0004F5F5F4F4830510559F78789908D20E061
:1018E00001972FEF8F3F9207D9F771116095809183
:1018F0008A0620918B0690E001968F73907030E0FD
:101900008217930779F0E0918A06F0E0E65BF94FE1
:10191000608380918A0690E001968F739070809327
:101920008A0603C0838D8160838FDF91CF911F91E1
:101930000F9108951F920F920FB60F9211242F93BB
:101940003F934F935F936F937F938F939F93AF9347
:10195000BF93EF93FF9380914806909149060097BB
:1019600011F00E94300CFF91EF91BF91AF919F91C8
:101970008F917F916F915F914F913F912F910F9038
:101980000FBE0F901F901895CF92DF92EF92FF92AB
:101990000F931F93CF93DF93EC017A018B011A8E83
:1019A000198E188E1F8A1E8A1D8A1C8A1B8A20E0A7
:1019B00030E06901CC0CDD1CC20ED31EB601660FEF
:1019C000771F660F771FAB014B565E4FFA0185916B
:1019D0009591A591B4918E159F05A007B107E9F4E3
:1019E000FB01E756FE4F859194919C8B8B8BFB01FD
:1019F000E556FE4F859194919E8B8D8BFB01E356AE
:101A0000FE4F85919491988F8F8BFB01E156FE4F8D
:101A1000859194919A8F898F06C02F5F3F4F2D300B
:101A2000310509F0C6CF8F89988D892B09F457C0ED
:101A30009C85892F8850843038F08650843020F07F
:101A40009A51933008F043C0809168008160809380
:101A500068002C85922F9850943090F0822F8E50F1
:101A6000843070F08C50833008F451C0A0E0B0E0B6
:101A7000833018F0E0E0F0E007C0EBE6F0E004C0EF
:101A8000EBE6F0E0ABE6B0E04081943020F430E0EB
:101A90002450304013C02E3011F488E016C02F308F
:101AA00011F482E012C0203111F484E00EC0213123
:101AB00011F481E00AC030E02651304081E090E02E
:101AC00002C0880F991F2A95E2F7842B8C93898D89
:101AD0009A8D20E001972FEF8F3F9207D9F78091E1
:101AE0004806909149068C179D07A1F08B8D8E7F3B
:101AF0008B8F9FB7F89410928A0680918A06809304
:101B00008B06D0934906C09348069FBF03C0ABE63F
:101B1000B0E0AECFDF91CF911F910F91FF90EF908A
:101B2000DF90CF900895FC012485922F9850943037
:101B300038F0822F8E50843018F08C50833030F57E
:101B400040916B00943020F430E02450304013C0BA
:101B50002E3011F487EF17C02F3011F48DEF13C022
:101B6000203111F48BEF0FC0213111F48EEF0BC037
:101B700030E02651304081E090E002C0880F991F8C
:101B80002A95E2F78095842380936B000895FC01E9
:101B90008CEB95E091838083CF010E94930D089593
:101BA00020914806309149062817390731F4909161
:101BB0008B0680918A06981719F42FEF3FEF0FC01C
:101BC000E0918B06F0E0E65BF94F208180918B0677
:101BD00090E001968F73907080938B0630E0C9017E
:101BE000089520914806309149062817390719F0C1
:101BF00020E030E00EC080918A0620918B0690E0B4
:101C0000805C9F4F821B910960E470E00E94A631C6
:101C10009C01C90108950F931F93DC0159968D9182
:101C20009C915A97892B49F481E090E013969C93FC
:101C30008E93129720E030E097C00FB7F8945B9630
:101C40008C915B975196ED91FC91529750962C9107
:101C5000509781FF8DC08081822B808359968D9112
:101C60009C915A97059620E001972FEF8F3F92079E
:101C7000D9F75B968C915B9781FF35C031E040E0EE
:101C800050E070E010E0832F90E086239723519678
:101C9000ED91FC91529750962C915097892B29F0F9
:101CA000808120952823208303C08081822B80831C
:101CB00059968D919C915A97212F01972FEF8F3F25
:101CC0009207D9F7330F4F5F5F4F48305105D9F670
:101CD0005196ED91FC915297908150968C9150972E
:101CE0008095892333C031E040E050E070E010E09F
:101CF000832F90E0862397235196ED91FC91529784
:101D000050962C915097892B21F08081822B8083D3
:101D100004C0808120952823208359968D919C9121
:101D20005A97212F01972FEF8F3F9207D9F7330F43
:101D30004F5F5F4F48305105D9F65196ED91FC91B8
:101D40005297808150969C915097892B80830FBF2A
:101D500059968D919C915A9720E001972FEF8F3FD4
:101D60009207D9F721E030E0C9011F910F91089542
:101D7000808120952823208371CF209148063091BF
:101D800049062817390749F49FB7F89410928A0634
:101D900080918A0680938B069FBF08952091480604
:101DA000309149062817390731F490918B068091BC
:101DB0008A06981719F42FEF3FEF0AC0E0918B06BF
:101DC000F0E0E65BF94F8081282F332727FD30951F
:101DD000C90108951F93CF93DF93EC01162F862F2F
:101DE00060E00E9408288B8D81FD04C0812F61E096
:101DF0000E9495281C87212F30E0C9018A58944FF2
:101E0000FC0184918D87285A344FF9016491E62FA3
:101E1000F0E0EE0FFF1FE65BF44F859194919F87F2
:101E20008E87DF91CF911F910895FF920F931F939B
:101E30008C01F62E862F61E00E9408288F2D61E02C
:101E40000E9495288F2D90E0FC01EA58F44FE49110
:101E5000D8015096EC935097885A944FFC016491A6
:101E6000E62FF0E0EE0FFF1FE45CF44F85919491B4
:101E700052969C938E9351971F910F91FF900895C6
:101E8000FF920F931F938C01F62EFC011382128296
:101E900088EE93E0A0E0B0E084839583A683B783C7
:101EA0008CEB95E091838083148A138A168A158AB5
:101EB000108E178A128E118E838D2170220F8C7FC7
:101EC000822B838FC801642F0E94150FC8016F2DCC
:101ED0000E94EA0E1F910F91FF9008958CE896E002
:101EE00063E070E00E949C250895FC0184ED95E07C
:101EF000918380830895FA0195818681981709F06E
:101F000046C06037A1F1613764F46336E1F16436AD
:101F10001CF46236E1F511C0673629F16C36B9F56B
:101F20001EC0643741F165371CF4623781F509C082
:101F3000663729F1693759F50EC080E3858382E35E
:101F400020C0923321F480E3858383E31AC080E3C9
:101F5000858384E316C080E3858385E312C080E334
:101F6000858387E30EC080E3858388E30AC080E32E
:101F7000858389E306C081E3858380E302C081E332
:101F800085838683089581E3858382E3868308952C
:101F9000EF92FF920F931F93FC018CEC95E09183DD
:101FA00080837383628380E590E09587848755837F
:101FB00044833783268311870087F386E2861F9147
:101FC0000F91FF90EF900895FC018CEC95E09183C8
:101FD000808308959B01CB0183709070892B39F425
:101FE000CB0164E670E00E94A631892B41F440E009
:101FF000C90160E971E00E94A631892B09F441E032
:10200000842F0895693071056CF46730710584F48C
:102010006330710569F06530710551F0613071050B
:1020200051F406C06A30710519F06C30710519F46D
:102030002FE130E010C06230710519F02EE130E080
:102040000AC0BA010E94EA0F882319F42CE130E09B
:1020500002C02DE130E0C9010895FC0176A765A713
:1020600008954F925F926F927F928F929F92AF925C
:10207000BF92CF92DF92EF92FF920F931F93DF9365
:10208000CF93CDB7DEB727970FB6F894DEBF0FBE5C
:10209000CDBF6C017B018A016090D8057090D90595
:1020A00040E050E060E070E02E010894411C511CBB
:1020B00094E0892E912C8C0E9D1E84E0A82EB12CCC
:1020C000A80CB91C3EC0F201E60FF71FD7018C9196
:1020D00080836F5F7F4F6330710571F58981982F21
:1020E000969596959C839A8183708295807F292FFF
:1020F00022952F70820F8D832B819F70990F990FDE
:10210000822F8295869586958370980F9E832F7374
:102110002F83D4019601240F351F8D91F301E80F11
:10212000F11D8081F90181939F01AA15BB05A9F7D3
:102130004C5F5F4F60E070E00894E11CF11C0150BF
:1021400010400115110509F0BECF6115710509F4A4
:102150004BC0FE013196E60FF71FCB0102C0119272
:10216000019683309105DCF38981982F9695969599
:102170009C839A8183708295807F292F22952F706E
:10218000820F8D832B819F70990F990F822F8295DB
:10219000869586958370980F9E832F732F83D60123
:1021A000A40FB51F20E030E08E010C5F1F4FF80137
:1021B000E20FF31F8081F301E80FF11D80818D9301
:1021C0004F5F5F4F2F5F3F4F6217730784F7CB015D
:1021D000F601E40FF51F2DE304C021934F5F5F4F1D
:1021E000019683309105CCF34C0D5D1DDA011C92F4
:1021F00027960FB6F894DEBF0FBECDBFCF91DF910B
:102200001F910F91FF90EF90DF90CF90BF90AF9014
:102210009F908F907F906F905F904F9008958EE881
:1022200096E063E070E00E949C2508952F923F9213
:102230004F925F926F927F928F929F92AF92BF92D6
:10224000CF92DF92EF92FF920F931F93DF93CF9382
:1022500000D000D0CDB7DEB79A8389833B01490116
:102260005A01211531054105510509F4FFC1F4E179
:10227000CF2ED12CC60ED71EC6010E944B077C0163
:102280000027F7FC0095102FE80CF91C0A1D1B1DF8
:102290008DB79EB708970FB6F8949EBF0FBE8DBF3F
:1022A000ADB6BEB60894A11CB11CADB7BEB71296B0
:1022B000DC92CE92119786EE91E0F50193838283B2
:1022C000C801B70128EE33E040E050E00E94B93188
:1022D000D50114966D937D938D939C9317970E94CF
:1022E000E507C801B70128EE33E040E050E00E9466
:1022F000B93149015A018AE5F301878B8DB79EB741
:1023000008960FB6F8949EBF0FBE8DBF811491043E
:10231000A104B10409F4AAC1E1E1CE2ED12CC60C6E
:10232000D71CC6010E944B077C010027F7FC0095D3
:10233000102FE80CF91C0A1D1B1DADB7BEB718976E
:102340000FB6F894BEBF0FBEADBFADB6BEB6089413
:10235000A11CB11C1296DC92CE9211977CEE272E16
:1023600071E0372EF50133822282C801B7012CE3D8
:1023700030E040E050E00E94B931D50114966D93F1
:102380007D938D939C9317970E94E507C801B70131
:102390002CE330E040E050E00E94B93149015A019D
:1023A0008EE2F301838B8DB79EB708960FB6F89433
:1023B0009EBF0FBE8DBF81149104A104B10409F426
:1023C00055C16EE0C62ED12CC60CD71CC6010E948A
:1023D0004B077C010027F7FC0095102FE80CF91C37
:1023E0000A1D1B1DADB7BEB718970FB6F894BEBF38
:1023F0000FBEADBFADB6BEB60894A11CB11C1296FF
:10240000DC92CE921197F50133822282C801B70186
:102410002CE330E040E050E00E94B931D501149641
:102420006D937D938D939C9317970E94E507C80148
:10243000B7012CE330E040E050E00E94B93149019F
:102440005A015AE3552EF301508A8DB79EB708966C
:102450000FB6F8949EBF0FBE8DBF81149104A104E6
:10246000B10409F403C14BE0C42ED12CC60CD71C17
:10247000C6010E944B077C010027F7FC0095102F36
:10248000E80CF91C0A1D1B1DADB7BEB718970FB697
:10249000F894BEBF0FBEADBFADB6BEB60894A11CCA
:1024A000B11C1296DC92CE921197F50133822282F2
:1024B000C801B70128E130E040E050E00E94B931A6
:1024C000D50114966D937D938D939C9317970E94DD
:1024D000E507C801B70128E130E040E050E00E9484
:1024E000B93179018A01F30155868DB79EB70896F7
:1024F0000FB6F8949EBF0FBE8DBF38E0232E312C4F
:10250000260C371CC1010E944B074C01AA2497FCE2
:10251000A094BA2C8E0C9F1CA01EB11E80E3D30188
:1025200019968C93199718968C9325E0422E512C6E
:10253000460C571C95C0C3010E944B078C01C20179
:102540000E944B079C838B8389819A816B817C815C
:10255000A8010E9402106C01EE24FF24C814D904C3
:10256000EA04FB0408F057C0EB81FC813196FC8340
:10257000EB833D9754F100D000D000D0EDB7FEB70B
:102580003196ADB7BEB712967C926E92119782EFDC
:1025900091E0938382830F5F1F4F158304830E9412
:1025A000E507EDE2D3011496EC938B819C816CE0FE
:1025B00070E00E94A6319C838B838DB79EB70696F0
:1025C0000FB6F8949EBF0FBE8DBF8C189D08AE0845
:1025D000BF0800D000D000D0EDB7FEB73196ADB740
:1025E000BEB712965C924E92119787EF91E093835B
:1025F0008283AB81BC81B583A4830E94E5078DE211
:10260000F3018783ADB7BEB716960FB6F894BEBF79
:102610000FBEADBF25C0EDB7FEB738970FB6F89423
:10262000FEBF0FBEEDBF3196ADB7BEB712963C925E
:102630002E9211978CEE91E093838283848295820F
:10264000A682B7820E94E50784E5F30182878DB7F1
:102650009EB708960FB6F8949EBF0FBE8DBF06C0FA
:1026600081149104A104B10409F065CF0F900F907B
:102670000F900F90CF91DF911F910F91FF90EF90EE
:10268000DF90CF90BF90AF909F908F907F906F9092
:102690005F904F903F902F900895FC018CEC95E057
:1026A00091838083CF010E94262B0895FC0184ED45
:1026B00095E091838083CF010E94262B0895DB0152
:1026C0000D900020E9F71197A61BB70BFB0180E0E6
:1026D00090E00EC02081F999FECF31961FBA92BDCD
:1026E00081BD20BD0FB6F894FA9AF99A0FBE0196F3
:1026F000A817B90778F70895CF93DF93C0E0D0E02B
:10270000F999FECFD2BDC1BDF89A80B58F3F19F4BB
:1027100060E070E01BC021968F5F823088F7CE01A9
:1027200001960E94C8289C01BC0140E050E0F99944
:10273000FECF52BD41BDF89A80B5F901E40FF51FF7
:1027400080834F5F5F4FC417D5078CF7CB01DF91B4
:10275000CF910895AF92BF92CF92DF92EF92FF9206
:102760000F931F93CF93DF938A016B01EB0182E0FC
:1027700090E020E030E00EC0A881B981FD01019019
:102780000020E9F7EA1BFB0B31968E0F9F1F2F5F8E
:102790003F4F2296201731077CF31016110634F4B0
:1027A00001501040800F911F0F5F1F4F01960E9434
:1027B000C828F82EE92E6CEF71E00E948807C0E06F
:1027C000D0E058010894A108B10821C08F2D9E2D9A
:1027D0006EEF71E00E946907F601608171818F2DB3
:1027E0009E2D0E9469078F2D9E2D6EEF71E00E9435
:1027F0006907CA15DB0534F48F2D9E2D60E072E069
:102800000E946907219682E090E0C80ED91EC01789
:10281000D107E4F28F2D9E2D62E072E00E946907DD
:102820008F2D9E2DDF91CF911F910F91FF90EF90F3
:10283000DF90CF90BF90AF9008950F931F938B01BF
:102840008CEE97E04AE050E00E94752C86E996E015
:10285000B8010E94D8251F910F9108950F931F93DF
:102860008B018CEE97E00E94562B86E996E0B8012A
:102870000E94CA251F910F910895EF92FF920F9326
:102880001F938C017B016DEB75E00E942E14C80133
:10289000B7010E941D14C8016AEB75E00E942E1456
:1028A0001F910F91FF90EF9008950F931F938C014C
:1028B0006BE776E00E942E14C80167E576E00E947F
:1028C0002E14C80169E476E00E942E14C8016DE25E
:1028D00076E00E942E141F910F9108950F931F937D
:1028E0008C016AEE77E00E942E14C80166EC77E056
:1028F0000E942E14C80168EB77E00E942E14C801D4
:102900006CE977E00E942E141F910F9108950F93A8
:102910001F938C0166E478E00E942E14C80162E2E5
:1029200078E00E942E14C80166E178E00E942E141F
:10293000C8016AEF77E00E942E141F910F9108954D
:102940000F931F938B01FB01608171818CEE97E0E7
:102950000E94A72CF8016081718186E996E00E94AF
:10296000AE251F910F9108950F931F938B018CEE4D
:1029700097E00E94A72C86E996E0B8010E94A02566
:102980001F910F9108950F931F93DF93CF9300D062
:10299000CDB7DEB78C018CEE97E069E875E00E9458
:1029A000A12BC80166E875E00E942E148AE1898394
:1029B0001A82C801BE016F5F7F4F0E94B41488E97C
:1029C00096E060E177E244E650E024E032E00E94E5
:1029D0008420082F833039F0843069F48CEE97E03E
:1029E00065E675E004C08CEE97E065E575E00E9451
:1029F000A12B80E00FC08CEE97E069E275E00E94A9
:102A0000562B8CEE97E0602F70E04AE050E00E9479
:102A1000882C81E00F900F90CF91DF911F910F9143
:102A20000895EF92FF920F931F938C017B0166E74D
:102A300078E00E942E14C801B7010E94B4141F91BF
:102A40000F91FF90EF9008956F927F928F929F92D7
:102A5000AF92BF92CF92DF92EF92FF920F931F93AC
:102A6000DF93CF93CDB7DEB76C014B016DB67EB669
:102A7000DC011496EC9114971596FC91DF010D90F2
:102A80000020E9F77D010894E108F108EE1AFF0A39
:102A9000DC011696EC9116971796FC91DF010D90CC
:102AA0000020E9F7CD0101978E1B9F0BD6011896E8
:102AB000EC9118971996FC91DF010D900020E9F731
:102AC0001197AE1BBF0BE80EF91EE2E0F0E0EE0E30
:102AD000FF1EEA0EFB1E8DB79EB78E199F090FB61B
:102AE000F8949EBF0FBE8DBF0DB71EB70F5F1F4F6F
:102AF000C70160E670E00E94A6319B01C701880F04
:102B0000991F880F991F63E070E00E94A631260F7D
:102B1000371F2A5F3F4FADB7BEB7A21BB30B0FB62F
:102B2000F894BEBF0FBEADBFADB6BEB60894A11C33
:102B3000B11CF60164817581C8010E948807C80133
:102B40006CE072E00E946907D60116966D917C9147
:102B50001797C8010E946907C8016EE072E00E94E1
:102B60006907F60160857185C8010E946907C50182
:102B7000B801A7010E943110C401B5010E941115CE
:102B80000FB6F8947EBE0FBE6DBECF91DF911F9140
:102B90000F91FF90EF90DF90CF90BF90AF909F90FC
:102BA0008F907F906F900895EF92FF920F931F93F5
:102BB0000E944B277B018C0186E996E00E94F62556
:102BC000682F18162CF48CEE97E00E94792BF0CF2A
:102BD0000E944B276E197F09800B910B605D774037
:102BE0008040904048F31F910F91FF90EF9008951F
:102BF0001F93CF93DF93EB0186E996E00E94F625C1
:102C0000182F1816CCF78CEE97E0612F0E94792BC5
:102C10001A3391F786E996E00E94F625182F1816C8
:102C200054F48CEE97E0612F0E94792B1B3719F436
:102C3000188381E003C0123269F780E0DF91CF9101
:102C40001F910895AF92BF92CF92DF92EF92FF92C1
:102C50000F931F93CF93DF936B015A010E94F815D6
:102C6000082FC82FD0E0B1E0EB2EF12C27C086E969
:102C700096E00E94F625182F1816CCF78CEE97E0F8
:102C8000612F0E94792B1C35C9F0002311F41232F8
:102C900021F1F601EC0FFD1F10832196002371F046
:102CA0001B3721F40894E11CF11C08C01D3731F4D6
:102CB0000894E108F108E114F10419F0CA15DB05E4
:102CC000B4F2CA15DB0549F48CEE97E065E179E0D2
:102CD0000E94A12BF601108203C0CC0DDD1D1882CD
:102CE000DF91CF911F910F91FF90EF90DF90CF90E8
:102CF000BF90AF9008951F93CF93DF93C1E0D0E0D2
:102D000086E996E00E94F625182F18164CF48CEEF2
:102D100097E0612F0E94792B1B3711F4219603C095
:102D20001D3709F42197209759F7DF91CF911F9113
:102D300008956F927F928F929F92AF92BF92CF929F
:102D4000DF92EF92FF921F93CF93DF933C014B01F1
:102D50000E944B276B017C01C0E0D0E0AA24BB2479
:102D600056C086E996E00E94F625182F18160CF03A
:102D700041C08CEE97E0612F0E94792B0E944B2777
:102D80006B017C01F401EC0FFD1F8081181749F5E0
:102D90002196F401EC0FFD1F80818F32C1F51CC01C
:102DA00086E996E00E94F625182F181654F48CEE4A
:102DB00097E0612F0E94792B0E944B276B017C01C9
:102DC0000BC00E944B276C197D098E099F09605D1D
:102DD00077408040904060F51B3711F721965E01E7
:102DE00016C0A114B10491F01B3781F4C3010E94F5
:102DF0007B160CC00E944B276C197D098E099F0918
:102E0000605D77408040904010F012C0E501D40131
:102E10000D900020E9F71197A819B909CA17DB0727
:102E200008F49FCF80E0CA17DB0719F481E001C0E6
:102E300080E0DF91CF911F91FF90EF90DF90CF90D6
:102E4000BF90AF909F908F907F906F9008953F922A
:102E50004F925F926F927F928F929F92AF92BF92AA
:102E6000CF92DF92EF92FF920F931F93CF93DF9356
:102E70003C01EB010E944B274B015C0100E010E09C
:102E8000CC24DD2402C000E010E086E996E00E9438
:102E9000F625F82E181694F48CEE97E06F2D0E940C
:102EA000792B0E944B274B015C01F801E05FFD4F3D
:102EB0008081F81641F70F5F1F4F0FC00E944B270C
:102EC000681979098A099B09605D774080409040C4
:102ED00020F05DEFC52E5FEFD52E05301105ACF269
:102EE0000530110509F0E1C000E010E086E996E048
:102EF0000E94F625F82E181654F48CEE97E06F2DEC
:102F00000E94792B80E2F81611F40F5F1F4F0230F8
:102F1000110564F300E010E045E0C42ED12CCC0E86
:102F2000DD1E30E3E32E26E3322E92E3492E81E3C9
:102F3000582EA3C086E996E00E94F625F82E1816B2
:102F40000CF08BC08CEE97E06F2D0E94792B0E94C5
:102F50004B274B015C010930110509F46CC00A30A4
:102F60001105F4F40430110509F44CC005301105C5
:102F700054F401301105A9F103301105A1F1011537
:102F8000110569F167C00730110509F450C0083018
:102F900011050CF04EC00530110509F05BC041C0B1
:102FA0000F30110509F44FC0003111056CF40C30DD
:102FB000110509F444C00D30110509F442C00A306E
:102FC000110509F047C039C00231110509F43FC0AD
:102FD00003311105F1F100311105E1F536C0F88634
:102FE00039C0F98637C09AE4F91619F45E825D8219
:102FF00031C0EDE4FE1619F44E824D822BC0EE82F4
:10300000ED8228C0F6018081813321F5F1E6FF16BB
:1030100021F4F601E0828E831DC0F601E0823E823B
:1030200019C0C3016F2DAE010E947B0F13C0F8823F
:1030300011C0F9820FC0FA820DC0FB820BC0FB8663
:1030400009C0FC8607C0FE8605C0FF8603C0F98A5A
:1030500001C0FA8A0F5F1F4F10C00E944B276819EA
:1030600079098A099B09605D77408040904028F08B
:103070000DEFC02E0FEFD02E18C02AE0F21609F087
:1030800059CF8DE28F838C838AE3888B8D8784E58B
:103090008A878EE28B8B80E38E8B8D8B8C8B8AE57F
:1030A0008F8B188E11E0C12ED12CC601DF91CF91EC
:1030B0001F910F91FF90EF90DF90CF90BF90AF9056
:1030C0009F908F907F906F905F904F903F9008956A
:1030D000AF92BF92CF92DF92FF920F931F93DF9335
:1030E000CF93CDB7DEB764970FB6F894DEBF0FBEAF
:1030F000CDBF6C018CEE97E06AE279E00E94562B1E
:103100001C8A00E010E05E010894A11CB11C86E955
:1031100096E00E94F625F82E18165CF48CEE97E0E7
:103120006F2D0E94792BF501E00FF11FF0820F5FE8
:103130001F4F0331110534F4FE01E00FF11F8081B0
:103140008A3029F7CE01019660E270E00E94740790
:1031500001960E944B07F601918380838CEE97E0E5
:103160006EE179E00E94562BF601608171818CEE50
:1031700097E04AE050E00E94882C64960FB6F894DD
:10318000DEBF0FBECDBFCF91DF911F910F91FF909A
:10319000DF90CF90BF90AF9008950F931F93CF9380
:1031A000DF93EC018B010E94681801151105A9F04D
:1031B00088819981883C910581F48CEE97E068E5DF
:1031C00079E00E94562BCE01B8010E9427178CEEA1
:1031D00097E066E172E00E94AA2CDF91CF911F91E7
:1031E0000F9108950F931F9306E916E0C8016EEA48
:1031F00079E00E94E825C801029668E873E140E999
:1032000051E00E9477201F910F910895CF92DF9295
:10321000EF92FF920F931F938C016B017CEEE72ED0
:1032200077E0F72EC70161E879E00E94562BC801CC
:103230000E94D415C70166E172E00E94AA2C68EED4
:1032400073E080E090E00E945927C6010E94F218C6
:103250001F910F91FF90EF90DF90CF9008956F92A4
:103260007F928F929F92AF92BF92CF92DF92EF9216
:103270000F931F93CF93DF93EC013B014A01590158
:10328000EE20D1F0B6010E94CD1881149104A1F076
:10329000A114B10489F01016110674F4CE01B40122
:1032A0000E949916882331F0CE01B501A8010E9431
:1032B000221602C0F5011082CE01B3010E94061948
:1032C000DF91CF911F910F91EF90DF90CF90BF9042
:1032D000AF909F908F907F906F9008954F925F92E4
:1032E0006F927F928F929F92AF92BF92CF92DF9216
:1032F000EF920F931F93DF93CF9300D0CDB7DEB73C
:103300005C014B013A01290168010E94C314E82EB7
:10331000F50160817181CE010196A40193018201C2
:103320000E942F1989819A810F900F90CF91DF9180
:103330001F910F91EF90DF90CF90BF90AF909F9033
:103340008F907F906F905F904F9008950F931F9391
:103350008B0160E070E040E050E020E030E00E944F
:103360006E191F910F910895AF92BF92CF92DF9285
:10337000EF92FF920F931F93CF93DF937B015A013C
:10338000690182E090E0E80EF91EC0E0D0E017C0CD
:1033900021968CEE97E065EC78E00E94562B8CEE3F
:1033A00097E0BE014AE050E00E94882CC701B501B9
:1033B000A6010E945224892B11F081E017C0C0178A
:1033C000D10734F38CEE97E067E978E00E94562B42
:1033D0008CEE97E0BE014AE050E00E94752C8CEE26
:1033E00097E06DE878E00E94A12B80E0DF91CF911B
:1033F0001F910F91FF90EF90DF90CF90BF90AF9013
:103400000895AF92BF92CF92DF92EF92FF920F9307
:103410001F93CF93DF93EC016A01590198017983DF
:10342000688303E010E00E94B4198823B1F0CE0154
:10343000B7010E942E14CE0160E079E00E942E14A4
:10344000CE01B5010E942E14CE016FEE78E00E94ED
:103450002E14CE01B6010E94B414DF91CF911F91BA
:103460000F91FF90EF90DF90CF90BF90AF900895B5
:103470008F929F92AF92BF92CF92DF92EF92FF9284
:103480000F931F93CF93DF937C01EB015A01490106
:10349000CB0166E272E00E948F078C179D0709F44A
:1034A0002796CE016AE370E00E947407009719F432
:1034B00000E510E004C001960E944B078C0182E0F9
:1034C00090E00E94292BD82EC92EF70160817181CE
:1034D000AE01950174010E94011A8D2D9C2DDF9182
:1034E000CF911F910F91FF90EF90DF90CF90BF9001
:1034F000AF909F908F90089523E135E00E94381A95
:103500000895EF92FF920F931F93DF93CF9300D014
:10351000CDB7DEB78C01FC0185A596A59A8389837A
:1035200062817381CE01019641EC53E00E947C1AC6
:10353000F82EE92EC8016F2D7E2D0E9424158F2DA7
:103540009E2D0E9487148F2D9E2D0F900F90CF914E
:10355000DF911F910F91FF90EF9008952F923F926E
:103560004F925F926F927F928F929F92AF92BF9293
:10357000CF92DF92EF92FF920F931F93DF93CF933F
:1035800000D000D000D0CDB7DEB74C01562E472E6C
:10359000742E652E2D833E83302E212E5701202F31
:1035A000312F870176010E94811A8C018CE090E016
:1035B0000E94C828AC0189835A83F501608171811A
:1035C000828193812AE030E00E94A907C4010E9411
:1035D0007C138B839C83DC010D900020E9F711970D
:1035E000A81BB90B872D962DFC0101900020E9F74F
:1035F0005F010894A108B108A81AB90A852D942D75
:10360000FC0101900020E9F77F010894E108F1082E
:10361000E81AF90A8D819E81FC0101900020E9F7EA
:10362000BF0161507040681B790B832D922DFC0106
:1036300001900020E9F7AF0141505040481B590B61
:1036400089819A81FC0101900020E9F79F012150B6
:103650003040281B390BF60101900020E9F7CF011B
:1036600001978C199D09AA0DBB1DAB5BBF4FAE0D19
:10367000BF1DA60FB71FA40FB51FA20FB31FA80F22
:10368000B91FC801BD010E943D14C8016FEA73E073
:103690000E942E14C801BE016D5F7F4F0E94A014CE
:1036A0008B819C810E946529C80163EA73E00E94B6
:1036B0002E14C801672D762D0E94B414C80168E944
:1036C00073E00E942E14C801652D742D0E94B4145D
:1036D000C8016EE272E00E94B414C8016D817E815F
:1036E0000E94B414C80163E973E00E942E14C8015B
:1036F000632D722D0E94B414C80167E873E00E9424
:103700002E14C801BE016F5F7F4F0E94A0148981F3
:103710009A810E946529C8016DE773E00E942E140A
:10372000C801B6010E94B414C80168E773E00E94A2
:103730002E14C80160E070E00E94A6197C01C80147
:103740000E94262BE114F10419F42EEF3FEF11C073
:10375000F9ECEF16F10419F421E030E00AC0C701DA
:10376000F7FE03C0909581959F4F22273327281B92
:10377000390BC90126960FB6F894DEBF0FBECDBF38
:10378000CF91DF911F910F91FF90EF90DF90CF903D
:10379000BF90AF909F908F907F906F905F904F9071
:1037A0003F902F900895EF92FF920F931F93DF9316
:1037B000CF9300D0CDB7DEB78C01FC0185A596A5CF
:1037C0009A83898362817381CE01019644EF54E02C
:1037D0000E947C1AF82EE92EC8016F2D7E2D0E94C2
:1037E00024158F2D9E2D0E946E148F2D9E2D0E94CC
:1037F00055148F2D9E2D0F900F90CF91DF911F911B
:103800000F91FF90EF9008952F923F924F925F9209
:103810006F927F928F929F92AF92BF92CF92DF92E0
:10382000EF92FF920F931F93DF93CF93CDB7DEB745
:1038300028970FB6F894DEBF0FBECDBF2C016D8365
:103840007E834F83588719010E94D31B3C01C2011C
:10385000B701A6010E94AA1389839A83DC010D9007
:103860000020E9F77D010894E108F108E81AF90A57
:10387000C201B501A4010E94AA138B839C83DC01C1
:103880000D900020E9F79D0121503040281B390B95
:10389000EF81F885DF010D900020E9F7CD01019758
:1038A0008E1B9F0BED81FE81DF010D900020E9F75B
:1038B0001197AE1BBF0BE20EF31E20E830E0E20EC4
:1038C000F31EE80EF91EEA0EFB1EC301B7010E94AB
:1038D0003D14C3016AEE74E00E942E14C3016F818F
:1038E00078850E94B414C3016FED74E00E942E1419
:1038F000C3016D817E810E94B414C3016DEB74E03D
:103900000E942E14C3016AEA74E00E942E14C301BF
:103910006EE874E00E942E14C301BE016F5F7F4FFA
:103920000E94A01489819A810E946529C30160E7E1
:1039300074E00E942E14C301BE016D5F7F4F0E9490
:10394000A0148B819C810E946529C3016EE674E0FE
:103950000E942E14C30162E372E0A101980100E00D
:1039600010E00E946E198C01C3010E94262B8CEE80
:1039700097E0B1010E94AA2C093C110519F421E03D
:1039800030E00AC00115110519F42EEF3FEF04C015
:1039900022273327201B310BC90128960FB6F89434
:1039A000DEBF0FBECDBFCF91DF911F910F91FF9072
:1039B000EF90DF90CF90BF90AF909F908F907F90CF
:1039C0006F905F904F903F902F90089521E235E0E7
:1039D0000E94381A0895AF92BF92CF92DF92EF9271
:1039E000FF920F931F93DF93CF9300D0CDB7DEB735
:1039F0006C01FC0186859785A089B189E2E1AE2E34
:103A0000B12CAC0CBD1C0097A105B10569F58CEE7D
:103A100097E065E372E00E94A72C8CEE97E06BE3E1
:103A200072E00E94A12BF60185A596A59A83898351
:103A300062817381CE01019641E352E00E94E61C4F
:103A40008C01C601B8010E9424150E944B27F60183
:103A500066877787808B918BC801B5010E94A61974
:103A6000C8010E94262B25C08CEE97E069E472E025
:103A70000E94A72C8CEE97E0B5010E94AA2C0E9410
:103A80004B277B018C01F60186859785A089B1893A
:103A9000E81AF90A0A0B1B0B0E944B27F6016687EE
:103AA0007787808B918BC601B501A80197010E9491
:103AB00016118CEE97E069E672E00E94A72C860151
:103AC0000E5E1F4F8CEE97E0B8010E94A72C8CEE83
:103AD00097E063E872E00E94AA2CC8010F900F9053
:103AE000CF91DF911F910F91FF90EF90DF90CF90DA
:103AF000BF90AF9008952F923F924F925F926F9236
:103B00007F928F929F92AF92BF92CF92DF92EF926D
:103B1000FF920F931F935C014B013A012901180199
:103B200067010E94EB1CAC01C501B4019301820145
:103B300071010E94AE1A1F910F91FF90EF90DF90DC
:103B4000CF90BF90AF909F908F907F906F905F903D
:103B50004F903F902F9008950F931F93FC01718316
:103B6000608303E010E00E94B4191F910F91089543
:103B70008F929F92AF92BF92CF92DF92EF92FF927D
:103B80000F931F93DF93CF93CDB7DEB78C016B01FB
:103B9000B22EA32E8DB69EB682E090E00E94292B15
:103BA000F82EE92EF80165A576A54281538124857A
:103BB00035850E94AC1D8F2D9E2D69E674E00E9414
:103BC0002E148F2D9E2D6FE474E00E942E148F2DE5
:103BD0009E2D6DE474E00E942E148F2D9E2DB60153
:103BE0000E94B4148F2D9E2D6CE374E00E942E145D
:103BF000F801628173818F2D9E2D0E94B414C8013B
:103C00006F2D7E2D0E9424158F2D9E2D0E94551400
:103C1000AB2DBA2DFD0101900020E9F7EA1BFB0B4B
:103C20008DB79EB78E1B9F0B0FB6F8949EBF0FBE2D
:103C30008DBFCDB6DEB60894C11CD11CEB2DFA2D7C
:103C4000DF010D900020E9F7AE1BBF0B8F2D9E2DDD
:103C500065E872E0A6019D0100E010E00E946E1987
:103C60008C018F2D9E2D0E94262B083C110551F4AE
:103C7000C6016B2D7A2D0E947F07009769F421E021
:103C800030E011C00115110519F42EEF3FEF0BC004
:103C900091E00439190719F42FEF3FEF04C02227F0
:103CA0003327201B310BC9010FB6F8949EBE0FBEFF
:103CB0008DBECF91DF911F910F91FF90EF90DF901C
:103CC000CF90BF90AF909F908F9008952F923F928A
:103CD0004F925F926F927F928F929F92AF92BF921C
:103CE000CF92DF92EF92FF920F931F93DF93CF93C8
:103CF000CDB7DEB728970FB6F894DEBF0FBECDBFA5
:103D000098878F834B01742E652E29011801FA8242
:103D1000E982DC82CB82BE82AD820E947C138C0160
:103D20008CEE97E00E94812B01151105D1F18CEEEC
:103D300097E063E673E00E94562B8CEE97E0B801A3
:103D40000E94AA2CF80101900020E9F7E01BF10B7A
:103D50004E165F0630F4C8010E9465292CEF3FEF34
:103D60004BC0872D962DB8010E948807782E692EAA
:103D7000C8010E9465294091DA055091DB058F81C9
:103D80009885672D762D94010E94B81D9C01181608
:103D900019061CF420E030E02FC08FEF2F3F3807CA
:103DA00059F56091DA057091DB058F819885A40142
:103DB000272D362D82017101C980DA80AB80BC804D
:103DC0008D809E800E94041C9C0118161906A4F484
:103DD0008CEE97E061E573E00E94562B8CEE97E045
:103DE000672D762D0E94AA2C8F819885672D762DC0
:103DF0000E945F1321E030E0C90128960FB6F894C5
:103E0000DEBF0FBECDBFCF91DF911F910F91FF900D
:103E1000EF90DF90CF90BF90AF909F908F907F906A
:103E20006F905F904F903F902F90089502960E9460
:103E3000BA2408950F931F93FC0184ED95E09183BC
:103E4000808308E916E0C80140EC52E160E070E0D0
:103E50000E94E821C80102970E943C261F910F9101
:103E6000089580E996E063E070E00E949C25089543
:103E7000EF92FF920F93DF93CF9300D0CDB7DEB7D1
:103E80009C01062F623038F583539F4F9A838983B4
:103E900081E0E981FA8180838CEDE82EF12CE20E3D
:103EA000F31EC70163ED72E00E94A72CC701602FCB
:103EB00070E04AE050E00E94752CC70167ED72E0A7
:103EC0000E94A72C64EF71E080E090E00E945927E7
:103ED000E981FA8110820F900F90CF91DF910F91BD
:103EE000FF90EF9008950F931F938C010E521F4F78
:103EF000F801119261937193419351938F010E9444
:103F00004B27F8016083718382839383075D1040A0
:103F1000F8011282E153FF4F0E5F1F4F11830083A0
:103F200001531F4FF8011082C8010B960E94BD0E6D
:103F30001F910F910895FC01EF52FF4F8081E15DC9
:103F4000F040882349F0CF0102960E948F079C0120
:103F500080E0232B09F081E008958F929F92AF9229
:103F6000BF92CF92DF92EF92FF920F931F93CF9366
:103F7000DF93EC0162EDC62ED12CC80ED91EF601DE
:103F800080818823D1F5CE0184529F4F0E94F10D8C
:103F900057EDE52EF12CEC0EFD1E892B21F50E942C
:103FA0004B27F7012081318142815381621B730BC2
:103FB000840B950BCD52DF4F28813981C35DD040F2
:103FC00040E050E06217730784079507B0F0CF52C6
:103FD000DF4F8881C15DD040FE01E80FF11D1282E4
:103FE00044E0842E0BC00E944B27F701608371834D
:103FF0008283938381E0F60180838824CE52DF4F51
:104000008881C25DD040813009F063C03CEDA32EB1
:10401000B12CAC0EBD1EC5010E94F10D982E882357
:1040200059F10E944B27C952DF4F688379838A83F5
:104030009B83C75DD04020C0F6018081883CB8F4E6
:10404000F70100811181C5010E94D00DF801808324
:10405000F70180819181019691838083F6018081AF
:104060008F5F8083FE01E80FF11D128203C0C5013E
:104070000E94D00D9A940AC021EDC22ED12CCC0EF4
:10408000DD1E9FECE92EF12CEC0EFD1E9920A1F611
:104090000E944B27C952DF4F288139814A815B81B9
:1040A000621B730B840B950B3A912A91C55DD0402E
:1040B00040E050E0621773078407950750F0CF5235
:1040C000DF4F8881C15DD040C80FD11D1A8288247E
:1040D0008394882DDF91CF911F910F91FF90EF90E6
:1040E000DF90CF90BF90AF909F908F900895CF9327
:1040F000DF93EC010E94731FCE010E94AD1F882345
:10410000D9F3DF91CF9108950F931F93CF93DF934E
:10411000EC0189010E94731FCE010E94AD1F88230C
:10412000D9F3813011F084E009C0CE01B8010E94BA
:104130009B1F882311F483E001C082E0DF91CF91BF
:104140001F910F9108956F927F928F929F92AF92DD
:10415000BF92CF92DF92EF92FF920F931F93CF9374
:10416000DF93EC013B014A01590168010E2D7CED02
:10417000E72EF12CE80EF91E8FEF10E01FC011237F
:1041800031F064EF71E080E090E00E945927C701B0
:10419000B3010E94A12BCE01B401A5010E9477209A
:1041A000813011F08FEF09C0CE01B6010E949B1F34
:1041B000882311F081E004C080E01F5F1017F8F23F
:1041C000DF91CF911F910F91FF90EF90DF90CF90F3
:1041D000BF90AF909F908F907F906F9008956F9257
:1041E0007F928F929F92AF92BF92CF92DF92EF9287
:1041F000FF920F931F93CF93DF93EC013B014A0192
:10420000590168010E2DECEDEE2EF12CE80EF91E91
:104210008FEF10E01FC0112331F064EF71E080E0F8
:1042200090E00E945927C701B3010E94AA2CCE0139
:10423000B401A5010E947720813011F08FEF09C0F1
:10424000CE01B6010E949B1F882311F081E004C0BB
:1042500080E01F5F1017F8F2DF91CF911F910F914F
:10426000FF90EF90DF90CF90BF90AF909F908F9096
:104270007F906F900895EF920F931F93CF93DF93EA
:10428000EC01FC01E353FF4F8081882311F09FEF85
:1042900023C081E08083CE0169ED72E048EE53E0F7
:1042A00022E330E005EE12E0A2E0EA2E0E94EF20C9
:1042B000CE0168EE72E048EE53E028EE33E00FEFF7
:1042C00012E0FAE0EF2E0E94EF2090E0813009F436
:1042D00091E0C353DF4F1882892FDF91CF911F9157
:1042E0000F91EF900895CF92DF92EF920F931F936B
:1042F000CF93DF93EC01662321F0613009F060C0B9
:1043000021C0FDECCF2ED12CC80ED91E81E0F601C4
:104310008083CE0166E073E048EE53E022E330E0B4
:1043200005EE12E0E5E0EE2E0E94EF20CE016BE0FC
:1043300073E044EF51E022E330E00E94EF20F60109
:1043400010823EC01DECC12ED12CC80ED91EF60124
:10435000608366EE79E044EF51E022E330E005EE61
:1043600012E0B5E0EB2E0E94A320CE016CED79E0C7
:1043700044EF51E022E330E00E94A320CE0162ED41
:1043800079E044EF51E022E330E00E94A320F601FF
:104390001082CE010E943B21CE0165EC79E048EE0F
:1043A00053E022E330E00E94A320CE016AEB79E0E3
:1043B00044EF51E022E330E000E113E00E94A3204B
:1043C000DF91CF911F910F91EF90DF90CF900895E3
:1043D0004F925F926F927F928F929F92AF92BF9215
:1043E000CF92DF92EF92FF920F931F93CF93DF93C1
:1043F000EC012A013B01C353DF4F81E08883CD5C90
:10440000D040BCEDAB2EB12CAC0EBD1EC5010E9440
:10441000C40CC553DF4F81E090E099838883CB5C67
:10442000D040CC24DD24CE0168E173E044EF51E0BC
:1044300024E630E005EE12E0A5E0EA2E0E94EF202F
:104440008F3F11F0992416C089E061E00E94952801
:1044500060EB74E080E090E00E94592789E060E022
:104460000E94952860E177E280E090E00E94592761
:10447000992493940894C11CD11C83E0C816D104DC
:1044800091F6CE0168E173E044EF51E024E630E0BC
:1044900005EE12E0F5E0EF2E0E94EF20992009F4DE
:1044A0008FC08CEE97E06BE173E00E94AA2C8E0126
:1044B00004521F4FC0E0D0E0C330D105E9F1C43051
:1044C000D1054CF4C130D10509F1C230D1054CF50C
:1044D000209789F069C0C530D10509F443C0C530C3
:1044E000D105ACF1C630D10509F447C0C730D105BC
:1044F00009F05AC04DC0C50140EB54E060E070E0E7
:104500000E94C40CC80168E67AE04CC0C50140E6D0
:1045100059E060E070E00E94C40CC8016BE57AE0ED
:1045200041C0C50140EC52E160E070E00E94C40C63
:10453000C8016EE47AE036C0C50140E855E260E0AB
:1045400070E00E94C40CC80161E47AE02BC0C50190
:1045500040E05BE460E070E00E94C40CC80164E3EA
:104560007AE020C0C50140E056E960E070E00E94BA
:10457000C40CC80167E27AE015C0C50140E051EE05
:1045800060E070E00E94C40CC8016AE17AE00AC0F1
:10459000C50140E052EC61E070E00E94C40CC8012B
:1045A0006DE07AE00E94562B2196C830D10509F0C3
:1045B00083CF8CEE97E062E473E00E94AA2C25C1C1
:1045C000FF24813011F4FF24F394CE0168E173E0FD
:1045D00044EF51E024E630E005EE12E0E5E0EE2E97
:1045E0000E94EF20882309F0CCC0FF2009F0C9C049
:1045F000BCED8B2E912C8C0E9D1ECC24DD2483E0F3
:10460000C816D104B1F184E0C816D10464F481E085
:10461000C816D10401F182E0C816D10424F5C114F2
:10462000D10499F057C085E0C816D10471F185E036
:10463000C816D10424F186E0C816D10461F187E0E0
:10464000C816D10409F046C02CC0C50140EB54E0A7
:1046500060E070E005C0C50140E659E060E070E050
:104660000E94C40C37C0C50140EC52E160E070E02C
:10467000F7CFC50140E855E260E070E0F1CFC50139
:1046800040E05BE460E070E0EBCFC50140E056E95C
:1046900060E070E0E5CFC50140E051EE60E070E021
:1046A000DFCFC50140E052EC61E070E00E94C40C35
:1046B000C40160E07AE00E94562BC50140E855E253
:1046C00060E070E00E94C40C64EF71E080E090E074
:1046D0000E94592764E670E080E090E00E9459272C
:1046E000CE0168E173E044EF51E024E630E005EEEE
:1046F00012E0A5E0EA2E0E94EF20813071F5C4019E
:1047000068EF79E00E94562BC401B301A2012AE0B0
:1047100030E00E94352CC40167ED72E00E94A72CA6
:1047200064EF71E080E090E00E945927C501B30179
:10473000A2010E94C40C64E670E080E090E00E9458
:104740005927CE0168E173E044EF51E024E630E000
:104750000E94EF20FF24F39408C00894C11CD11CD0
:1047600088E0C816D10409F04ACFC353DF4F18823E
:10477000CD5CD040FE01E153FF4F2296D183C08330
:104780002297C353DF4F1882CD5CD040FF20E1F069
:10479000CE0162E370E042E350E00E947720CE0158
:1047A00060E00E947321CE0161E00E947321CE017E
:1047B00060E00E94381FC553DF4F82E090E099838C
:1047C000888321E030E023C0C50140E052EC61E085
:1047D00070E00E94C40C68EE73E080E090E00E94FC
:1047E00059278E0104521F4FC80160EF79E00E94E3
:1047F000562BC801B301A2012AE030E00E94352CFB
:10480000C80167ED72E00E94A72C20E030E0C901EA
:10481000DF91CF911F910F91FF90EF90DF90CF909C
:10482000BF90AF909F908F907F906F905F904F90D0
:104830000895EF92FF920F931F938C0180EE95E005
:10484000F8019183808305531F4F81E090E0F801C8
:10485000918380830B5C10409CEDE92EF12CE00EDF
:10486000F11EC7016AE048E020E00E94400FC80145
:1048700088509F4FB7014AE050E00E94E6261F9102
:104880000F91FF90EF90089582E996E063E070E069
:104890000E949C25089584E996E063E070E00E9400
:1048A0009C250895EF92FF920F931F938B017A013D
:1048B00086E996E06BEB73E00E94A02586E996E01E
:1048C000B8010E94A02586E996E06FEC73E00E9493
:1048D000A02586E996E0B7010E942C2688E996E09B
:1048E00068EE73E048EC50E022ED33E00E94842053
:1048F00083508230B8F188E996E060EA73E00E9464
:104900009B1F882369F488E996E068E97AE348EC1C
:1049100050E022ED33E00E9484208350823010F179
:1049200068EB7BE080E090E00E94592786E996E002
:1049300065ED73E00E94BC2588E996E068E873E1C4
:1049400048EC50E020EE33E00E9484208350823017
:1049500048F060EA7FE080E090E00E94592721E083
:1049600030E002C020E030E0C9011F910F91FF90BC
:10497000EF900895EF92FF920F931F93CF93DF93E1
:10498000EB018A01790168E873E180E090E00E9420
:10499000592788E996E062E370E042E350E00E9424
:1049A000772086E996E06DEE73E00E94BC2588E9E9
:1049B00096E068E873E142E350E026EF33E00E94BE
:1049C0008420823039F186E996E067E873E00E943E
:1049D000BC2588E996E068E873E142E350E026EF01
:1049E00033E00E94842060ED77E080E090E00E9458
:1049F000592786E996E06CEF73E00E94BC2588E9B0
:104A000096E068E873E142E350E026EF33E00E946D
:104A1000842085C086E996E06BE074E00E94BC25A6
:104A200088E996E064EF71E042E350E026E134E08B
:104A30000E9484208350823008F474C068EE73E0D2
:104A400080E090E00E94592786E996E06EE174E0EC
:104A50000E94A02586E996E0BE010E94AE2586E967
:104A600096E068E274E00E94A02586E996E0B8012D
:104A70000E94AE2586E996E068E274E00E94A025D7
:104A800086E996E0B7010E94AE2586E996E06CE2E1
:104A900074E00E94A02588E996E064EF71E042E3AB
:104AA00050E022ED33E00E94842083508230D0F128
:104AB00068E873E180E090E00E94592786E996E07B
:104AC0006FE274E00E94BC2588E996E060E177E23D
:104AD00042E350E022ED33E00E9484208350823094
:104AE00008F168EE73E080E090E00E94592786E9C3
:104AF00096E06DEE73E00E94BC2588E996E068E8D8
:104B000073E142E350E026EF33E00E9484208230DC
:104B100049F083E090E0909364078093630721E07D
:104B200030E002C020E030E0C901DF91CF911F9159
:104B30000F91FF90EF900895FC01718360830895B9
:104B4000DC01ED91FC9111973697808191818A0F5C
:104B50009B1F84529F4F0E94A72C0895DC01ED916A
:104B6000FC9111973697808191818A0F9B1F845207
:104B70009F4F0E94A72C0895DC01ED91FC911197A5
:104B80003697808191818A0F9B1F84529F4F0E948C
:104B9000AA2C0895DC01ED91FC9111973697808144
:104BA00091818A0F9B1F84529F4F0E94562B08951C
:104BB000DC01ED91FC9111973697808191818A0FEC
:104BC0009B1F84529F4F4AE050E00E94752C08952D
:104BD000DC01ED91FC9111973697808191818A0FCC
:104BE0009B1F84529F4F0E94A12B0895FC01A0811E
:104BF000B18116978D919C918E0F9F1F84529F4F6C
:104C00000E94D00D0895CF92DF92EF92FF921F93F2
:104C1000CF93DF936B017A01C0E0D0E011C086E949
:104C200096E00E94F625182F18164CF48CEE97E0AB
:104C3000612F0E94792BF601EC0FFD1F1083219646
:104C4000CE15DF0564F3CE01DF91CF911F91FF9068
:104C5000EF90DF90CF900895DC01ED91FC911197DA
:104C60003697808191818A0F9B1F84529F4F4AE023
:104C700050E00E94882C08950F931F93CF93DF93E9
:104C80008C0165E27BE00E94E825D801ED91FC9162
:104C9000369780819181800F911F68E873E144E627
:104CA00050E02FE135E00E948420D801ED91FC9185
:104CB000369780819181800F911F6FE175E00E948E
:104CC0009B1F082F8AE996E06CE270E00E9474074F
:104CD000EC0121961A82CE016CE270E00E9474070A
:104CE000FC01009709F010828881843329F0802F1D
:104CF0000023B9F081E015C089E061E00E949528A9
:104D000060EB74E080E090E00E94592789E060E069
:104D10000E94952860E177E280E090E00E945927A8
:104D200082E0DF91CF911F910F910895FC0188EEF1
:104D300095E09183808380EE95E093838283CF0119
:104D400082529F4F0E94C70D08950F931F938C01AD
:104D500002960E94192488EE95E0F80191838083E1
:104D60000A96938382831F910F9108958130910554
:104D700071F46F5F7F4FA1F48BE997E063E070E01F
:104D80000E949C2586E996E00E94A5260895892B1D
:104D900039F46F5F7F4F21F486E996E00E949626F2
:104DA000089580E090E06FEF7FEF0E94B6260895AF
:104DB00081E090E06FEF7FEF0E94B62608958DE9C5
:104DC00097E063E070E00E949C2508950F931F9385
:104DD0008C01CA01F80171836083AA2797FDA09511
:104DE000BA2FBC01CD0128EE33E040E050E00E9434
:104DF0008731F801628373838483958381E082879E
:104E00001F910F9108951F920F920FB60F921124C8
:104E10002F933F938F939F93AF93BF938091A3075B
:104E20009091A407A091A507B091A6073091A7077C
:104E30000196A11DB11D232F2D5F2D3720F02D5779
:104E40000196A11DB11D2093A7078093A3079093FE
:104E5000A407A093A507B093A60780919F07909100
:104E6000A007A091A107B091A2070196A11DB11DB5
:104E700080939F079093A007A093A107B093A207E8
:104E8000BF91AF919F918F913F912F910F900FBE46
:104E90000F901F9018958FB7F8942091A307309129
:104EA000A4074091A5075091A6078FBFB901CA0179
:104EB00008959B01AC017FB7F89480919F07909172
:104EC000A007A091A107B091A20766B5A89B05C055
:104ED0006F3F19F00196A11DB11D7FBFBA2FA92FF9
:104EE000982F8827860F911DA11DB11D62E0880FA4
:104EF000991FAA1FBB1F6A95D1F7BC012DC0FFB730
:104F0000F89480919F079091A007A091A107B0917C
:104F1000A207E6B5A89B05C0EF3F19F00196A11DB9
:104F2000B11DFFBFBA2FA92F982F88278E0F911D73
:104F3000A11DB11DE2E0880F991FAA1FBB1FEA95B2
:104F4000D1F7861B970B885E9340C8F22150304002
:104F50004040504068517C4F2115310541055105B5
:104F600071F60895789484B5826084BD84B58160BB
:104F700084BD85B5826085BD85B5816085BDEEE661
:104F8000F0E0808181608083E1E8F0E01082808140
:104F900082608083808181608083E0E8F0E08081AE
:104FA00081608083E1E9F0E080818260808380819C
:104FB00081608083E0E9F0E0808181608083E1ECC2
:104FC000F0E0808184608083808182608083808142
:104FD00081608083E3ECF0E0808181608083E0EC9D
:104FE000F0E0808182608083E2ECF0E0808181608B
:104FF0008083EAE7F0E08081846080838081826042
:10500000808380818160808380818068808308952F
:10501000CF93DF93482F50E0CA018A58944FFC0188
:105020003491485A544FFA018491882369F190E0F1
:10503000880F991FFC01E25DF44FA591B491FC012A
:10504000E45CF44FC591D491662351F42FB7F894E2
:105050008C91932F909589238C93888189230BC001
:10506000623061F42FB7F8948C91932F9095892337
:105070008C938881832B88832FBF06C09FB7F894B9
:105080008C91832B8C939FBFDF91CF9108958830B3
:1050900071F1893068F4823031F1833020F481304D
:1050A00009F042C01DC0833089F08430E9F512C098
:1050B0008B3059F18C3028F48930E9F08A30A1F531
:1050C0001EC08C3031F18E3079F529C0809180007E
:1050D0008F7703C0809180008F7D8093800008953A
:1050E00084B58F7702C084B58F7D84BD089580918B
:1050F00090008F7707C0809190008F7D03C08091D2
:105100009000877F8093900008958091C0008F77F2
:1051100003C08091C0008F7D8093C000089580916E
:10512000C200877F8093C2000895FF920F931F9360
:10513000F62E482F50E0CA018C56944FFC01249162
:10514000CA018A58944FFC011491485A544FFA01ED
:1051500004910023C9F0222319F0822F0E944728CE
:10516000E02FF0E0EE0FFF1FE45CF44FA591B49147
:105170009FB7F894FF2021F48C911095812302C0F1
:105180008C91812B8C939FBF1F910F91FF9008955D
:105190000F931F93CF93DF93BC018230910510F4DE
:1051A00062E070E0E0911208F091130840E050E0F6
:1051B000A0E0B0E024C08081918186179707D0F0ED
:1051C0008617970771F482819381109729F01396BF
:1051D0009C938E9312972CC090931308809312087F
:1051E00027C04115510519F08417950718F48D0152
:1051F000AC01EF01DF01828193819C01F9013097BD
:10520000D1F641155105F9F0CA01861B970B843080
:10521000910580F48A819B810115110521F0F80127
:105220009383828304C09093130880931208FE0135
:10523000329645C0FE01E80FF91F61937193029702
:10524000998388833CC08091100890911108892B24
:1052500041F48091AA059091AB0590931108809339
:1052600010084091AC055091AD054115510541F430
:105270004DB75EB78091A8059091A905481B590BC1
:10528000209110083091110824173507B0F4CA0195
:10529000821B930B8617970780F0AB014E5F5F4F21
:1052A0008417950750F0420F531F509311084093F5
:1052B0001008F9016193719302C0E0E0F0E0CF01C2
:1052C000DF91CF911F910F910895CF93DF939C01B0
:1052D000009709F48FC0EC0122971B821A8260911B
:1052E0001208709113086115710581F48881998104
:1052F000820F931F20911008309111082817390749
:1053000039F5D0931108C093100874C0DB0140E058
:1053100050E0AC17BD0708F1BB83AA83FE012191C1
:105320003191E20FF31FAE17BF0779F48D919C9175
:105330001197280F391F2E5F3F4F3983288312960C
:105340008D919C9113979B838A834115510571F42C
:10535000D0931308C09312084DC012968D919C9162
:105360001397AD01009711F0DC01D3CFDA0113964A
:10537000DC93CE931297FA0121913191E20FF31F42
:10538000CE17DF0769F488819981280F391F2E5FB6
:105390003F4FFA01318320838A819B8193838283EB
:1053A000E0E0F0E0DB0112968D919C91139700975D
:1053B00019F0BC01FD01F6CFAB014E5F5F4FDB0181
:1053C0008D919C91840F951F2091100830911108A8
:1053D0002817390779F4309729F41092130810929E
:1053E000120802C01382128242505040509311089A
:1053F00040931008DF91CF91089508952091E80718
:105400003091E9078091EA079091EB07281B390B4F
:105410002F733070C90108952091E8073091E90792
:105420008091EA079091EB072817390719F42FEFBD
:105430003FEF09C0E091EA07F091EB07E855F84F1C
:105440008081282F30E0C90108952091E80730912C
:10545000E9078091EA079091EB072817390719F4BB
:105460002FEF3FEF13C0E091EA07F091EB07E8550B
:10547000F84F20818091EA079091EB0701968F7396
:1054800090709093EB078093EA0730E0C90108958C
:105490001092EF071092EE0788EE93E0A0E0B0E0E4
:1054A0008093F0079093F107A093F207B093F3076E
:1054B00088EF95E09093ED078093EC0708950F93A4
:1054C0001F93DF93CF930F92CDB7DEB78C01698323
:1054D0008091B505882369F083E0BE016F5F7F4F3F
:1054E00041E050E00E948F2D1816190614F49C011B
:1054F00007C081E090E0F8019383828320E030E0F0
:10550000C9010F90CF91DF911F910F91089583E012
:105510000E94662D0895CF93DF9312C082E00E940F
:10552000F12C2FEF8F3F9207C9F0E091E807F0913F
:10553000E907E855F84F8083D093E907C093E8075F
:10554000C091E807D091E9072196CF73D070809180
:10555000EA079091EB07C817D90701F7DF91CF91C0
:105560000895FC0180818E5F808380E86EEB7BE094
:1055700042E450E00E940A2D0895FC01818190814F
:10558000913A59F4813209F04CC080E06EEA75E03E
:1055900047E050E00E940A2D42C0913209F041C01C
:1055A000803239F48EEA95E067E070E00E944E2D7B
:1055B00036C0823209F035C082818093B505809172
:1055C000AE059091AF05A091B005B091B105805B9B
:1055D0009440A040B04019F58091B50580FD12C0FF
:1055E00087E797E790930108809300082BE088E114
:1055F00090E00FB6F894A895809360000FBE2093BA
:1056000060000DC088E10FB6F8948093600010929E
:1056100060000FBEA895109201081092000881E06A
:10562000089580E00895CF93DF930E94B22782E02F
:1056300098E00E94712D0E944A0BC0E0D0E00E94C9
:105640003D0B2097E1F30E940000F9CF0E946529ED
:1056500008950E94C8280895CF92DF92EF92FF929A
:105660000F931F93CF93DF937C016B018A01C0E0FE
:10567000D0E00FC0D6016D916D01D701ED91FC9185
:105680000190F081E02DC7010995C80FD91F015085
:1056900010400115110571F7CE01DF91CF911F91D7
:1056A0000F91FF90EF90DF90CF900895EF92FF92CF
:1056B0000F931F93CF93DF937C018B01C0E0D0E069
:1056C000F8010F5F1F4F6491662359F0D701ED91E8
:1056D000FC910190F081E02DC7010995C80FD91FF9
:1056E000EFCFCE01DF91CF911F910F91FF90EF90FF
:1056F0000895DC01ED91FC910190F081E02D099578
:105700000895EF92FF920F931F938C01DC01ED91AE
:10571000FC910190F081E02D6DE009957C01D801AC
:10572000ED91FC910190F081E02DC8016AE00995AE
:105730009C012E0D3F1DC9011F910F91FF90EF900D
:105740000895EF92FF920F931F937C010E94562BB6
:105750008C01C7010E94812B9C01200F311FC901C0
:105760001F910F91FF90EF900895CF93DF93EC017D
:105770006115710519F420E030E00FC0DB010D90D8
:105780000020E9F71197A61BB70BE881F981028089
:10579000F381E02DAD0109959C01C901DF91CF9105
:1057A00008954F925F927F928F929F92AF92BF9295
:1057B000CF92DF92EF92FF920F931F93DF93CF93DD
:1057C000CDB7DEB7A1970FB6F894DEBF0FBECDBF41
:1057D0002C01742ECB01223008F42AE019A231E208
:1057E000C32ED12CCC0EDD1E822E9924AA24BB24DC
:1057F000672D752FA50194010E94B93179018A01A5
:10580000C801B701A50194010E948731472D461BAD
:105810000894C108D1084A3014F4405D01C0495CC5
:10582000F6014083E114F1040105110521F07E2CFD
:105830005F2DC801DDCFC201B6010E94B52BA19634
:105840000FB6F894DEBF0FBECDBFCF91DF911F9191
:105850000F91FF90EF90DF90CF90BF90AF909F900F
:105860008F907F905F904F900895CF92DF92EF924C
:10587000FF920F931F93CF93DF93EC016A017B019B
:105880002115310541F4E881F9810190F081E02D85
:10589000642F09951FC02A303105D1F477FF17C056
:1058A000E881F9810190F081E02D6DE209958C018C
:1058B00044275527BA014C195D096E097F09CE01AD
:1058C0002AE00E94D12B9801280F391F04C02AE03A
:1058D0000E94D12B9C01C901DF91CF911F910F91A3
:1058E000FF90EF90DF90CF900895EF92FF920F938B
:1058F0001F937B019A010027F7FC0095102FB80138
:10590000A7010E94352C1F910F91FF90EF900895F1
:10591000CF92DF92EF92FF920F931F936C017B0166
:105920009A010027F7FC0095102FB801A7010E94EB
:10593000352C8C01C6010E94812B080F191FC8014C
:105940001F910F91FF90EF90DF90CF9008950E94EC
:10595000B52B0895EF92FF920F931F937C010E9445
:10596000B52B8C01C7010E94812B080F191FC8019C
:105970001F910F91FF90EF900895282F8091FC07C1
:105980008823C1F057FF1AC015C028989093FB07D1
:105990008091F1008193E217F307B9F741155105A2
:1059A00039F08091F200882319F48BE68093E800A7
:1059B000AFBF02C04FEF5FEFCA010895AFB7F894D1
:1059C00027702093E9008091F200282F30E02417FF
:1059D00035070CF4A901FB019B01240F311D94E64E
:1059E000DACFDF93CF930F92CDB7DEB7BE016F5FF3
:1059F0007F4F41E050E00E94BD2C019719F02FEF3E
:105A00003FEF03C08981282F30E0C9010F90CF916B
:105A1000DF910895FF920F931F93F82E142F052FF7
:105A20004091FF0750910008212F302FC901DC0160
:105A3000FB016EEF29C0F7FE02C0949101C0908176
:105A40002091FD073091FE0724173507ACF48091B3
:105A5000E8008570E1F38091E80082FF03C02FEF3A
:105A60003FEF17C09093F100C90101968F739070BA
:105A7000892B11F46093E8002F5F3F4F3093FE07AE
:105A80002093FD07119731961097A9F6812F902F3B
:105A90009C01C9011F910F91FF9008959C01809175
:105AA000E80082FFFCCFF901260F311D03C0809171
:105AB000F1008193E217F307D1F7289884E68093E9
:105AC000FB078BEF8093E800CB0108958093E900FA
:105AD0008091F200882319F08AE38093E80008950A
